{
	"assertStatment.sol": {
		"AssertStatement": {
			"abi": [
				{
					"inputs": [
						{
							"internalType": "uint256",
							"name": "_num1",
							"type": "uint256"
						},
						{
							"internalType": "uint256",
							"name": "_num2",
							"type": "uint256"
						}
					],
					"name": "checkOverflow",
					"outputs": [],
					"stateMutability": "nonpayable",
					"type": "function"
				},
				{
					"inputs": [],
					"name": "getResult",
					"outputs": [
						{
							"internalType": "string",
							"name": "",
							"type": "string"
						}
					],
					"stateMutability": "view",
					"type": "function"
				},
				{
					"inputs": [],
					"name": "result",
					"outputs": [
						{
							"internalType": "bool",
							"name": "",
							"type": "bool"
						}
					],
					"stateMutability": "view",
					"type": "function"
				}
			],
			"devdoc": {
				"kind": "dev",
				"methods": {},
				"version": 1
			},
			"evm": {
				"assembly": "    /* \"assertStatment.sol\":62:485  contract AssertStatement {... */\n  mstore(0x40, 0x80)\n  callvalue\n  dup1\n  iszero\n  tag_1\n  jumpi\n  revert(0x00, 0x00)\ntag_1:\n  pop\n  dataSize(sub_0)\n  dup1\n  dataOffset(sub_0)\n  0x00\n  codecopy\n  0x00\n  return\nstop\n\nsub_0: assembly {\n        /* \"assertStatment.sol\":62:485  contract AssertStatement {... */\n      mstore(0x40, 0x80)\n      callvalue\n      dup1\n      iszero\n      tag_1\n      jumpi\n      revert(0x00, 0x00)\n    tag_1:\n      pop\n      jumpi(tag_2, lt(calldatasize, 0x04))\n      shr(0xe0, calldataload(0x00))\n      dup1\n      0x65372147\n      eq\n      tag_3\n      jumpi\n      dup1\n      0xd6956970\n      eq\n      tag_4\n      jumpi\n      dup1\n      0xde292789\n      eq\n      tag_5\n      jumpi\n    tag_2:\n      revert(0x00, 0x00)\n        /* \"assertStatment.sol\":94:112  bool public result */\n    tag_3:\n      tag_6\n      tag_7\n      jump\t// in\n    tag_6:\n      mload(0x40)\n      tag_8\n      swap2\n      swap1\n      tag_9\n      jump\t// in\n    tag_8:\n      mload(0x40)\n      dup1\n      swap2\n      sub\n      swap1\n      return\n        /* \"assertStatment.sol\":119:273  function checkOverflow(uint256 _num1, uint256 _num2) public {... */\n    tag_4:\n      tag_10\n      0x04\n      dup1\n      calldatasize\n      sub\n      dup2\n      add\n      swap1\n      tag_11\n      swap2\n      swap1\n      tag_12\n      jump\t// in\n    tag_11:\n      tag_13\n      jump\t// in\n    tag_10:\n      stop\n        /* \"assertStatment.sol\":279:482  function getResult()public view returns(string memory) {... */\n    tag_5:\n      tag_14\n      tag_15\n      jump\t// in\n    tag_14:\n      mload(0x40)\n      tag_16\n      swap2\n      swap1\n      tag_17\n      jump\t// in\n    tag_16:\n      mload(0x40)\n      dup1\n      swap2\n      sub\n      swap1\n      return\n        /* \"assertStatment.sol\":94:112  bool public result */\n    tag_7:\n      0x00\n      0x00\n      swap1\n      sload\n      swap1\n      0x0100\n      exp\n      swap1\n      div\n      0xff\n      and\n      dup2\n      jump\t// out\n        /* \"assertStatment.sol\":119:273  function checkOverflow(uint256 _num1, uint256 _num2) public {... */\n    tag_13:\n        /* \"assertStatment.sol\":190:201  uint256 sum */\n      0x00\n        /* \"assertStatment.sol\":211:216  _num2 */\n      dup2\n        /* \"assertStatment.sol\":203:208  _num1 */\n      dup4\n        /* \"assertStatment.sol\":203:216  _num1 + _num2 */\n      tag_19\n      swap2\n      swap1\n      tag_20\n      jump\t// in\n    tag_19:\n        /* \"assertStatment.sol\":190:216  uint256 sum= _num1 + _num2 */\n      swap1\n      pop\n        /* \"assertStatment.sol\":239:242  255 */\n      0xff\n        /* \"assertStatment.sol\":234:237  sum */\n      dup2\n        /* \"assertStatment.sol\":234:242  sum<=255 */\n      gt\n      iszero\n        /* \"assertStatment.sol\":227:243  assert(sum<=255) */\n      tag_21\n      jumpi\n      tag_22\n      tag_23\n      jump\t// in\n    tag_22:\n    tag_21:\n        /* \"assertStatment.sol\":261:265  true */\n      0x01\n        /* \"assertStatment.sol\":254:260  result */\n      0x00\n      0x00\n        /* \"assertStatment.sol\":254:265  result=true */\n      0x0100\n      exp\n      dup2\n      sload\n      dup2\n      0xff\n      mul\n      not\n      and\n      swap1\n      dup4\n      iszero\n      iszero\n      mul\n      or\n      swap1\n      sstore\n      pop\n        /* \"assertStatment.sol\":179:273  {... */\n      pop\n        /* \"assertStatment.sol\":119:273  function checkOverflow(uint256 _num1, uint256 _num2) public {... */\n      pop\n      pop\n      jump\t// out\n        /* \"assertStatment.sol\":279:482  function getResult()public view returns(string memory) {... */\n    tag_15:\n        /* \"assertStatment.sol\":319:332  string memory */\n      0x60\n        /* \"assertStatment.sol\":357:361  true */\n      0x01\n        /* \"assertStatment.sol\":349:361  result==true */\n      iszero\n      iszero\n        /* \"assertStatment.sol\":349:355  result */\n      0x00\n      0x00\n      swap1\n      sload\n      swap1\n      0x0100\n      exp\n      swap1\n      div\n      0xff\n      and\n        /* \"assertStatment.sol\":349:361  result==true */\n      iszero\n      iszero\n      sub\n        /* \"assertStatment.sol\":345:475  if (result==true) {... */\n      tag_25\n      jumpi\n        /* \"assertStatment.sol\":378:398  return \"No overflow\" */\n      mload(0x40)\n      dup1\n      0x40\n      add\n      0x40\n      mstore\n      dup1\n      0x0b\n      dup2\n      mstore\n      0x20\n      add\n      0x4e6f206f766572666c6f77000000000000000000000000000000000000000000\n      dup2\n      mstore\n      pop\n      swap1\n      pop\n      jump(tag_24)\n        /* \"assertStatment.sol\":345:475  if (result==true) {... */\n    tag_25:\n        /* \"assertStatment.sol\":440:463  return \"Overflow exist\" */\n      mload(0x40)\n      dup1\n      0x40\n      add\n      0x40\n      mstore\n      dup1\n      0x0e\n      dup2\n      mstore\n      0x20\n      add\n      0x4f766572666c6f77206578697374000000000000000000000000000000000000\n      dup2\n      mstore\n      pop\n      swap1\n      pop\n        /* \"assertStatment.sol\":279:482  function getResult()public view returns(string memory) {... */\n    tag_24:\n      swap1\n      jump\t// out\n        /* \"#utility.yul\":7:97   */\n    tag_27:\n        /* \"#utility.yul\":41:48   */\n      0x00\n        /* \"#utility.yul\":84:89   */\n      dup2\n        /* \"#utility.yul\":77:90   */\n      iszero\n        /* \"#utility.yul\":70:91   */\n      iszero\n        /* \"#utility.yul\":59:91   */\n      swap1\n      pop\n        /* \"#utility.yul\":7:97   */\n      swap2\n      swap1\n      pop\n      jump\t// out\n        /* \"#utility.yul\":103:212   */\n    tag_28:\n        /* \"#utility.yul\":184:205   */\n      tag_44\n        /* \"#utility.yul\":199:204   */\n      dup2\n        /* \"#utility.yul\":184:205   */\n      tag_27\n      jump\t// in\n    tag_44:\n        /* \"#utility.yul\":179:182   */\n      dup3\n        /* \"#utility.yul\":172:206   */\n      mstore\n        /* \"#utility.yul\":103:212   */\n      pop\n      pop\n      jump\t// out\n        /* \"#utility.yul\":218:428   */\n    tag_9:\n        /* \"#utility.yul\":305:309   */\n      0x00\n        /* \"#utility.yul\":343:345   */\n      0x20\n        /* \"#utility.yul\":332:341   */\n      dup3\n        /* \"#utility.yul\":328:346   */\n      add\n        /* \"#utility.yul\":320:346   */\n      swap1\n      pop\n        /* \"#utility.yul\":356:421   */\n      tag_46\n        /* \"#utility.yul\":418:419   */\n      0x00\n        /* \"#utility.yul\":407:416   */\n      dup4\n        /* \"#utility.yul\":403:420   */\n      add\n        /* \"#utility.yul\":394:400   */\n      dup5\n        /* \"#utility.yul\":356:421   */\n      tag_28\n      jump\t// in\n    tag_46:\n        /* \"#utility.yul\":218:428   */\n      swap3\n      swap2\n      pop\n      pop\n      jump\t// out\n        /* \"#utility.yul\":515:632   */\n    tag_30:\n        /* \"#utility.yul\":624:625   */\n      0x00\n        /* \"#utility.yul\":621:622   */\n      0x00\n        /* \"#utility.yul\":614:626   */\n      revert\n        /* \"#utility.yul\":761:838   */\n    tag_32:\n        /* \"#utility.yul\":798:805   */\n      0x00\n        /* \"#utility.yul\":827:832   */\n      dup2\n        /* \"#utility.yul\":816:832   */\n      swap1\n      pop\n        /* \"#utility.yul\":761:838   */\n      swap2\n      swap1\n      pop\n      jump\t// out\n        /* \"#utility.yul\":844:966   */\n    tag_33:\n        /* \"#utility.yul\":917:941   */\n      tag_52\n        /* \"#utility.yul\":935:940   */\n      dup2\n        /* \"#utility.yul\":917:941   */\n      tag_32\n      jump\t// in\n    tag_52:\n        /* \"#utility.yul\":910:915   */\n      dup2\n        /* \"#utility.yul\":907:942   */\n      eq\n        /* \"#utility.yul\":897:960   */\n      tag_53\n      jumpi\n        /* \"#utility.yul\":956:957   */\n      0x00\n        /* \"#utility.yul\":953:954   */\n      0x00\n        /* \"#utility.yul\":946:958   */\n      revert\n        /* \"#utility.yul\":897:960   */\n    tag_53:\n        /* \"#utility.yul\":844:966   */\n      pop\n      jump\t// out\n        /* \"#utility.yul\":972:1111   */\n    tag_34:\n        /* \"#utility.yul\":1018:1023   */\n      0x00\n        /* \"#utility.yul\":1056:1062   */\n      dup2\n        /* \"#utility.yul\":1043:1063   */\n      calldataload\n        /* \"#utility.yul\":1034:1063   */\n      swap1\n      pop\n        /* \"#utility.yul\":1072:1105   */\n      tag_55\n        /* \"#utility.yul\":1099:1104   */\n      dup2\n        /* \"#utility.yul\":1072:1105   */\n      tag_33\n      jump\t// in\n    tag_55:\n        /* \"#utility.yul\":972:1111   */\n      swap3\n      swap2\n      pop\n      pop\n      jump\t// out\n        /* \"#utility.yul\":1117:1591   */\n    tag_12:\n        /* \"#utility.yul\":1185:1191   */\n      0x00\n        /* \"#utility.yul\":1193:1199   */\n      0x00\n        /* \"#utility.yul\":1242:1244   */\n      0x40\n        /* \"#utility.yul\":1230:1239   */\n      dup4\n        /* \"#utility.yul\":1221:1228   */\n      dup6\n        /* \"#utility.yul\":1217:1240   */\n      sub\n        /* \"#utility.yul\":1213:1245   */\n      slt\n        /* \"#utility.yul\":1210:1329   */\n      iszero\n      tag_57\n      jumpi\n        /* \"#utility.yul\":1248:1327   */\n      tag_58\n      tag_30\n      jump\t// in\n    tag_58:\n        /* \"#utility.yul\":1210:1329   */\n    tag_57:\n        /* \"#utility.yul\":1368:1369   */\n      0x00\n        /* \"#utility.yul\":1393:1446   */\n      tag_59\n        /* \"#utility.yul\":1438:1445   */\n      dup6\n        /* \"#utility.yul\":1429:1435   */\n      dup3\n        /* \"#utility.yul\":1418:1427   */\n      dup7\n        /* \"#utility.yul\":1414:1436   */\n      add\n        /* \"#utility.yul\":1393:1446   */\n      tag_34\n      jump\t// in\n    tag_59:\n        /* \"#utility.yul\":1383:1446   */\n      swap3\n      pop\n        /* \"#utility.yul\":1339:1456   */\n      pop\n        /* \"#utility.yul\":1495:1497   */\n      0x20\n        /* \"#utility.yul\":1521:1574   */\n      tag_60\n        /* \"#utility.yul\":1566:1573   */\n      dup6\n        /* \"#utility.yul\":1557:1563   */\n      dup3\n        /* \"#utility.yul\":1546:1555   */\n      dup7\n        /* \"#utility.yul\":1542:1564   */\n      add\n        /* \"#utility.yul\":1521:1574   */\n      tag_34\n      jump\t// in\n    tag_60:\n        /* \"#utility.yul\":1511:1574   */\n      swap2\n      pop\n        /* \"#utility.yul\":1466:1584   */\n      pop\n        /* \"#utility.yul\":1117:1591   */\n      swap3\n      pop\n      swap3\n      swap1\n      pop\n      jump\t// out\n        /* \"#utility.yul\":1597:1696   */\n    tag_35:\n        /* \"#utility.yul\":1649:1655   */\n      0x00\n        /* \"#utility.yul\":1683:1688   */\n      dup2\n        /* \"#utility.yul\":1677:1689   */\n      mload\n        /* \"#utility.yul\":1667:1689   */\n      swap1\n      pop\n        /* \"#utility.yul\":1597:1696   */\n      swap2\n      swap1\n      pop\n      jump\t// out\n        /* \"#utility.yul\":1702:1871   */\n    tag_36:\n        /* \"#utility.yul\":1786:1797   */\n      0x00\n        /* \"#utility.yul\":1820:1826   */\n      dup3\n        /* \"#utility.yul\":1815:1818   */\n      dup3\n        /* \"#utility.yul\":1808:1827   */\n      mstore\n        /* \"#utility.yul\":1860:1864   */\n      0x20\n        /* \"#utility.yul\":1855:1858   */\n      dup3\n        /* \"#utility.yul\":1851:1865   */\n      add\n        /* \"#utility.yul\":1836:1865   */\n      swap1\n      pop\n        /* \"#utility.yul\":1702:1871   */\n      swap3\n      swap2\n      pop\n      pop\n      jump\t// out\n        /* \"#utility.yul\":1877:2016   */\n    tag_37:\n        /* \"#utility.yul\":1966:1972   */\n      dup3\n        /* \"#utility.yul\":1961:1964   */\n      dup2\n        /* \"#utility.yul\":1956:1959   */\n      dup4\n        /* \"#utility.yul\":1950:1973   */\n      mcopy\n        /* \"#utility.yul\":2007:2008   */\n      0x00\n        /* \"#utility.yul\":1998:2004   */\n      dup4\n        /* \"#utility.yul\":1993:1996   */\n      dup4\n        /* \"#utility.yul\":1989:2005   */\n      add\n        /* \"#utility.yul\":1982:2009   */\n      mstore\n        /* \"#utility.yul\":1877:2016   */\n      pop\n      pop\n      pop\n      jump\t// out\n        /* \"#utility.yul\":2022:2124   */\n    tag_38:\n        /* \"#utility.yul\":2063:2069   */\n      0x00\n        /* \"#utility.yul\":2114:2116   */\n      0x1f\n        /* \"#utility.yul\":2110:2117   */\n      not\n        /* \"#utility.yul\":2105:2107   */\n      0x1f\n        /* \"#utility.yul\":2098:2103   */\n      dup4\n        /* \"#utility.yul\":2094:2108   */\n      add\n        /* \"#utility.yul\":2090:2118   */\n      and\n        /* \"#utility.yul\":2080:2118   */\n      swap1\n      pop\n        /* \"#utility.yul\":2022:2124   */\n      swap2\n      swap1\n      pop\n      jump\t// out\n        /* \"#utility.yul\":2130:2507   */\n    tag_39:\n        /* \"#utility.yul\":2218:2221   */\n      0x00\n        /* \"#utility.yul\":2246:2285   */\n      tag_66\n        /* \"#utility.yul\":2279:2284   */\n      dup3\n        /* \"#utility.yul\":2246:2285   */\n      tag_35\n      jump\t// in\n    tag_66:\n        /* \"#utility.yul\":2301:2372   */\n      tag_67\n        /* \"#utility.yul\":2365:2371   */\n      dup2\n        /* \"#utility.yul\":2360:2363   */\n      dup6\n        /* \"#utility.yul\":2301:2372   */\n      tag_36\n      jump\t// in\n    tag_67:\n        /* \"#utility.yul\":2294:2372   */\n      swap4\n      pop\n        /* \"#utility.yul\":2381:2446   */\n      tag_68\n        /* \"#utility.yul\":2439:2445   */\n      dup2\n        /* \"#utility.yul\":2434:2437   */\n      dup6\n        /* \"#utility.yul\":2427:2431   */\n      0x20\n        /* \"#utility.yul\":2420:2425   */\n      dup7\n        /* \"#utility.yul\":2416:2432   */\n      add\n        /* \"#utility.yul\":2381:2446   */\n      tag_37\n      jump\t// in\n    tag_68:\n        /* \"#utility.yul\":2471:2500   */\n      tag_69\n        /* \"#utility.yul\":2493:2499   */\n      dup2\n        /* \"#utility.yul\":2471:2500   */\n      tag_38\n      jump\t// in\n    tag_69:\n        /* \"#utility.yul\":2466:2469   */\n      dup5\n        /* \"#utility.yul\":2462:2501   */\n      add\n        /* \"#utility.yul\":2455:2501   */\n      swap2\n      pop\n        /* \"#utility.yul\":2222:2507   */\n      pop\n        /* \"#utility.yul\":2130:2507   */\n      swap3\n      swap2\n      pop\n      pop\n      jump\t// out\n        /* \"#utility.yul\":2513:2826   */\n    tag_17:\n        /* \"#utility.yul\":2626:2630   */\n      0x00\n        /* \"#utility.yul\":2664:2666   */\n      0x20\n        /* \"#utility.yul\":2653:2662   */\n      dup3\n        /* \"#utility.yul\":2649:2667   */\n      add\n        /* \"#utility.yul\":2641:2667   */\n      swap1\n      pop\n        /* \"#utility.yul\":2713:2722   */\n      dup2\n        /* \"#utility.yul\":2707:2711   */\n      dup2\n        /* \"#utility.yul\":2703:2723   */\n      sub\n        /* \"#utility.yul\":2699:2700   */\n      0x00\n        /* \"#utility.yul\":2688:2697   */\n      dup4\n        /* \"#utility.yul\":2684:2701   */\n      add\n        /* \"#utility.yul\":2677:2724   */\n      mstore\n        /* \"#utility.yul\":2741:2819   */\n      tag_71\n        /* \"#utility.yul\":2814:2818   */\n      dup2\n        /* \"#utility.yul\":2805:2811   */\n      dup5\n        /* \"#utility.yul\":2741:2819   */\n      tag_39\n      jump\t// in\n    tag_71:\n        /* \"#utility.yul\":2733:2819   */\n      swap1\n      pop\n        /* \"#utility.yul\":2513:2826   */\n      swap3\n      swap2\n      pop\n      pop\n      jump\t// out\n        /* \"#utility.yul\":2832:3012   */\n    tag_40:\n        /* \"#utility.yul\":2880:2957   */\n      0x4e487b7100000000000000000000000000000000000000000000000000000000\n        /* \"#utility.yul\":2877:2878   */\n      0x00\n        /* \"#utility.yul\":2870:2958   */\n      mstore\n        /* \"#utility.yul\":2977:2981   */\n      0x11\n        /* \"#utility.yul\":2974:2975   */\n      0x04\n        /* \"#utility.yul\":2967:2982   */\n      mstore\n        /* \"#utility.yul\":3001:3005   */\n      0x24\n        /* \"#utility.yul\":2998:2999   */\n      0x00\n        /* \"#utility.yul\":2991:3006   */\n      revert\n        /* \"#utility.yul\":3018:3209   */\n    tag_20:\n        /* \"#utility.yul\":3058:3061   */\n      0x00\n        /* \"#utility.yul\":3077:3097   */\n      tag_74\n        /* \"#utility.yul\":3095:3096   */\n      dup3\n        /* \"#utility.yul\":3077:3097   */\n      tag_32\n      jump\t// in\n    tag_74:\n        /* \"#utility.yul\":3072:3097   */\n      swap2\n      pop\n        /* \"#utility.yul\":3111:3131   */\n      tag_75\n        /* \"#utility.yul\":3129:3130   */\n      dup4\n        /* \"#utility.yul\":3111:3131   */\n      tag_32\n      jump\t// in\n    tag_75:\n        /* \"#utility.yul\":3106:3131   */\n      swap3\n      pop\n        /* \"#utility.yul\":3154:3155   */\n      dup3\n        /* \"#utility.yul\":3151:3152   */\n      dup3\n        /* \"#utility.yul\":3147:3156   */\n      add\n        /* \"#utility.yul\":3140:3156   */\n      swap1\n      pop\n        /* \"#utility.yul\":3175:3178   */\n      dup1\n        /* \"#utility.yul\":3172:3173   */\n      dup3\n        /* \"#utility.yul\":3169:3179   */\n      gt\n        /* \"#utility.yul\":3166:3202   */\n      iszero\n      tag_76\n      jumpi\n        /* \"#utility.yul\":3182:3200   */\n      tag_77\n      tag_40\n      jump\t// in\n    tag_77:\n        /* \"#utility.yul\":3166:3202   */\n    tag_76:\n        /* \"#utility.yul\":3018:3209   */\n      swap3\n      swap2\n      pop\n      pop\n      jump\t// out\n        /* \"#utility.yul\":3215:3395   */\n    tag_23:\n        /* \"#utility.yul\":3263:3340   */\n      0x4e487b7100000000000000000000000000000000000000000000000000000000\n        /* \"#utility.yul\":3260:3261   */\n      0x00\n        /* \"#utility.yul\":3253:3341   */\n      mstore\n        /* \"#utility.yul\":3360:3364   */\n      0x01\n        /* \"#utility.yul\":3357:3358   */\n      0x04\n        /* \"#utility.yul\":3350:3365   */\n      mstore\n        /* \"#utility.yul\":3384:3388   */\n      0x24\n        /* \"#utility.yul\":3381:3382   */\n      0x00\n        /* \"#utility.yul\":3374:3389   */\n      revert\n\n    auxdata: 0xa264697066735822122080881ac6d82318229f606b4efa4b23c9c14991092f46842e5e00df473750866064736f6c634300081c0033\n}\n",
				"bytecode": {
					"linkReferences": {},
					"object": "6080604052348015600e575f5ffd5b5061037a8061001c5f395ff3fe608060405234801561000f575f5ffd5b506004361061003f575f3560e01c80636537214714610043578063d695697014610061578063de2927891461007d575b5f5ffd5b61004b61009b565b6040516100589190610199565b60405180910390f35b61007b600480360381019061007691906101e9565b6100ac565b005b6100856100eb565b6040516100929190610297565b60405180910390f35b5f5f9054906101000a900460ff1681565b5f81836100b991906102e4565b905060ff8111156100cd576100cc610317565b5b60015f5f6101000a81548160ff021916908315150217905550505050565b6060600115155f5f9054906101000a900460ff16151503610143576040518060400160405280600b81526020017f4e6f206f766572666c6f77000000000000000000000000000000000000000000815250905061017c565b6040518060400160405280600e81526020017f4f766572666c6f7720657869737400000000000000000000000000000000000081525090505b90565b5f8115159050919050565b6101938161017f565b82525050565b5f6020820190506101ac5f83018461018a565b92915050565b5f5ffd5b5f819050919050565b6101c8816101b6565b81146101d2575f5ffd5b50565b5f813590506101e3816101bf565b92915050565b5f5f604083850312156101ff576101fe6101b2565b5b5f61020c858286016101d5565b925050602061021d858286016101d5565b9150509250929050565b5f81519050919050565b5f82825260208201905092915050565b8281835e5f83830152505050565b5f601f19601f8301169050919050565b5f61026982610227565b6102738185610231565b9350610283818560208601610241565b61028c8161024f565b840191505092915050565b5f6020820190508181035f8301526102af818461025f565b905092915050565b7f4e487b71000000000000000000000000000000000000000000000000000000005f52601160045260245ffd5b5f6102ee826101b6565b91506102f9836101b6565b9250828201905080821115610311576103106102b7565b5b92915050565b7f4e487b71000000000000000000000000000000000000000000000000000000005f52600160045260245ffdfea264697066735822122080881ac6d82318229f606b4efa4b23c9c14991092f46842e5e00df473750866064736f6c634300081c0033",
					"opcodes": "PUSH1 0x80 PUSH1 0x40 MSTORE CALLVALUE DUP1 ISZERO PUSH1 0xE JUMPI PUSH0 PUSH0 REVERT JUMPDEST POP PUSH2 0x37A DUP1 PUSH2 0x1C PUSH0 CODECOPY PUSH0 RETURN INVALID PUSH1 0x80 PUSH1 0x40 MSTORE CALLVALUE DUP1 ISZERO PUSH2 0xF JUMPI PUSH0 PUSH0 REVERT JUMPDEST POP PUSH1 0x4 CALLDATASIZE LT PUSH2 0x3F JUMPI PUSH0 CALLDATALOAD PUSH1 0xE0 SHR DUP1 PUSH4 0x65372147 EQ PUSH2 0x43 JUMPI DUP1 PUSH4 0xD6956970 EQ PUSH2 0x61 JUMPI DUP1 PUSH4 0xDE292789 EQ PUSH2 0x7D JUMPI JUMPDEST PUSH0 PUSH0 REVERT JUMPDEST PUSH2 0x4B PUSH2 0x9B JUMP JUMPDEST PUSH1 0x40 MLOAD PUSH2 0x58 SWAP2 SWAP1 PUSH2 0x199 JUMP JUMPDEST PUSH1 0x40 MLOAD DUP1 SWAP2 SUB SWAP1 RETURN JUMPDEST PUSH2 0x7B PUSH1 0x4 DUP1 CALLDATASIZE SUB DUP2 ADD SWAP1 PUSH2 0x76 SWAP2 SWAP1 PUSH2 0x1E9 JUMP JUMPDEST PUSH2 0xAC JUMP JUMPDEST STOP JUMPDEST PUSH2 0x85 PUSH2 0xEB JUMP JUMPDEST PUSH1 0x40 MLOAD PUSH2 0x92 SWAP2 SWAP1 PUSH2 0x297 JUMP JUMPDEST PUSH1 0x40 MLOAD DUP1 SWAP2 SUB SWAP1 RETURN JUMPDEST PUSH0 PUSH0 SWAP1 SLOAD SWAP1 PUSH2 0x100 EXP SWAP1 DIV PUSH1 0xFF AND DUP2 JUMP JUMPDEST PUSH0 DUP2 DUP4 PUSH2 0xB9 SWAP2 SWAP1 PUSH2 0x2E4 JUMP JUMPDEST SWAP1 POP PUSH1 0xFF DUP2 GT ISZERO PUSH2 0xCD JUMPI PUSH2 0xCC PUSH2 0x317 JUMP JUMPDEST JUMPDEST PUSH1 0x1 PUSH0 PUSH0 PUSH2 0x100 EXP DUP2 SLOAD DUP2 PUSH1 0xFF MUL NOT AND SWAP1 DUP4 ISZERO ISZERO MUL OR SWAP1 SSTORE POP POP POP POP JUMP JUMPDEST PUSH1 0x60 PUSH1 0x1 ISZERO ISZERO PUSH0 PUSH0 SWAP1 SLOAD SWAP1 PUSH2 0x100 EXP SWAP1 DIV PUSH1 0xFF AND ISZERO ISZERO SUB PUSH2 0x143 JUMPI PUSH1 0x40 MLOAD DUP1 PUSH1 0x40 ADD PUSH1 0x40 MSTORE DUP1 PUSH1 0xB DUP2 MSTORE PUSH1 0x20 ADD PUSH32 0x4E6F206F766572666C6F77000000000000000000000000000000000000000000 DUP2 MSTORE POP SWAP1 POP PUSH2 0x17C JUMP JUMPDEST PUSH1 0x40 MLOAD DUP1 PUSH1 0x40 ADD PUSH1 0x40 MSTORE DUP1 PUSH1 0xE DUP2 MSTORE PUSH1 0x20 ADD PUSH32 0x4F766572666C6F77206578697374000000000000000000000000000000000000 DUP2 MSTORE POP SWAP1 POP JUMPDEST SWAP1 JUMP JUMPDEST PUSH0 DUP2 ISZERO ISZERO SWAP1 POP SWAP2 SWAP1 POP JUMP JUMPDEST PUSH2 0x193 DUP2 PUSH2 0x17F JUMP JUMPDEST DUP3 MSTORE POP POP JUMP JUMPDEST PUSH0 PUSH1 0x20 DUP3 ADD SWAP1 POP PUSH2 0x1AC PUSH0 DUP4 ADD DUP5 PUSH2 0x18A JUMP JUMPDEST SWAP3 SWAP2 POP POP JUMP JUMPDEST PUSH0 PUSH0 REVERT JUMPDEST PUSH0 DUP2 SWAP1 POP SWAP2 SWAP1 POP JUMP JUMPDEST PUSH2 0x1C8 DUP2 PUSH2 0x1B6 JUMP JUMPDEST DUP2 EQ PUSH2 0x1D2 JUMPI PUSH0 PUSH0 REVERT JUMPDEST POP JUMP JUMPDEST PUSH0 DUP2 CALLDATALOAD SWAP1 POP PUSH2 0x1E3 DUP2 PUSH2 0x1BF JUMP JUMPDEST SWAP3 SWAP2 POP POP JUMP JUMPDEST PUSH0 PUSH0 PUSH1 0x40 DUP4 DUP6 SUB SLT ISZERO PUSH2 0x1FF JUMPI PUSH2 0x1FE PUSH2 0x1B2 JUMP JUMPDEST JUMPDEST PUSH0 PUSH2 0x20C DUP6 DUP3 DUP7 ADD PUSH2 0x1D5 JUMP JUMPDEST SWAP3 POP POP PUSH1 0x20 PUSH2 0x21D DUP6 DUP3 DUP7 ADD PUSH2 0x1D5 JUMP JUMPDEST SWAP2 POP POP SWAP3 POP SWAP3 SWAP1 POP JUMP JUMPDEST PUSH0 DUP2 MLOAD SWAP1 POP SWAP2 SWAP1 POP JUMP JUMPDEST PUSH0 DUP3 DUP3 MSTORE PUSH1 0x20 DUP3 ADD SWAP1 POP SWAP3 SWAP2 POP POP JUMP JUMPDEST DUP3 DUP2 DUP4 MCOPY PUSH0 DUP4 DUP4 ADD MSTORE POP POP POP JUMP JUMPDEST PUSH0 PUSH1 0x1F NOT PUSH1 0x1F DUP4 ADD AND SWAP1 POP SWAP2 SWAP1 POP JUMP JUMPDEST PUSH0 PUSH2 0x269 DUP3 PUSH2 0x227 JUMP JUMPDEST PUSH2 0x273 DUP2 DUP6 PUSH2 0x231 JUMP JUMPDEST SWAP4 POP PUSH2 0x283 DUP2 DUP6 PUSH1 0x20 DUP7 ADD PUSH2 0x241 JUMP JUMPDEST PUSH2 0x28C DUP2 PUSH2 0x24F JUMP JUMPDEST DUP5 ADD SWAP2 POP POP SWAP3 SWAP2 POP POP JUMP JUMPDEST PUSH0 PUSH1 0x20 DUP3 ADD SWAP1 POP DUP2 DUP2 SUB PUSH0 DUP4 ADD MSTORE PUSH2 0x2AF DUP2 DUP5 PUSH2 0x25F JUMP JUMPDEST SWAP1 POP SWAP3 SWAP2 POP POP JUMP JUMPDEST PUSH32 0x4E487B7100000000000000000000000000000000000000000000000000000000 PUSH0 MSTORE PUSH1 0x11 PUSH1 0x4 MSTORE PUSH1 0x24 PUSH0 REVERT JUMPDEST PUSH0 PUSH2 0x2EE DUP3 PUSH2 0x1B6 JUMP JUMPDEST SWAP2 POP PUSH2 0x2F9 DUP4 PUSH2 0x1B6 JUMP JUMPDEST SWAP3 POP DUP3 DUP3 ADD SWAP1 POP DUP1 DUP3 GT ISZERO PUSH2 0x311 JUMPI PUSH2 0x310 PUSH2 0x2B7 JUMP JUMPDEST JUMPDEST SWAP3 SWAP2 POP POP JUMP JUMPDEST PUSH32 0x4E487B7100000000000000000000000000000000000000000000000000000000 PUSH0 MSTORE PUSH1 0x1 PUSH1 0x4 MSTORE PUSH1 0x24 PUSH0 REVERT INVALID LOG2 PUSH5 0x6970667358 0x22 SLT KECCAK256 DUP1 DUP9 BYTE 0xC6 0xD8 0x23 XOR 0x22 SWAP16 PUSH1 0x6B 0x4E STATICCALL 0x4B 0x23 0xC9 0xC1 BLOBHASH SWAP2 MULMOD 0x2F CHAINID DUP5 0x2E MCOPY STOP 0xDF SELFBALANCE CALLDATACOPY POP DUP7 PUSH1 0x64 PUSH20 0x6F6C634300081C00330000000000000000000000 "
				},
				"gasEstimates": {
					"creation": {
						"codeDepositCost": "178000",
						"executionCost": "218",
						"totalCost": "178218"
					},
					"external": {
						"checkOverflow(uint256,uint256)": "infinite",
						"getResult()": "infinite",
						"result()": "2443"
					}
				},
				"methodIdentifiers": {
					"checkOverflow(uint256,uint256)": "d6956970",
					"getResult()": "de292789",
					"result()": "65372147"
				}
			},
			"storageLayout": {
				"storage": [
					{
						"astId": 3,
						"contract": "assertStatment.sol:AssertStatement",
						"label": "result",
						"offset": 0,
						"slot": "0",
						"type": "t_bool"
					}
				],
				"types": {
					"t_bool": {
						"encoding": "inplace",
						"label": "bool",
						"numberOfBytes": "1"
					}
				}
			},
			"userdoc": {
				"kind": "user",
				"methods": {},
				"version": 1
			}
		}
	}
}