{
	"struct.sol": {
		"Struct": {
			"abi": [
				{
					"inputs": [
						{
							"internalType": "string",
							"name": "_text",
							"type": "string"
						}
					],
					"name": "create",
					"outputs": [],
					"stateMutability": "nonpayable",
					"type": "function"
				},
				{
					"inputs": [
						{
							"internalType": "uint256",
							"name": "_index",
							"type": "uint256"
						}
					],
					"name": "get",
					"outputs": [
						{
							"internalType": "string",
							"name": "text",
							"type": "string"
						},
						{
							"internalType": "bool",
							"name": "completed",
							"type": "bool"
						}
					],
					"stateMutability": "view",
					"type": "function"
				},
				{
					"inputs": [
						{
							"internalType": "uint256",
							"name": "",
							"type": "uint256"
						}
					],
					"name": "todos",
					"outputs": [
						{
							"internalType": "string",
							"name": "text",
							"type": "string"
						},
						{
							"internalType": "bool",
							"name": "completed",
							"type": "bool"
						}
					],
					"stateMutability": "view",
					"type": "function"
				}
			],
			"devdoc": {
				"kind": "dev",
				"methods": {},
				"version": 1
			},
			"evm": {
				"assembly": "    /* \"struct.sol\":62:466  contract Struct {... */\n  mstore(0x40, 0x80)\n  callvalue\n  dup1\n  iszero\n  tag_1\n  jumpi\n  revert(0x00, 0x00)\ntag_1:\n  pop\n  dataSize(sub_0)\n  dup1\n  dataOffset(sub_0)\n  0x00\n  codecopy\n  0x00\n  return\nstop\n\nsub_0: assembly {\n        /* \"struct.sol\":62:466  contract Struct {... */\n      mstore(0x40, 0x80)\n      callvalue\n      dup1\n      iszero\n      tag_1\n      jumpi\n      revert(0x00, 0x00)\n    tag_1:\n      pop\n      jumpi(tag_2, lt(calldatasize, 0x04))\n      shr(0xe0, calldataload(0x00))\n      dup1\n      0x9507d39a\n      eq\n      tag_3\n      jumpi\n      dup1\n      0xb6a46b3b\n      eq\n      tag_4\n      jumpi\n      dup1\n      0xbc8bc2b4\n      eq\n      tag_5\n      jumpi\n    tag_2:\n      revert(0x00, 0x00)\n        /* \"struct.sol\":289:463  function get(uint _index)public view returns(string memory text,bool completed) {... */\n    tag_3:\n      tag_6\n      0x04\n      dup1\n      calldatasize\n      sub\n      dup2\n      add\n      swap1\n      tag_7\n      swap2\n      swap1\n      tag_8\n      jump\t// in\n    tag_7:\n      tag_9\n      jump\t// in\n    tag_6:\n      mload(0x40)\n      tag_10\n      swap3\n      swap2\n      swap1\n      tag_11\n      jump\t// in\n    tag_10:\n      mload(0x40)\n      dup1\n      swap2\n      sub\n      swap1\n      return\n        /* \"struct.sol\":187:283  function create(string calldata _text)public  {... */\n    tag_4:\n      tag_12\n      0x04\n      dup1\n      calldatasize\n      sub\n      dup2\n      add\n      swap1\n      tag_13\n      swap2\n      swap1\n      tag_14\n      jump\t// in\n    tag_13:\n      tag_15\n      jump\t// in\n    tag_12:\n      stop\n        /* \"struct.sol\":161:180  Todo[] public todos */\n    tag_5:\n      tag_16\n      0x04\n      dup1\n      calldatasize\n      sub\n      dup2\n      add\n      swap1\n      tag_17\n      swap2\n      swap1\n      tag_8\n      jump\t// in\n    tag_17:\n      tag_18\n      jump\t// in\n    tag_16:\n      mload(0x40)\n      tag_19\n      swap3\n      swap2\n      swap1\n      tag_11\n      jump\t// in\n    tag_19:\n      mload(0x40)\n      dup1\n      swap2\n      sub\n      swap1\n      return\n        /* \"struct.sol\":289:463  function get(uint _index)public view returns(string memory text,bool completed) {... */\n    tag_9:\n        /* \"struct.sol\":334:352  string memory text */\n      0x60\n        /* \"struct.sol\":353:367  bool completed */\n      0x00\n        /* \"struct.sol\":380:397  Todo storage todo */\n      0x00\n        /* \"struct.sol\":398:403  todos */\n      0x00\n        /* \"struct.sol\":404:410  _index */\n      dup5\n        /* \"struct.sol\":398:411  todos[_index] */\n      dup2\n      sload\n      dup2\n      lt\n      tag_21\n      jumpi\n      tag_22\n      tag_23\n      jump\t// in\n    tag_22:\n    tag_21:\n      swap1\n      0x00\n      mstore\n      keccak256(0x00, 0x20)\n      swap1\n      0x02\n      mul\n      add\n        /* \"struct.sol\":380:411  Todo storage todo=todos[_index] */\n      swap1\n      pop\n        /* \"struct.sol\":430:434  todo */\n      dup1\n        /* \"struct.sol\":430:439  todo.text */\n      0x00\n      add\n        /* \"struct.sol\":440:444  todo */\n      dup2\n        /* \"struct.sol\":440:454  todo.completed */\n      0x01\n      add\n      0x00\n      swap1\n      sload\n      swap1\n      0x0100\n      exp\n      swap1\n      div\n      0xff\n      and\n        /* \"struct.sol\":422:455  return (todo.text,todo.completed) */\n      dup2\n      dup1\n      sload\n      tag_25\n      swap1\n      tag_26\n      jump\t// in\n    tag_25:\n      dup1\n      0x1f\n      add\n      0x20\n      dup1\n      swap2\n      div\n      mul\n      0x20\n      add\n      mload(0x40)\n      swap1\n      dup2\n      add\n      0x40\n      mstore\n      dup1\n      swap3\n      swap2\n      swap1\n      dup2\n      dup2\n      mstore\n      0x20\n      add\n      dup3\n      dup1\n      sload\n      tag_27\n      swap1\n      tag_26\n      jump\t// in\n    tag_27:\n      dup1\n      iszero\n      tag_28\n      jumpi\n      dup1\n      0x1f\n      lt\n      tag_29\n      jumpi\n      0x0100\n      dup1\n      dup4\n      sload\n      div\n      mul\n      dup4\n      mstore\n      swap2\n      0x20\n      add\n      swap2\n      jump(tag_28)\n    tag_29:\n      dup3\n      add\n      swap2\n      swap1\n      0x00\n      mstore\n      keccak256(0x00, 0x20)\n      swap1\n    tag_30:\n      dup2\n      sload\n      dup2\n      mstore\n      swap1\n      0x01\n      add\n      swap1\n      0x20\n      add\n      dup1\n      dup4\n      gt\n      tag_30\n      jumpi\n      dup3\n      swap1\n      sub\n      0x1f\n      and\n      dup3\n      add\n      swap2\n    tag_28:\n      pop\n      pop\n      pop\n      pop\n      pop\n      swap2\n      pop\n      swap3\n      pop\n      swap3\n      pop\n      pop\n        /* \"struct.sol\":289:463  function get(uint _index)public view returns(string memory text,bool completed) {... */\n      swap2\n      pop\n      swap2\n      jump\t// out\n        /* \"struct.sol\":187:283  function create(string calldata _text)public  {... */\n    tag_15:\n        /* \"struct.sol\":244:249  todos */\n      0x00\n        /* \"struct.sol\":255:272  Todo(_text,false) */\n      mload(0x40)\n      dup1\n      0x40\n      add\n      0x40\n      mstore\n      dup1\n        /* \"struct.sol\":260:265  _text */\n      dup5\n      dup5\n        /* \"struct.sol\":255:272  Todo(_text,false) */\n      dup1\n      dup1\n      0x1f\n      add\n      0x20\n      dup1\n      swap2\n      div\n      mul\n      0x20\n      add\n      mload(0x40)\n      swap1\n      dup2\n      add\n      0x40\n      mstore\n      dup1\n      swap4\n      swap3\n      swap2\n      swap1\n      dup2\n      dup2\n      mstore\n      0x20\n      add\n      dup4\n      dup4\n      dup1\n      dup3\n      dup5\n      calldatacopy\n      0x00\n      dup2\n      dup5\n      add\n      mstore\n      not(0x1f)\n      0x1f\n      dup3\n      add\n      and\n      swap1\n      pop\n      dup1\n      dup4\n      add\n      swap3\n      pop\n      pop\n      pop\n      pop\n      pop\n      pop\n      pop\n      dup2\n      mstore\n      0x20\n      add\n        /* \"struct.sol\":266:271  false */\n      0x00\n        /* \"struct.sol\":255:272  Todo(_text,false) */\n      iszero\n      iszero\n      dup2\n      mstore\n      pop\n        /* \"struct.sol\":244:273  todos.push(Todo(_text,false)) */\n      swap1\n      dup1\n      0x01\n      dup2\n      sload\n      add\n      dup1\n      dup3\n      sstore\n      dup1\n      swap2\n      pop\n      pop\n      0x01\n      swap1\n      sub\n      swap1\n      0x00\n      mstore\n      keccak256(0x00, 0x20)\n      swap1\n      0x02\n      mul\n      add\n      0x00\n      swap1\n      swap2\n      swap1\n      swap2\n      swap1\n      swap2\n      pop\n      0x00\n      dup3\n      add\n      mload\n      dup2\n      0x00\n      add\n      swap1\n      dup2\n      tag_33\n      swap2\n      swap1\n      tag_34\n      jump\t// in\n    tag_33:\n      pop\n      0x20\n      dup3\n      add\n      mload\n      dup2\n      0x01\n      add\n      exp(0x0100, 0x00)\n      dup2\n      sload\n      dup2\n      0xff\n      mul\n      not\n      and\n      swap1\n      dup4\n      iszero\n      iszero\n      mul\n      or\n      swap1\n      sstore\n      pop\n      pop\n      pop\n        /* \"struct.sol\":187:283  function create(string calldata _text)public  {... */\n      pop\n      pop\n      jump\t// out\n        /* \"struct.sol\":161:180  Todo[] public todos */\n    tag_18:\n      0x00\n      dup2\n      dup2\n      sload\n      dup2\n      lt\n      tag_35\n      jumpi\n      0x00\n      dup1\n      revert\n    tag_35:\n      swap1\n      0x00\n      mstore\n      keccak256(0x00, 0x20)\n      swap1\n      0x02\n      mul\n      add\n      0x00\n      swap2\n      pop\n      swap1\n      pop\n      dup1\n      0x00\n      add\n      dup1\n      sload\n      tag_37\n      swap1\n      tag_26\n      jump\t// in\n    tag_37:\n      dup1\n      0x1f\n      add\n      0x20\n      dup1\n      swap2\n      div\n      mul\n      0x20\n      add\n      mload(0x40)\n      swap1\n      dup2\n      add\n      0x40\n      mstore\n      dup1\n      swap3\n      swap2\n      swap1\n      dup2\n      dup2\n      mstore\n      0x20\n      add\n      dup3\n      dup1\n      sload\n      tag_38\n      swap1\n      tag_26\n      jump\t// in\n    tag_38:\n      dup1\n      iszero\n      tag_39\n      jumpi\n      dup1\n      0x1f\n      lt\n      tag_40\n      jumpi\n      0x0100\n      dup1\n      dup4\n      sload\n      div\n      mul\n      dup4\n      mstore\n      swap2\n      0x20\n      add\n      swap2\n      jump(tag_39)\n    tag_40:\n      dup3\n      add\n      swap2\n      swap1\n      0x00\n      mstore\n      keccak256(0x00, 0x20)\n      swap1\n    tag_41:\n      dup2\n      sload\n      dup2\n      mstore\n      swap1\n      0x01\n      add\n      swap1\n      0x20\n      add\n      dup1\n      dup4\n      gt\n      tag_41\n      jumpi\n      dup3\n      swap1\n      sub\n      0x1f\n      and\n      dup3\n      add\n      swap2\n    tag_39:\n      pop\n      pop\n      pop\n      pop\n      pop\n      swap1\n      dup1\n      0x01\n      add\n      0x00\n      swap1\n      sload\n      swap1\n      0x0100\n      exp\n      swap1\n      div\n      0xff\n      and\n      swap1\n      pop\n      dup3\n      jump\t// out\n        /* \"#utility.yul\":88:205   */\n    tag_43:\n        /* \"#utility.yul\":197:198   */\n      0x00\n        /* \"#utility.yul\":194:195   */\n      0x00\n        /* \"#utility.yul\":187:199   */\n      revert\n        /* \"#utility.yul\":211:328   */\n    tag_44:\n        /* \"#utility.yul\":320:321   */\n      0x00\n        /* \"#utility.yul\":317:318   */\n      0x00\n        /* \"#utility.yul\":310:322   */\n      revert\n        /* \"#utility.yul\":334:411   */\n    tag_45:\n        /* \"#utility.yul\":371:378   */\n      0x00\n        /* \"#utility.yul\":400:405   */\n      dup2\n        /* \"#utility.yul\":389:405   */\n      swap1\n      pop\n        /* \"#utility.yul\":334:411   */\n      swap2\n      swap1\n      pop\n      jump\t// out\n        /* \"#utility.yul\":417:539   */\n    tag_46:\n        /* \"#utility.yul\":490:514   */\n      tag_82\n        /* \"#utility.yul\":508:513   */\n      dup2\n        /* \"#utility.yul\":490:514   */\n      tag_45\n      jump\t// in\n    tag_82:\n        /* \"#utility.yul\":483:488   */\n      dup2\n        /* \"#utility.yul\":480:515   */\n      eq\n        /* \"#utility.yul\":470:533   */\n      tag_83\n      jumpi\n        /* \"#utility.yul\":529:530   */\n      0x00\n        /* \"#utility.yul\":526:527   */\n      0x00\n        /* \"#utility.yul\":519:531   */\n      revert\n        /* \"#utility.yul\":470:533   */\n    tag_83:\n        /* \"#utility.yul\":417:539   */\n      pop\n      jump\t// out\n        /* \"#utility.yul\":545:684   */\n    tag_47:\n        /* \"#utility.yul\":591:596   */\n      0x00\n        /* \"#utility.yul\":629:635   */\n      dup2\n        /* \"#utility.yul\":616:636   */\n      calldataload\n        /* \"#utility.yul\":607:636   */\n      swap1\n      pop\n        /* \"#utility.yul\":645:678   */\n      tag_85\n        /* \"#utility.yul\":672:677   */\n      dup2\n        /* \"#utility.yul\":645:678   */\n      tag_46\n      jump\t// in\n    tag_85:\n        /* \"#utility.yul\":545:684   */\n      swap3\n      swap2\n      pop\n      pop\n      jump\t// out\n        /* \"#utility.yul\":690:1019   */\n    tag_8:\n        /* \"#utility.yul\":749:755   */\n      0x00\n        /* \"#utility.yul\":798:800   */\n      0x20\n        /* \"#utility.yul\":786:795   */\n      dup3\n        /* \"#utility.yul\":777:784   */\n      dup5\n        /* \"#utility.yul\":773:796   */\n      sub\n        /* \"#utility.yul\":769:801   */\n      slt\n        /* \"#utility.yul\":766:885   */\n      iszero\n      tag_87\n      jumpi\n        /* \"#utility.yul\":804:883   */\n      tag_88\n      tag_43\n      jump\t// in\n    tag_88:\n        /* \"#utility.yul\":766:885   */\n    tag_87:\n        /* \"#utility.yul\":924:925   */\n      0x00\n        /* \"#utility.yul\":949:1002   */\n      tag_89\n        /* \"#utility.yul\":994:1001   */\n      dup5\n        /* \"#utility.yul\":985:991   */\n      dup3\n        /* \"#utility.yul\":974:983   */\n      dup6\n        /* \"#utility.yul\":970:992   */\n      add\n        /* \"#utility.yul\":949:1002   */\n      tag_47\n      jump\t// in\n    tag_89:\n        /* \"#utility.yul\":939:1002   */\n      swap2\n      pop\n        /* \"#utility.yul\":895:1012   */\n      pop\n        /* \"#utility.yul\":690:1019   */\n      swap3\n      swap2\n      pop\n      pop\n      jump\t// out\n        /* \"#utility.yul\":1025:1124   */\n    tag_48:\n        /* \"#utility.yul\":1077:1083   */\n      0x00\n        /* \"#utility.yul\":1111:1116   */\n      dup2\n        /* \"#utility.yul\":1105:1117   */\n      mload\n        /* \"#utility.yul\":1095:1117   */\n      swap1\n      pop\n        /* \"#utility.yul\":1025:1124   */\n      swap2\n      swap1\n      pop\n      jump\t// out\n        /* \"#utility.yul\":1130:1299   */\n    tag_49:\n        /* \"#utility.yul\":1214:1225   */\n      0x00\n        /* \"#utility.yul\":1248:1254   */\n      dup3\n        /* \"#utility.yul\":1243:1246   */\n      dup3\n        /* \"#utility.yul\":1236:1255   */\n      mstore\n        /* \"#utility.yul\":1288:1292   */\n      0x20\n        /* \"#utility.yul\":1283:1286   */\n      dup3\n        /* \"#utility.yul\":1279:1293   */\n      add\n        /* \"#utility.yul\":1264:1293   */\n      swap1\n      pop\n        /* \"#utility.yul\":1130:1299   */\n      swap3\n      swap2\n      pop\n      pop\n      jump\t// out\n        /* \"#utility.yul\":1305:1444   */\n    tag_50:\n        /* \"#utility.yul\":1394:1400   */\n      dup3\n        /* \"#utility.yul\":1389:1392   */\n      dup2\n        /* \"#utility.yul\":1384:1387   */\n      dup4\n        /* \"#utility.yul\":1378:1401   */\n      mcopy\n        /* \"#utility.yul\":1435:1436   */\n      0x00\n        /* \"#utility.yul\":1426:1432   */\n      dup4\n        /* \"#utility.yul\":1421:1424   */\n      dup4\n        /* \"#utility.yul\":1417:1433   */\n      add\n        /* \"#utility.yul\":1410:1437   */\n      mstore\n        /* \"#utility.yul\":1305:1444   */\n      pop\n      pop\n      pop\n      jump\t// out\n        /* \"#utility.yul\":1450:1552   */\n    tag_51:\n        /* \"#utility.yul\":1491:1497   */\n      0x00\n        /* \"#utility.yul\":1542:1544   */\n      0x1f\n        /* \"#utility.yul\":1538:1545   */\n      not\n        /* \"#utility.yul\":1533:1535   */\n      0x1f\n        /* \"#utility.yul\":1526:1531   */\n      dup4\n        /* \"#utility.yul\":1522:1536   */\n      add\n        /* \"#utility.yul\":1518:1546   */\n      and\n        /* \"#utility.yul\":1508:1546   */\n      swap1\n      pop\n        /* \"#utility.yul\":1450:1552   */\n      swap2\n      swap1\n      pop\n      jump\t// out\n        /* \"#utility.yul\":1558:1935   */\n    tag_52:\n        /* \"#utility.yul\":1646:1649   */\n      0x00\n        /* \"#utility.yul\":1674:1713   */\n      tag_95\n        /* \"#utility.yul\":1707:1712   */\n      dup3\n        /* \"#utility.yul\":1674:1713   */\n      tag_48\n      jump\t// in\n    tag_95:\n        /* \"#utility.yul\":1729:1800   */\n      tag_96\n        /* \"#utility.yul\":1793:1799   */\n      dup2\n        /* \"#utility.yul\":1788:1791   */\n      dup6\n        /* \"#utility.yul\":1729:1800   */\n      tag_49\n      jump\t// in\n    tag_96:\n        /* \"#utility.yul\":1722:1800   */\n      swap4\n      pop\n        /* \"#utility.yul\":1809:1874   */\n      tag_97\n        /* \"#utility.yul\":1867:1873   */\n      dup2\n        /* \"#utility.yul\":1862:1865   */\n      dup6\n        /* \"#utility.yul\":1855:1859   */\n      0x20\n        /* \"#utility.yul\":1848:1853   */\n      dup7\n        /* \"#utility.yul\":1844:1860   */\n      add\n        /* \"#utility.yul\":1809:1874   */\n      tag_50\n      jump\t// in\n    tag_97:\n        /* \"#utility.yul\":1899:1928   */\n      tag_98\n        /* \"#utility.yul\":1921:1927   */\n      dup2\n        /* \"#utility.yul\":1899:1928   */\n      tag_51\n      jump\t// in\n    tag_98:\n        /* \"#utility.yul\":1894:1897   */\n      dup5\n        /* \"#utility.yul\":1890:1929   */\n      add\n        /* \"#utility.yul\":1883:1929   */\n      swap2\n      pop\n        /* \"#utility.yul\":1650:1935   */\n      pop\n        /* \"#utility.yul\":1558:1935   */\n      swap3\n      swap2\n      pop\n      pop\n      jump\t// out\n        /* \"#utility.yul\":1941:2031   */\n    tag_53:\n        /* \"#utility.yul\":1975:1982   */\n      0x00\n        /* \"#utility.yul\":2018:2023   */\n      dup2\n        /* \"#utility.yul\":2011:2024   */\n      iszero\n        /* \"#utility.yul\":2004:2025   */\n      iszero\n        /* \"#utility.yul\":1993:2025   */\n      swap1\n      pop\n        /* \"#utility.yul\":1941:2031   */\n      swap2\n      swap1\n      pop\n      jump\t// out\n        /* \"#utility.yul\":2037:2146   */\n    tag_54:\n        /* \"#utility.yul\":2118:2139   */\n      tag_101\n        /* \"#utility.yul\":2133:2138   */\n      dup2\n        /* \"#utility.yul\":2118:2139   */\n      tag_53\n      jump\t// in\n    tag_101:\n        /* \"#utility.yul\":2113:2116   */\n      dup3\n        /* \"#utility.yul\":2106:2140   */\n      mstore\n        /* \"#utility.yul\":2037:2146   */\n      pop\n      pop\n      jump\t// out\n        /* \"#utility.yul\":2152:2563   */\n    tag_11:\n        /* \"#utility.yul\":2287:2291   */\n      0x00\n        /* \"#utility.yul\":2325:2327   */\n      0x40\n        /* \"#utility.yul\":2314:2323   */\n      dup3\n        /* \"#utility.yul\":2310:2328   */\n      add\n        /* \"#utility.yul\":2302:2328   */\n      swap1\n      pop\n        /* \"#utility.yul\":2374:2383   */\n      dup2\n        /* \"#utility.yul\":2368:2372   */\n      dup2\n        /* \"#utility.yul\":2364:2384   */\n      sub\n        /* \"#utility.yul\":2360:2361   */\n      0x00\n        /* \"#utility.yul\":2349:2358   */\n      dup4\n        /* \"#utility.yul\":2345:2362   */\n      add\n        /* \"#utility.yul\":2338:2385   */\n      mstore\n        /* \"#utility.yul\":2402:2480   */\n      tag_103\n        /* \"#utility.yul\":2475:2479   */\n      dup2\n        /* \"#utility.yul\":2466:2472   */\n      dup6\n        /* \"#utility.yul\":2402:2480   */\n      tag_52\n      jump\t// in\n    tag_103:\n        /* \"#utility.yul\":2394:2480   */\n      swap1\n      pop\n        /* \"#utility.yul\":2490:2556   */\n      tag_104\n        /* \"#utility.yul\":2552:2554   */\n      0x20\n        /* \"#utility.yul\":2541:2550   */\n      dup4\n        /* \"#utility.yul\":2537:2555   */\n      add\n        /* \"#utility.yul\":2528:2534   */\n      dup5\n        /* \"#utility.yul\":2490:2556   */\n      tag_54\n      jump\t// in\n    tag_104:\n        /* \"#utility.yul\":2152:2563   */\n      swap4\n      swap3\n      pop\n      pop\n      pop\n      jump\t// out\n        /* \"#utility.yul\":2569:2686   */\n    tag_55:\n        /* \"#utility.yul\":2678:2679   */\n      0x00\n        /* \"#utility.yul\":2675:2676   */\n      0x00\n        /* \"#utility.yul\":2668:2680   */\n      revert\n        /* \"#utility.yul\":2692:2809   */\n    tag_56:\n        /* \"#utility.yul\":2801:2802   */\n      0x00\n        /* \"#utility.yul\":2798:2799   */\n      0x00\n        /* \"#utility.yul\":2791:2803   */\n      revert\n        /* \"#utility.yul\":2815:2932   */\n    tag_57:\n        /* \"#utility.yul\":2924:2925   */\n      0x00\n        /* \"#utility.yul\":2921:2922   */\n      0x00\n        /* \"#utility.yul\":2914:2926   */\n      revert\n        /* \"#utility.yul\":2952:3505   */\n    tag_58:\n        /* \"#utility.yul\":3010:3018   */\n      0x00\n        /* \"#utility.yul\":3020:3026   */\n      0x00\n        /* \"#utility.yul\":3070:3073   */\n      dup4\n        /* \"#utility.yul\":3063:3067   */\n      0x1f\n        /* \"#utility.yul\":3055:3061   */\n      dup5\n        /* \"#utility.yul\":3051:3068   */\n      add\n        /* \"#utility.yul\":3047:3074   */\n      slt\n        /* \"#utility.yul\":3037:3159   */\n      tag_109\n      jumpi\n        /* \"#utility.yul\":3078:3157   */\n      tag_110\n      tag_55\n      jump\t// in\n    tag_110:\n        /* \"#utility.yul\":3037:3159   */\n    tag_109:\n        /* \"#utility.yul\":3191:3197   */\n      dup3\n        /* \"#utility.yul\":3178:3198   */\n      calldataload\n        /* \"#utility.yul\":3168:3198   */\n      swap1\n      pop\n        /* \"#utility.yul\":3221:3239   */\n      0xffffffffffffffff\n        /* \"#utility.yul\":3213:3219   */\n      dup2\n        /* \"#utility.yul\":3210:3240   */\n      gt\n        /* \"#utility.yul\":3207:3324   */\n      iszero\n      tag_111\n      jumpi\n        /* \"#utility.yul\":3243:3322   */\n      tag_112\n      tag_56\n      jump\t// in\n    tag_112:\n        /* \"#utility.yul\":3207:3324   */\n    tag_111:\n        /* \"#utility.yul\":3357:3361   */\n      0x20\n        /* \"#utility.yul\":3349:3355   */\n      dup4\n        /* \"#utility.yul\":3345:3362   */\n      add\n        /* \"#utility.yul\":3333:3362   */\n      swap2\n      pop\n        /* \"#utility.yul\":3411:3414   */\n      dup4\n        /* \"#utility.yul\":3403:3407   */\n      0x01\n        /* \"#utility.yul\":3395:3401   */\n      dup3\n        /* \"#utility.yul\":3391:3408   */\n      mul\n        /* \"#utility.yul\":3381:3389   */\n      dup4\n        /* \"#utility.yul\":3377:3409   */\n      add\n        /* \"#utility.yul\":3374:3415   */\n      gt\n        /* \"#utility.yul\":3371:3499   */\n      iszero\n      tag_113\n      jumpi\n        /* \"#utility.yul\":3418:3497   */\n      tag_114\n      tag_57\n      jump\t// in\n    tag_114:\n        /* \"#utility.yul\":3371:3499   */\n    tag_113:\n        /* \"#utility.yul\":2952:3505   */\n      swap3\n      pop\n      swap3\n      swap1\n      pop\n      jump\t// out\n        /* \"#utility.yul\":3511:4040   */\n    tag_14:\n        /* \"#utility.yul\":3582:3588   */\n      0x00\n        /* \"#utility.yul\":3590:3596   */\n      0x00\n        /* \"#utility.yul\":3639:3641   */\n      0x20\n        /* \"#utility.yul\":3627:3636   */\n      dup4\n        /* \"#utility.yul\":3618:3625   */\n      dup6\n        /* \"#utility.yul\":3614:3637   */\n      sub\n        /* \"#utility.yul\":3610:3642   */\n      slt\n        /* \"#utility.yul\":3607:3726   */\n      iszero\n      tag_116\n      jumpi\n        /* \"#utility.yul\":3645:3724   */\n      tag_117\n      tag_43\n      jump\t// in\n    tag_117:\n        /* \"#utility.yul\":3607:3726   */\n    tag_116:\n        /* \"#utility.yul\":3793:3794   */\n      0x00\n        /* \"#utility.yul\":3782:3791   */\n      dup4\n        /* \"#utility.yul\":3778:3795   */\n      add\n        /* \"#utility.yul\":3765:3796   */\n      calldataload\n        /* \"#utility.yul\":3823:3841   */\n      0xffffffffffffffff\n        /* \"#utility.yul\":3815:3821   */\n      dup2\n        /* \"#utility.yul\":3812:3842   */\n      gt\n        /* \"#utility.yul\":3809:3926   */\n      iszero\n      tag_118\n      jumpi\n        /* \"#utility.yul\":3845:3924   */\n      tag_119\n      tag_44\n      jump\t// in\n    tag_119:\n        /* \"#utility.yul\":3809:3926   */\n    tag_118:\n        /* \"#utility.yul\":3958:4023   */\n      tag_120\n        /* \"#utility.yul\":4015:4022   */\n      dup6\n        /* \"#utility.yul\":4006:4012   */\n      dup3\n        /* \"#utility.yul\":3995:4004   */\n      dup7\n        /* \"#utility.yul\":3991:4013   */\n      add\n        /* \"#utility.yul\":3958:4023   */\n      tag_58\n      jump\t// in\n    tag_120:\n        /* \"#utility.yul\":3940:4023   */\n      swap3\n      pop\n      swap3\n      pop\n        /* \"#utility.yul\":3736:4033   */\n      pop\n        /* \"#utility.yul\":3511:4040   */\n      swap3\n      pop\n      swap3\n      swap1\n      pop\n      jump\t// out\n        /* \"#utility.yul\":4046:4226   */\n    tag_23:\n        /* \"#utility.yul\":4094:4171   */\n      0x4e487b7100000000000000000000000000000000000000000000000000000000\n        /* \"#utility.yul\":4091:4092   */\n      0x00\n        /* \"#utility.yul\":4084:4172   */\n      mstore\n        /* \"#utility.yul\":4191:4195   */\n      0x32\n        /* \"#utility.yul\":4188:4189   */\n      0x04\n        /* \"#utility.yul\":4181:4196   */\n      mstore\n        /* \"#utility.yul\":4215:4219   */\n      0x24\n        /* \"#utility.yul\":4212:4213   */\n      0x00\n        /* \"#utility.yul\":4205:4220   */\n      revert\n        /* \"#utility.yul\":4232:4412   */\n    tag_59:\n        /* \"#utility.yul\":4280:4357   */\n      0x4e487b7100000000000000000000000000000000000000000000000000000000\n        /* \"#utility.yul\":4277:4278   */\n      0x00\n        /* \"#utility.yul\":4270:4358   */\n      mstore\n        /* \"#utility.yul\":4377:4381   */\n      0x22\n        /* \"#utility.yul\":4374:4375   */\n      0x04\n        /* \"#utility.yul\":4367:4382   */\n      mstore\n        /* \"#utility.yul\":4401:4405   */\n      0x24\n        /* \"#utility.yul\":4398:4399   */\n      0x00\n        /* \"#utility.yul\":4391:4406   */\n      revert\n        /* \"#utility.yul\":4418:4738   */\n    tag_26:\n        /* \"#utility.yul\":4462:4468   */\n      0x00\n        /* \"#utility.yul\":4499:4500   */\n      0x02\n        /* \"#utility.yul\":4493:4497   */\n      dup3\n        /* \"#utility.yul\":4489:4501   */\n      div\n        /* \"#utility.yul\":4479:4501   */\n      swap1\n      pop\n        /* \"#utility.yul\":4546:4547   */\n      0x01\n        /* \"#utility.yul\":4540:4544   */\n      dup3\n        /* \"#utility.yul\":4536:4548   */\n      and\n        /* \"#utility.yul\":4567:4585   */\n      dup1\n        /* \"#utility.yul\":4557:4638   */\n      tag_124\n      jumpi\n        /* \"#utility.yul\":4623:4627   */\n      0x7f\n        /* \"#utility.yul\":4615:4621   */\n      dup3\n        /* \"#utility.yul\":4611:4628   */\n      and\n        /* \"#utility.yul\":4601:4628   */\n      swap2\n      pop\n        /* \"#utility.yul\":4557:4638   */\n    tag_124:\n        /* \"#utility.yul\":4685:4687   */\n      0x20\n        /* \"#utility.yul\":4677:4683   */\n      dup3\n        /* \"#utility.yul\":4674:4688   */\n      lt\n        /* \"#utility.yul\":4654:4672   */\n      dup2\n        /* \"#utility.yul\":4651:4689   */\n      sub\n        /* \"#utility.yul\":4648:4732   */\n      tag_125\n      jumpi\n        /* \"#utility.yul\":4704:4722   */\n      tag_126\n      tag_59\n      jump\t// in\n    tag_126:\n        /* \"#utility.yul\":4648:4732   */\n    tag_125:\n        /* \"#utility.yul\":4469:4738   */\n      pop\n        /* \"#utility.yul\":4418:4738   */\n      swap2\n      swap1\n      pop\n      jump\t// out\n        /* \"#utility.yul\":4744:4924   */\n    tag_60:\n        /* \"#utility.yul\":4792:4869   */\n      0x4e487b7100000000000000000000000000000000000000000000000000000000\n        /* \"#utility.yul\":4789:4790   */\n      0x00\n        /* \"#utility.yul\":4782:4870   */\n      mstore\n        /* \"#utility.yul\":4889:4893   */\n      0x41\n        /* \"#utility.yul\":4886:4887   */\n      0x04\n        /* \"#utility.yul\":4879:4894   */\n      mstore\n        /* \"#utility.yul\":4913:4917   */\n      0x24\n        /* \"#utility.yul\":4910:4911   */\n      0x00\n        /* \"#utility.yul\":4903:4918   */\n      revert\n        /* \"#utility.yul\":4930:5071   */\n    tag_61:\n        /* \"#utility.yul\":4979:4983   */\n      0x00\n        /* \"#utility.yul\":5002:5005   */\n      dup2\n        /* \"#utility.yul\":4994:5005   */\n      swap1\n      pop\n        /* \"#utility.yul\":5025:5028   */\n      dup2\n        /* \"#utility.yul\":5022:5023   */\n      0x00\n        /* \"#utility.yul\":5015:5029   */\n      mstore\n        /* \"#utility.yul\":5059:5063   */\n      0x20\n        /* \"#utility.yul\":5056:5057   */\n      0x00\n        /* \"#utility.yul\":5046:5064   */\n      keccak256\n        /* \"#utility.yul\":5038:5064   */\n      swap1\n      pop\n        /* \"#utility.yul\":4930:5071   */\n      swap2\n      swap1\n      pop\n      jump\t// out\n        /* \"#utility.yul\":5077:5170   */\n    tag_62:\n        /* \"#utility.yul\":5114:5120   */\n      0x00\n        /* \"#utility.yul\":5161:5163   */\n      0x20\n        /* \"#utility.yul\":5156:5158   */\n      0x1f\n        /* \"#utility.yul\":5149:5154   */\n      dup4\n        /* \"#utility.yul\":5145:5159   */\n      add\n        /* \"#utility.yul\":5141:5164   */\n      div\n        /* \"#utility.yul\":5131:5164   */\n      swap1\n      pop\n        /* \"#utility.yul\":5077:5170   */\n      swap2\n      swap1\n      pop\n      jump\t// out\n        /* \"#utility.yul\":5176:5283   */\n    tag_63:\n        /* \"#utility.yul\":5220:5228   */\n      0x00\n        /* \"#utility.yul\":5270:5275   */\n      dup3\n        /* \"#utility.yul\":5264:5268   */\n      dup3\n        /* \"#utility.yul\":5260:5276   */\n      shl\n        /* \"#utility.yul\":5239:5276   */\n      swap1\n      pop\n        /* \"#utility.yul\":5176:5283   */\n      swap3\n      swap2\n      pop\n      pop\n      jump\t// out\n        /* \"#utility.yul\":5289:5682   */\n    tag_64:\n        /* \"#utility.yul\":5358:5364   */\n      0x00\n        /* \"#utility.yul\":5408:5409   */\n      0x08\n        /* \"#utility.yul\":5396:5406   */\n      dup4\n        /* \"#utility.yul\":5392:5410   */\n      mul\n        /* \"#utility.yul\":5431:5528   */\n      tag_132\n        /* \"#utility.yul\":5461:5527   */\n      0xffffffffffffffffffffffffffffffffffffffffffffffffffffffffffffffff\n        /* \"#utility.yul\":5450:5459   */\n      dup3\n        /* \"#utility.yul\":5431:5528   */\n      tag_63\n      jump\t// in\n    tag_132:\n        /* \"#utility.yul\":5549:5588   */\n      tag_133\n        /* \"#utility.yul\":5579:5587   */\n      dup7\n        /* \"#utility.yul\":5568:5577   */\n      dup4\n        /* \"#utility.yul\":5549:5588   */\n      tag_63\n      jump\t// in\n    tag_133:\n        /* \"#utility.yul\":5537:5588   */\n      swap6\n      pop\n        /* \"#utility.yul\":5621:5625   */\n      dup1\n        /* \"#utility.yul\":5617:5626   */\n      not\n        /* \"#utility.yul\":5610:5615   */\n      dup5\n        /* \"#utility.yul\":5606:5627   */\n      and\n        /* \"#utility.yul\":5597:5627   */\n      swap4\n      pop\n        /* \"#utility.yul\":5670:5674   */\n      dup1\n        /* \"#utility.yul\":5660:5668   */\n      dup7\n        /* \"#utility.yul\":5656:5675   */\n      and\n        /* \"#utility.yul\":5649:5654   */\n      dup5\n        /* \"#utility.yul\":5646:5676   */\n      or\n        /* \"#utility.yul\":5636:5676   */\n      swap3\n      pop\n        /* \"#utility.yul\":5365:5682   */\n      pop\n      pop\n        /* \"#utility.yul\":5289:5682   */\n      swap4\n      swap3\n      pop\n      pop\n      pop\n      jump\t// out\n        /* \"#utility.yul\":5688:5748   */\n    tag_65:\n        /* \"#utility.yul\":5716:5719   */\n      0x00\n        /* \"#utility.yul\":5737:5742   */\n      dup2\n        /* \"#utility.yul\":5730:5742   */\n      swap1\n      pop\n        /* \"#utility.yul\":5688:5748   */\n      swap2\n      swap1\n      pop\n      jump\t// out\n        /* \"#utility.yul\":5754:5896   */\n    tag_66:\n        /* \"#utility.yul\":5804:5813   */\n      0x00\n        /* \"#utility.yul\":5837:5890   */\n      tag_136\n        /* \"#utility.yul\":5855:5889   */\n      tag_137\n        /* \"#utility.yul\":5864:5888   */\n      tag_138\n        /* \"#utility.yul\":5882:5887   */\n      dup5\n        /* \"#utility.yul\":5864:5888   */\n      tag_45\n      jump\t// in\n    tag_138:\n        /* \"#utility.yul\":5855:5889   */\n      tag_65\n      jump\t// in\n    tag_137:\n        /* \"#utility.yul\":5837:5890   */\n      tag_45\n      jump\t// in\n    tag_136:\n        /* \"#utility.yul\":5824:5890   */\n      swap1\n      pop\n        /* \"#utility.yul\":5754:5896   */\n      swap2\n      swap1\n      pop\n      jump\t// out\n        /* \"#utility.yul\":5902:5977   */\n    tag_67:\n        /* \"#utility.yul\":5945:5948   */\n      0x00\n        /* \"#utility.yul\":5966:5971   */\n      dup2\n        /* \"#utility.yul\":5959:5971   */\n      swap1\n      pop\n        /* \"#utility.yul\":5902:5977   */\n      swap2\n      swap1\n      pop\n      jump\t// out\n        /* \"#utility.yul\":5983:6252   */\n    tag_68:\n        /* \"#utility.yul\":6093:6132   */\n      tag_141\n        /* \"#utility.yul\":6124:6131   */\n      dup4\n        /* \"#utility.yul\":6093:6132   */\n      tag_66\n      jump\t// in\n    tag_141:\n        /* \"#utility.yul\":6154:6245   */\n      tag_142\n        /* \"#utility.yul\":6203:6244   */\n      tag_143\n        /* \"#utility.yul\":6227:6243   */\n      dup3\n        /* \"#utility.yul\":6203:6244   */\n      tag_67\n      jump\t// in\n    tag_143:\n        /* \"#utility.yul\":6195:6201   */\n      dup5\n        /* \"#utility.yul\":6188:6192   */\n      dup5\n        /* \"#utility.yul\":6182:6193   */\n      sload\n        /* \"#utility.yul\":6154:6245   */\n      tag_64\n      jump\t// in\n    tag_142:\n        /* \"#utility.yul\":6148:6152   */\n      dup3\n        /* \"#utility.yul\":6141:6246   */\n      sstore\n        /* \"#utility.yul\":6059:6252   */\n      pop\n        /* \"#utility.yul\":5983:6252   */\n      pop\n      pop\n      pop\n      jump\t// out\n        /* \"#utility.yul\":6258:6331   */\n    tag_69:\n        /* \"#utility.yul\":6303:6306   */\n      0x00\n        /* \"#utility.yul\":6324:6325   */\n      0x00\n        /* \"#utility.yul\":6317:6325   */\n      swap1\n      pop\n        /* \"#utility.yul\":6258:6331   */\n      swap1\n      jump\t// out\n        /* \"#utility.yul\":6337:6526   */\n    tag_70:\n        /* \"#utility.yul\":6414:6446   */\n      tag_146\n      tag_69\n      jump\t// in\n    tag_146:\n        /* \"#utility.yul\":6455:6520   */\n      tag_147\n        /* \"#utility.yul\":6513:6519   */\n      dup2\n        /* \"#utility.yul\":6505:6511   */\n      dup5\n        /* \"#utility.yul\":6499:6503   */\n      dup5\n        /* \"#utility.yul\":6455:6520   */\n      tag_68\n      jump\t// in\n    tag_147:\n        /* \"#utility.yul\":6390:6526   */\n      pop\n        /* \"#utility.yul\":6337:6526   */\n      pop\n      pop\n      jump\t// out\n        /* \"#utility.yul\":6532:6718   */\n    tag_71:\n        /* \"#utility.yul\":6592:6712   */\n    tag_149:\n        /* \"#utility.yul\":6609:6612   */\n      dup2\n        /* \"#utility.yul\":6602:6607   */\n      dup2\n        /* \"#utility.yul\":6599:6613   */\n      lt\n        /* \"#utility.yul\":6592:6712   */\n      iszero\n      tag_151\n      jumpi\n        /* \"#utility.yul\":6663:6702   */\n      tag_152\n        /* \"#utility.yul\":6700:6701   */\n      0x00\n        /* \"#utility.yul\":6693:6698   */\n      dup3\n        /* \"#utility.yul\":6663:6702   */\n      tag_70\n      jump\t// in\n    tag_152:\n        /* \"#utility.yul\":6636:6637   */\n      0x01\n        /* \"#utility.yul\":6629:6634   */\n      dup2\n        /* \"#utility.yul\":6625:6638   */\n      add\n        /* \"#utility.yul\":6616:6638   */\n      swap1\n      pop\n        /* \"#utility.yul\":6592:6712   */\n      jump(tag_149)\n    tag_151:\n        /* \"#utility.yul\":6532:6718   */\n      pop\n      pop\n      jump\t// out\n        /* \"#utility.yul\":6724:7267   */\n    tag_72:\n        /* \"#utility.yul\":6825:6827   */\n      0x1f\n        /* \"#utility.yul\":6820:6823   */\n      dup3\n        /* \"#utility.yul\":6817:6828   */\n      gt\n        /* \"#utility.yul\":6814:7260   */\n      iszero\n      tag_154\n      jumpi\n        /* \"#utility.yul\":6859:6897   */\n      tag_155\n        /* \"#utility.yul\":6891:6896   */\n      dup2\n        /* \"#utility.yul\":6859:6897   */\n      tag_61\n      jump\t// in\n    tag_155:\n        /* \"#utility.yul\":6943:6972   */\n      tag_156\n        /* \"#utility.yul\":6961:6971   */\n      dup5\n        /* \"#utility.yul\":6943:6972   */\n      tag_62\n      jump\t// in\n    tag_156:\n        /* \"#utility.yul\":6933:6941   */\n      dup2\n        /* \"#utility.yul\":6929:6973   */\n      add\n        /* \"#utility.yul\":7126:7128   */\n      0x20\n        /* \"#utility.yul\":7114:7124   */\n      dup6\n        /* \"#utility.yul\":7111:7129   */\n      lt\n        /* \"#utility.yul\":7108:7157   */\n      iszero\n      tag_157\n      jumpi\n        /* \"#utility.yul\":7147:7155   */\n      dup2\n        /* \"#utility.yul\":7132:7155   */\n      swap1\n      pop\n        /* \"#utility.yul\":7108:7157   */\n    tag_157:\n        /* \"#utility.yul\":7170:7250   */\n      tag_158\n        /* \"#utility.yul\":7226:7248   */\n      tag_159\n        /* \"#utility.yul\":7244:7247   */\n      dup6\n        /* \"#utility.yul\":7226:7248   */\n      tag_62\n      jump\t// in\n    tag_159:\n        /* \"#utility.yul\":7216:7224   */\n      dup4\n        /* \"#utility.yul\":7212:7249   */\n      add\n        /* \"#utility.yul\":7199:7210   */\n      dup3\n        /* \"#utility.yul\":7170:7250   */\n      tag_71\n      jump\t// in\n    tag_158:\n        /* \"#utility.yul\":6829:7260   */\n      pop\n      pop\n        /* \"#utility.yul\":6814:7260   */\n    tag_154:\n        /* \"#utility.yul\":6724:7267   */\n      pop\n      pop\n      pop\n      jump\t// out\n        /* \"#utility.yul\":7273:7390   */\n    tag_73:\n        /* \"#utility.yul\":7327:7335   */\n      0x00\n        /* \"#utility.yul\":7377:7382   */\n      dup3\n        /* \"#utility.yul\":7371:7375   */\n      dup3\n        /* \"#utility.yul\":7367:7383   */\n      shr\n        /* \"#utility.yul\":7346:7383   */\n      swap1\n      pop\n        /* \"#utility.yul\":7273:7390   */\n      swap3\n      swap2\n      pop\n      pop\n      jump\t// out\n        /* \"#utility.yul\":7396:7565   */\n    tag_74:\n        /* \"#utility.yul\":7440:7446   */\n      0x00\n        /* \"#utility.yul\":7473:7524   */\n      tag_162\n        /* \"#utility.yul\":7521:7522   */\n      0x00\n        /* \"#utility.yul\":7517:7523   */\n      not\n        /* \"#utility.yul\":7509:7514   */\n      dup5\n        /* \"#utility.yul\":7506:7507   */\n      0x08\n        /* \"#utility.yul\":7502:7515   */\n      mul\n        /* \"#utility.yul\":7473:7524   */\n      tag_73\n      jump\t// in\n    tag_162:\n        /* \"#utility.yul\":7469:7525   */\n      not\n        /* \"#utility.yul\":7554:7558   */\n      dup1\n        /* \"#utility.yul\":7548:7552   */\n      dup4\n        /* \"#utility.yul\":7544:7559   */\n      and\n        /* \"#utility.yul\":7534:7559   */\n      swap2\n      pop\n        /* \"#utility.yul\":7447:7565   */\n      pop\n        /* \"#utility.yul\":7396:7565   */\n      swap3\n      swap2\n      pop\n      pop\n      jump\t// out\n        /* \"#utility.yul\":7570:7865   */\n    tag_75:\n        /* \"#utility.yul\":7646:7650   */\n      0x00\n        /* \"#utility.yul\":7792:7821   */\n      tag_164\n        /* \"#utility.yul\":7817:7820   */\n      dup4\n        /* \"#utility.yul\":7811:7815   */\n      dup4\n        /* \"#utility.yul\":7792:7821   */\n      tag_74\n      jump\t// in\n    tag_164:\n        /* \"#utility.yul\":7784:7821   */\n      swap2\n      pop\n        /* \"#utility.yul\":7854:7857   */\n      dup3\n        /* \"#utility.yul\":7851:7852   */\n      0x02\n        /* \"#utility.yul\":7847:7858   */\n      mul\n        /* \"#utility.yul\":7841:7845   */\n      dup3\n        /* \"#utility.yul\":7838:7859   */\n      or\n        /* \"#utility.yul\":7830:7859   */\n      swap1\n      pop\n        /* \"#utility.yul\":7570:7865   */\n      swap3\n      swap2\n      pop\n      pop\n      jump\t// out\n        /* \"#utility.yul\":7870:9265   */\n    tag_34:\n        /* \"#utility.yul\":7987:8024   */\n      tag_166\n        /* \"#utility.yul\":8020:8023   */\n      dup3\n        /* \"#utility.yul\":7987:8024   */\n      tag_48\n      jump\t// in\n    tag_166:\n        /* \"#utility.yul\":8089:8107   */\n      0xffffffffffffffff\n        /* \"#utility.yul\":8081:8087   */\n      dup2\n        /* \"#utility.yul\":8078:8108   */\n      gt\n        /* \"#utility.yul\":8075:8131   */\n      iszero\n      tag_167\n      jumpi\n        /* \"#utility.yul\":8111:8129   */\n      tag_168\n      tag_60\n      jump\t// in\n    tag_168:\n        /* \"#utility.yul\":8075:8131   */\n    tag_167:\n        /* \"#utility.yul\":8155:8193   */\n      tag_169\n        /* \"#utility.yul\":8187:8191   */\n      dup3\n        /* \"#utility.yul\":8181:8192   */\n      sload\n        /* \"#utility.yul\":8155:8193   */\n      tag_26\n      jump\t// in\n    tag_169:\n        /* \"#utility.yul\":8240:8307   */\n      tag_170\n        /* \"#utility.yul\":8300:8306   */\n      dup3\n        /* \"#utility.yul\":8292:8298   */\n      dup3\n        /* \"#utility.yul\":8286:8290   */\n      dup6\n        /* \"#utility.yul\":8240:8307   */\n      tag_72\n      jump\t// in\n    tag_170:\n        /* \"#utility.yul\":8334:8335   */\n      0x00\n        /* \"#utility.yul\":8358:8362   */\n      0x20\n        /* \"#utility.yul\":8345:8362   */\n      swap1\n      pop\n        /* \"#utility.yul\":8390:8392   */\n      0x1f\n        /* \"#utility.yul\":8382:8388   */\n      dup4\n        /* \"#utility.yul\":8379:8393   */\n      gt\n        /* \"#utility.yul\":8407:8408   */\n      0x01\n        /* \"#utility.yul\":8402:9020   */\n      dup2\n      eq\n      tag_172\n      jumpi\n        /* \"#utility.yul\":9064:9065   */\n      0x00\n        /* \"#utility.yul\":9081:9087   */\n      dup5\n        /* \"#utility.yul\":9078:9155   */\n      iszero\n      tag_173\n      jumpi\n        /* \"#utility.yul\":9130:9139   */\n      dup3\n        /* \"#utility.yul\":9125:9128   */\n      dup8\n        /* \"#utility.yul\":9121:9140   */\n      add\n        /* \"#utility.yul\":9115:9141   */\n      mload\n        /* \"#utility.yul\":9106:9141   */\n      swap1\n      pop\n        /* \"#utility.yul\":9078:9155   */\n    tag_173:\n        /* \"#utility.yul\":9181:9248   */\n      tag_174\n        /* \"#utility.yul\":9241:9247   */\n      dup6\n        /* \"#utility.yul\":9234:9239   */\n      dup3\n        /* \"#utility.yul\":9181:9248   */\n      tag_75\n      jump\t// in\n    tag_174:\n        /* \"#utility.yul\":9175:9179   */\n      dup7\n        /* \"#utility.yul\":9168:9249   */\n      sstore\n        /* \"#utility.yul\":9037:9259   */\n      pop\n        /* \"#utility.yul\":8372:9259   */\n      jump(tag_171)\n        /* \"#utility.yul\":8402:9020   */\n    tag_172:\n        /* \"#utility.yul\":8454:8458   */\n      0x1f\n        /* \"#utility.yul\":8450:8459   */\n      not\n        /* \"#utility.yul\":8442:8448   */\n      dup5\n        /* \"#utility.yul\":8438:8460   */\n      and\n        /* \"#utility.yul\":8488:8525   */\n      tag_175\n        /* \"#utility.yul\":8520:8524   */\n      dup7\n        /* \"#utility.yul\":8488:8525   */\n      tag_61\n      jump\t// in\n    tag_175:\n        /* \"#utility.yul\":8547:8548   */\n      0x00\n        /* \"#utility.yul\":8561:8769   */\n    tag_176:\n        /* \"#utility.yul\":8575:8582   */\n      dup3\n        /* \"#utility.yul\":8572:8573   */\n      dup2\n        /* \"#utility.yul\":8569:8583   */\n      lt\n        /* \"#utility.yul\":8561:8769   */\n      iszero\n      tag_178\n      jumpi\n        /* \"#utility.yul\":8654:8663   */\n      dup5\n        /* \"#utility.yul\":8649:8652   */\n      dup10\n        /* \"#utility.yul\":8645:8664   */\n      add\n        /* \"#utility.yul\":8639:8665   */\n      mload\n        /* \"#utility.yul\":8631:8637   */\n      dup3\n        /* \"#utility.yul\":8624:8666   */\n      sstore\n        /* \"#utility.yul\":8705:8706   */\n      0x01\n        /* \"#utility.yul\":8697:8703   */\n      dup3\n        /* \"#utility.yul\":8693:8707   */\n      add\n        /* \"#utility.yul\":8683:8707   */\n      swap2\n      pop\n        /* \"#utility.yul\":8752:8754   */\n      0x20\n        /* \"#utility.yul\":8741:8750   */\n      dup6\n        /* \"#utility.yul\":8737:8755   */\n      add\n        /* \"#utility.yul\":8724:8755   */\n      swap5\n      pop\n        /* \"#utility.yul\":8598:8602   */\n      0x20\n        /* \"#utility.yul\":8595:8596   */\n      dup2\n        /* \"#utility.yul\":8591:8603   */\n      add\n        /* \"#utility.yul\":8586:8603   */\n      swap1\n      pop\n        /* \"#utility.yul\":8561:8769   */\n      jump(tag_176)\n    tag_178:\n        /* \"#utility.yul\":8797:8803   */\n      dup7\n        /* \"#utility.yul\":8788:8795   */\n      dup4\n        /* \"#utility.yul\":8785:8804   */\n      lt\n        /* \"#utility.yul\":8782:8961   */\n      iszero\n      tag_179\n      jumpi\n        /* \"#utility.yul\":8855:8864   */\n      dup5\n        /* \"#utility.yul\":8850:8853   */\n      dup10\n        /* \"#utility.yul\":8846:8865   */\n      add\n        /* \"#utility.yul\":8840:8866   */\n      mload\n        /* \"#utility.yul\":8898:8946   */\n      tag_180\n        /* \"#utility.yul\":8940:8944   */\n      0x1f\n        /* \"#utility.yul\":8932:8938   */\n      dup10\n        /* \"#utility.yul\":8928:8945   */\n      and\n        /* \"#utility.yul\":8917:8926   */\n      dup3\n        /* \"#utility.yul\":8898:8946   */\n      tag_74\n      jump\t// in\n    tag_180:\n        /* \"#utility.yul\":8890:8896   */\n      dup4\n        /* \"#utility.yul\":8883:8947   */\n      sstore\n        /* \"#utility.yul\":8805:8961   */\n      pop\n        /* \"#utility.yul\":8782:8961   */\n    tag_179:\n        /* \"#utility.yul\":9007:9008   */\n      0x01\n        /* \"#utility.yul\":9003:9004   */\n      0x02\n        /* \"#utility.yul\":8995:9001   */\n      dup9\n        /* \"#utility.yul\":8991:9005   */\n      mul\n        /* \"#utility.yul\":8987:9009   */\n      add\n        /* \"#utility.yul\":8981:8985   */\n      dup9\n        /* \"#utility.yul\":8974:9010   */\n      sstore\n        /* \"#utility.yul\":8409:9020   */\n      pop\n      pop\n      pop\n        /* \"#utility.yul\":8372:9259   */\n    tag_171:\n      pop\n        /* \"#utility.yul\":7962:9265   */\n      pop\n      pop\n      pop\n        /* \"#utility.yul\":7870:9265   */\n      pop\n      pop\n      jump\t// out\n\n    auxdata: 0xa2646970667358221220c4f6070eeca5afa7c8f28ef050aae03eb9efa1340e834885e6bbcfc0386b9da164736f6c634300081c0033\n}\n",
				"bytecode": {
					"linkReferences": {},
					"object": "6080604052348015600e575f5ffd5b5061082e8061001c5f395ff3fe608060405234801561000f575f5ffd5b506004361061003f575f3560e01c80639507d39a14610043578063b6a46b3b14610074578063bc8bc2b414610090575b5f5ffd5b61005d60048036038101906100589190610343565b6100c1565b60405161006b9291906103f8565b60405180910390f35b61008e60048036038101906100899190610487565b61018e565b005b6100aa60048036038101906100a59190610343565b610248565b6040516100b89291906103f8565b60405180910390f35b60605f5f5f84815481106100d8576100d76104d2565b5b905f5260205f2090600202019050805f01816001015f9054906101000a900460ff168180546101069061052c565b80601f01602080910402602001604051908101604052809291908181526020018280546101329061052c565b801561017d5780601f106101545761010080835404028352916020019161017d565b820191905f5260205f20905b81548152906001019060200180831161016057829003601f168201915b505050505091509250925050915091565b5f604051806040016040528084848080601f0160208091040260200160405190810160405280939291908181526020018383808284375f81840152601f19601f8201169050808301925050505050505081526020015f1515815250908060018154018082558091505060019003905f5260205f2090600202015f909190919091505f820151815f0190816102229190610729565b506020820151816001015f6101000a81548160ff02191690831515021790555050505050565b5f8181548110610256575f80fd5b905f5260205f2090600202015f91509050805f0180546102759061052c565b80601f01602080910402602001604051908101604052809291908181526020018280546102a19061052c565b80156102ec5780601f106102c3576101008083540402835291602001916102ec565b820191905f5260205f20905b8154815290600101906020018083116102cf57829003601f168201915b505050505090806001015f9054906101000a900460ff16905082565b5f5ffd5b5f5ffd5b5f819050919050565b61032281610310565b811461032c575f5ffd5b50565b5f8135905061033d81610319565b92915050565b5f6020828403121561035857610357610308565b5b5f6103658482850161032f565b91505092915050565b5f81519050919050565b5f82825260208201905092915050565b8281835e5f83830152505050565b5f601f19601f8301169050919050565b5f6103b08261036e565b6103ba8185610378565b93506103ca818560208601610388565b6103d381610396565b840191505092915050565b5f8115159050919050565b6103f2816103de565b82525050565b5f6040820190508181035f83015261041081856103a6565b905061041f60208301846103e9565b9392505050565b5f5ffd5b5f5ffd5b5f5ffd5b5f5f83601f84011261044757610446610426565b5b8235905067ffffffffffffffff8111156104645761046361042a565b5b6020830191508360018202830111156104805761047f61042e565b5b9250929050565b5f5f6020838503121561049d5761049c610308565b5b5f83013567ffffffffffffffff8111156104ba576104b961030c565b5b6104c685828601610432565b92509250509250929050565b7f4e487b71000000000000000000000000000000000000000000000000000000005f52603260045260245ffd5b7f4e487b71000000000000000000000000000000000000000000000000000000005f52602260045260245ffd5b5f600282049050600182168061054357607f821691505b602082108103610556576105556104ff565b5b50919050565b7f4e487b71000000000000000000000000000000000000000000000000000000005f52604160045260245ffd5b5f819050815f5260205f209050919050565b5f6020601f8301049050919050565b5f82821b905092915050565b5f600883026105e57fffffffffffffffffffffffffffffffffffffffffffffffffffffffffffffffff826105aa565b6105ef86836105aa565b95508019841693508086168417925050509392505050565b5f819050919050565b5f61062a61062561062084610310565b610607565b610310565b9050919050565b5f819050919050565b61064383610610565b61065761064f82610631565b8484546105b6565b825550505050565b5f5f905090565b61066e61065f565b61067981848461063a565b505050565b5b8181101561069c576106915f82610666565b60018101905061067f565b5050565b601f8211156106e1576106b281610589565b6106bb8461059b565b810160208510156106ca578190505b6106de6106d68561059b565b83018261067e565b50505b505050565b5f82821c905092915050565b5f6107015f19846008026106e6565b1980831691505092915050565b5f61071983836106f2565b9150826002028217905092915050565b6107328261036e565b67ffffffffffffffff81111561074b5761074a61055c565b5b610755825461052c565b6107608282856106a0565b5f60209050601f831160018114610791575f841561077f578287015190505b610789858261070e565b8655506107f0565b601f19841661079f86610589565b5f5b828110156107c6578489015182556001820191506020850194506020810190506107a1565b868310156107e357848901516107df601f8916826106f2565b8355505b6001600288020188555050505b50505050505056fea2646970667358221220c4f6070eeca5afa7c8f28ef050aae03eb9efa1340e834885e6bbcfc0386b9da164736f6c634300081c0033",
					"opcodes": "PUSH1 0x80 PUSH1 0x40 MSTORE CALLVALUE DUP1 ISZERO PUSH1 0xE JUMPI PUSH0 PUSH0 REVERT JUMPDEST POP PUSH2 0x82E DUP1 PUSH2 0x1C PUSH0 CODECOPY PUSH0 RETURN INVALID PUSH1 0x80 PUSH1 0x40 MSTORE CALLVALUE DUP1 ISZERO PUSH2 0xF JUMPI PUSH0 PUSH0 REVERT JUMPDEST POP PUSH1 0x4 CALLDATASIZE LT PUSH2 0x3F JUMPI PUSH0 CALLDATALOAD PUSH1 0xE0 SHR DUP1 PUSH4 0x9507D39A EQ PUSH2 0x43 JUMPI DUP1 PUSH4 0xB6A46B3B EQ PUSH2 0x74 JUMPI DUP1 PUSH4 0xBC8BC2B4 EQ PUSH2 0x90 JUMPI JUMPDEST PUSH0 PUSH0 REVERT JUMPDEST PUSH2 0x5D PUSH1 0x4 DUP1 CALLDATASIZE SUB DUP2 ADD SWAP1 PUSH2 0x58 SWAP2 SWAP1 PUSH2 0x343 JUMP JUMPDEST PUSH2 0xC1 JUMP JUMPDEST PUSH1 0x40 MLOAD PUSH2 0x6B SWAP3 SWAP2 SWAP1 PUSH2 0x3F8 JUMP JUMPDEST PUSH1 0x40 MLOAD DUP1 SWAP2 SUB SWAP1 RETURN JUMPDEST PUSH2 0x8E PUSH1 0x4 DUP1 CALLDATASIZE SUB DUP2 ADD SWAP1 PUSH2 0x89 SWAP2 SWAP1 PUSH2 0x487 JUMP JUMPDEST PUSH2 0x18E JUMP JUMPDEST STOP JUMPDEST PUSH2 0xAA PUSH1 0x4 DUP1 CALLDATASIZE SUB DUP2 ADD SWAP1 PUSH2 0xA5 SWAP2 SWAP1 PUSH2 0x343 JUMP JUMPDEST PUSH2 0x248 JUMP JUMPDEST PUSH1 0x40 MLOAD PUSH2 0xB8 SWAP3 SWAP2 SWAP1 PUSH2 0x3F8 JUMP JUMPDEST PUSH1 0x40 MLOAD DUP1 SWAP2 SUB SWAP1 RETURN JUMPDEST PUSH1 0x60 PUSH0 PUSH0 PUSH0 DUP5 DUP2 SLOAD DUP2 LT PUSH2 0xD8 JUMPI PUSH2 0xD7 PUSH2 0x4D2 JUMP JUMPDEST JUMPDEST SWAP1 PUSH0 MSTORE PUSH1 0x20 PUSH0 KECCAK256 SWAP1 PUSH1 0x2 MUL ADD SWAP1 POP DUP1 PUSH0 ADD DUP2 PUSH1 0x1 ADD PUSH0 SWAP1 SLOAD SWAP1 PUSH2 0x100 EXP SWAP1 DIV PUSH1 0xFF AND DUP2 DUP1 SLOAD PUSH2 0x106 SWAP1 PUSH2 0x52C JUMP JUMPDEST DUP1 PUSH1 0x1F ADD PUSH1 0x20 DUP1 SWAP2 DIV MUL PUSH1 0x20 ADD PUSH1 0x40 MLOAD SWAP1 DUP2 ADD PUSH1 0x40 MSTORE DUP1 SWAP3 SWAP2 SWAP1 DUP2 DUP2 MSTORE PUSH1 0x20 ADD DUP3 DUP1 SLOAD PUSH2 0x132 SWAP1 PUSH2 0x52C JUMP JUMPDEST DUP1 ISZERO PUSH2 0x17D JUMPI DUP1 PUSH1 0x1F LT PUSH2 0x154 JUMPI PUSH2 0x100 DUP1 DUP4 SLOAD DIV MUL DUP4 MSTORE SWAP2 PUSH1 0x20 ADD SWAP2 PUSH2 0x17D JUMP JUMPDEST DUP3 ADD SWAP2 SWAP1 PUSH0 MSTORE PUSH1 0x20 PUSH0 KECCAK256 SWAP1 JUMPDEST DUP2 SLOAD DUP2 MSTORE SWAP1 PUSH1 0x1 ADD SWAP1 PUSH1 0x20 ADD DUP1 DUP4 GT PUSH2 0x160 JUMPI DUP3 SWAP1 SUB PUSH1 0x1F AND DUP3 ADD SWAP2 JUMPDEST POP POP POP POP POP SWAP2 POP SWAP3 POP SWAP3 POP POP SWAP2 POP SWAP2 JUMP JUMPDEST PUSH0 PUSH1 0x40 MLOAD DUP1 PUSH1 0x40 ADD PUSH1 0x40 MSTORE DUP1 DUP5 DUP5 DUP1 DUP1 PUSH1 0x1F ADD PUSH1 0x20 DUP1 SWAP2 DIV MUL PUSH1 0x20 ADD PUSH1 0x40 MLOAD SWAP1 DUP2 ADD PUSH1 0x40 MSTORE DUP1 SWAP4 SWAP3 SWAP2 SWAP1 DUP2 DUP2 MSTORE PUSH1 0x20 ADD DUP4 DUP4 DUP1 DUP3 DUP5 CALLDATACOPY PUSH0 DUP2 DUP5 ADD MSTORE PUSH1 0x1F NOT PUSH1 0x1F DUP3 ADD AND SWAP1 POP DUP1 DUP4 ADD SWAP3 POP POP POP POP POP POP POP DUP2 MSTORE PUSH1 0x20 ADD PUSH0 ISZERO ISZERO DUP2 MSTORE POP SWAP1 DUP1 PUSH1 0x1 DUP2 SLOAD ADD DUP1 DUP3 SSTORE DUP1 SWAP2 POP POP PUSH1 0x1 SWAP1 SUB SWAP1 PUSH0 MSTORE PUSH1 0x20 PUSH0 KECCAK256 SWAP1 PUSH1 0x2 MUL ADD PUSH0 SWAP1 SWAP2 SWAP1 SWAP2 SWAP1 SWAP2 POP PUSH0 DUP3 ADD MLOAD DUP2 PUSH0 ADD SWAP1 DUP2 PUSH2 0x222 SWAP2 SWAP1 PUSH2 0x729 JUMP JUMPDEST POP PUSH1 0x20 DUP3 ADD MLOAD DUP2 PUSH1 0x1 ADD PUSH0 PUSH2 0x100 EXP DUP2 SLOAD DUP2 PUSH1 0xFF MUL NOT AND SWAP1 DUP4 ISZERO ISZERO MUL OR SWAP1 SSTORE POP POP POP POP POP JUMP JUMPDEST PUSH0 DUP2 DUP2 SLOAD DUP2 LT PUSH2 0x256 JUMPI PUSH0 DUP1 REVERT JUMPDEST SWAP1 PUSH0 MSTORE PUSH1 0x20 PUSH0 KECCAK256 SWAP1 PUSH1 0x2 MUL ADD PUSH0 SWAP2 POP SWAP1 POP DUP1 PUSH0 ADD DUP1 SLOAD PUSH2 0x275 SWAP1 PUSH2 0x52C JUMP JUMPDEST DUP1 PUSH1 0x1F ADD PUSH1 0x20 DUP1 SWAP2 DIV MUL PUSH1 0x20 ADD PUSH1 0x40 MLOAD SWAP1 DUP2 ADD PUSH1 0x40 MSTORE DUP1 SWAP3 SWAP2 SWAP1 DUP2 DUP2 MSTORE PUSH1 0x20 ADD DUP3 DUP1 SLOAD PUSH2 0x2A1 SWAP1 PUSH2 0x52C JUMP JUMPDEST DUP1 ISZERO PUSH2 0x2EC JUMPI DUP1 PUSH1 0x1F LT PUSH2 0x2C3 JUMPI PUSH2 0x100 DUP1 DUP4 SLOAD DIV MUL DUP4 MSTORE SWAP2 PUSH1 0x20 ADD SWAP2 PUSH2 0x2EC JUMP JUMPDEST DUP3 ADD SWAP2 SWAP1 PUSH0 MSTORE PUSH1 0x20 PUSH0 KECCAK256 SWAP1 JUMPDEST DUP2 SLOAD DUP2 MSTORE SWAP1 PUSH1 0x1 ADD SWAP1 PUSH1 0x20 ADD DUP1 DUP4 GT PUSH2 0x2CF JUMPI DUP3 SWAP1 SUB PUSH1 0x1F AND DUP3 ADD SWAP2 JUMPDEST POP POP POP POP POP SWAP1 DUP1 PUSH1 0x1 ADD PUSH0 SWAP1 SLOAD SWAP1 PUSH2 0x100 EXP SWAP1 DIV PUSH1 0xFF AND SWAP1 POP DUP3 JUMP JUMPDEST PUSH0 PUSH0 REVERT JUMPDEST PUSH0 PUSH0 REVERT JUMPDEST PUSH0 DUP2 SWAP1 POP SWAP2 SWAP1 POP JUMP JUMPDEST PUSH2 0x322 DUP2 PUSH2 0x310 JUMP JUMPDEST DUP2 EQ PUSH2 0x32C JUMPI PUSH0 PUSH0 REVERT JUMPDEST POP JUMP JUMPDEST PUSH0 DUP2 CALLDATALOAD SWAP1 POP PUSH2 0x33D DUP2 PUSH2 0x319 JUMP JUMPDEST SWAP3 SWAP2 POP POP JUMP JUMPDEST PUSH0 PUSH1 0x20 DUP3 DUP5 SUB SLT ISZERO PUSH2 0x358 JUMPI PUSH2 0x357 PUSH2 0x308 JUMP JUMPDEST JUMPDEST PUSH0 PUSH2 0x365 DUP5 DUP3 DUP6 ADD PUSH2 0x32F JUMP JUMPDEST SWAP2 POP POP SWAP3 SWAP2 POP POP JUMP JUMPDEST PUSH0 DUP2 MLOAD SWAP1 POP SWAP2 SWAP1 POP JUMP JUMPDEST PUSH0 DUP3 DUP3 MSTORE PUSH1 0x20 DUP3 ADD SWAP1 POP SWAP3 SWAP2 POP POP JUMP JUMPDEST DUP3 DUP2 DUP4 MCOPY PUSH0 DUP4 DUP4 ADD MSTORE POP POP POP JUMP JUMPDEST PUSH0 PUSH1 0x1F NOT PUSH1 0x1F DUP4 ADD AND SWAP1 POP SWAP2 SWAP1 POP JUMP JUMPDEST PUSH0 PUSH2 0x3B0 DUP3 PUSH2 0x36E JUMP JUMPDEST PUSH2 0x3BA DUP2 DUP6 PUSH2 0x378 JUMP JUMPDEST SWAP4 POP PUSH2 0x3CA DUP2 DUP6 PUSH1 0x20 DUP7 ADD PUSH2 0x388 JUMP JUMPDEST PUSH2 0x3D3 DUP2 PUSH2 0x396 JUMP JUMPDEST DUP5 ADD SWAP2 POP POP SWAP3 SWAP2 POP POP JUMP JUMPDEST PUSH0 DUP2 ISZERO ISZERO SWAP1 POP SWAP2 SWAP1 POP JUMP JUMPDEST PUSH2 0x3F2 DUP2 PUSH2 0x3DE JUMP JUMPDEST DUP3 MSTORE POP POP JUMP JUMPDEST PUSH0 PUSH1 0x40 DUP3 ADD SWAP1 POP DUP2 DUP2 SUB PUSH0 DUP4 ADD MSTORE PUSH2 0x410 DUP2 DUP6 PUSH2 0x3A6 JUMP JUMPDEST SWAP1 POP PUSH2 0x41F PUSH1 0x20 DUP4 ADD DUP5 PUSH2 0x3E9 JUMP JUMPDEST SWAP4 SWAP3 POP POP POP JUMP JUMPDEST PUSH0 PUSH0 REVERT JUMPDEST PUSH0 PUSH0 REVERT JUMPDEST PUSH0 PUSH0 REVERT JUMPDEST PUSH0 PUSH0 DUP4 PUSH1 0x1F DUP5 ADD SLT PUSH2 0x447 JUMPI PUSH2 0x446 PUSH2 0x426 JUMP JUMPDEST JUMPDEST DUP3 CALLDATALOAD SWAP1 POP PUSH8 0xFFFFFFFFFFFFFFFF DUP2 GT ISZERO PUSH2 0x464 JUMPI PUSH2 0x463 PUSH2 0x42A JUMP JUMPDEST JUMPDEST PUSH1 0x20 DUP4 ADD SWAP2 POP DUP4 PUSH1 0x1 DUP3 MUL DUP4 ADD GT ISZERO PUSH2 0x480 JUMPI PUSH2 0x47F PUSH2 0x42E JUMP JUMPDEST JUMPDEST SWAP3 POP SWAP3 SWAP1 POP JUMP JUMPDEST PUSH0 PUSH0 PUSH1 0x20 DUP4 DUP6 SUB SLT ISZERO PUSH2 0x49D JUMPI PUSH2 0x49C PUSH2 0x308 JUMP JUMPDEST JUMPDEST PUSH0 DUP4 ADD CALLDATALOAD PUSH8 0xFFFFFFFFFFFFFFFF DUP2 GT ISZERO PUSH2 0x4BA JUMPI PUSH2 0x4B9 PUSH2 0x30C JUMP JUMPDEST JUMPDEST PUSH2 0x4C6 DUP6 DUP3 DUP7 ADD PUSH2 0x432 JUMP JUMPDEST SWAP3 POP SWAP3 POP POP SWAP3 POP SWAP3 SWAP1 POP JUMP JUMPDEST PUSH32 0x4E487B7100000000000000000000000000000000000000000000000000000000 PUSH0 MSTORE PUSH1 0x32 PUSH1 0x4 MSTORE PUSH1 0x24 PUSH0 REVERT JUMPDEST PUSH32 0x4E487B7100000000000000000000000000000000000000000000000000000000 PUSH0 MSTORE PUSH1 0x22 PUSH1 0x4 MSTORE PUSH1 0x24 PUSH0 REVERT JUMPDEST PUSH0 PUSH1 0x2 DUP3 DIV SWAP1 POP PUSH1 0x1 DUP3 AND DUP1 PUSH2 0x543 JUMPI PUSH1 0x7F DUP3 AND SWAP2 POP JUMPDEST PUSH1 0x20 DUP3 LT DUP2 SUB PUSH2 0x556 JUMPI PUSH2 0x555 PUSH2 0x4FF JUMP JUMPDEST JUMPDEST POP SWAP2 SWAP1 POP JUMP JUMPDEST PUSH32 0x4E487B7100000000000000000000000000000000000000000000000000000000 PUSH0 MSTORE PUSH1 0x41 PUSH1 0x4 MSTORE PUSH1 0x24 PUSH0 REVERT JUMPDEST PUSH0 DUP2 SWAP1 POP DUP2 PUSH0 MSTORE PUSH1 0x20 PUSH0 KECCAK256 SWAP1 POP SWAP2 SWAP1 POP JUMP JUMPDEST PUSH0 PUSH1 0x20 PUSH1 0x1F DUP4 ADD DIV SWAP1 POP SWAP2 SWAP1 POP JUMP JUMPDEST PUSH0 DUP3 DUP3 SHL SWAP1 POP SWAP3 SWAP2 POP POP JUMP JUMPDEST PUSH0 PUSH1 0x8 DUP4 MUL PUSH2 0x5E5 PUSH32 0xFFFFFFFFFFFFFFFFFFFFFFFFFFFFFFFFFFFFFFFFFFFFFFFFFFFFFFFFFFFFFFFF DUP3 PUSH2 0x5AA JUMP JUMPDEST PUSH2 0x5EF DUP7 DUP4 PUSH2 0x5AA JUMP JUMPDEST SWAP6 POP DUP1 NOT DUP5 AND SWAP4 POP DUP1 DUP7 AND DUP5 OR SWAP3 POP POP POP SWAP4 SWAP3 POP POP POP JUMP JUMPDEST PUSH0 DUP2 SWAP1 POP SWAP2 SWAP1 POP JUMP JUMPDEST PUSH0 PUSH2 0x62A PUSH2 0x625 PUSH2 0x620 DUP5 PUSH2 0x310 JUMP JUMPDEST PUSH2 0x607 JUMP JUMPDEST PUSH2 0x310 JUMP JUMPDEST SWAP1 POP SWAP2 SWAP1 POP JUMP JUMPDEST PUSH0 DUP2 SWAP1 POP SWAP2 SWAP1 POP JUMP JUMPDEST PUSH2 0x643 DUP4 PUSH2 0x610 JUMP JUMPDEST PUSH2 0x657 PUSH2 0x64F DUP3 PUSH2 0x631 JUMP JUMPDEST DUP5 DUP5 SLOAD PUSH2 0x5B6 JUMP JUMPDEST DUP3 SSTORE POP POP POP POP JUMP JUMPDEST PUSH0 PUSH0 SWAP1 POP SWAP1 JUMP JUMPDEST PUSH2 0x66E PUSH2 0x65F JUMP JUMPDEST PUSH2 0x679 DUP2 DUP5 DUP5 PUSH2 0x63A JUMP JUMPDEST POP POP POP JUMP JUMPDEST JUMPDEST DUP2 DUP2 LT ISZERO PUSH2 0x69C JUMPI PUSH2 0x691 PUSH0 DUP3 PUSH2 0x666 JUMP JUMPDEST PUSH1 0x1 DUP2 ADD SWAP1 POP PUSH2 0x67F JUMP JUMPDEST POP POP JUMP JUMPDEST PUSH1 0x1F DUP3 GT ISZERO PUSH2 0x6E1 JUMPI PUSH2 0x6B2 DUP2 PUSH2 0x589 JUMP JUMPDEST PUSH2 0x6BB DUP5 PUSH2 0x59B JUMP JUMPDEST DUP2 ADD PUSH1 0x20 DUP6 LT ISZERO PUSH2 0x6CA JUMPI DUP2 SWAP1 POP JUMPDEST PUSH2 0x6DE PUSH2 0x6D6 DUP6 PUSH2 0x59B JUMP JUMPDEST DUP4 ADD DUP3 PUSH2 0x67E JUMP JUMPDEST POP POP JUMPDEST POP POP POP JUMP JUMPDEST PUSH0 DUP3 DUP3 SHR SWAP1 POP SWAP3 SWAP2 POP POP JUMP JUMPDEST PUSH0 PUSH2 0x701 PUSH0 NOT DUP5 PUSH1 0x8 MUL PUSH2 0x6E6 JUMP JUMPDEST NOT DUP1 DUP4 AND SWAP2 POP POP SWAP3 SWAP2 POP POP JUMP JUMPDEST PUSH0 PUSH2 0x719 DUP4 DUP4 PUSH2 0x6F2 JUMP JUMPDEST SWAP2 POP DUP3 PUSH1 0x2 MUL DUP3 OR SWAP1 POP SWAP3 SWAP2 POP POP JUMP JUMPDEST PUSH2 0x732 DUP3 PUSH2 0x36E JUMP JUMPDEST PUSH8 0xFFFFFFFFFFFFFFFF DUP2 GT ISZERO PUSH2 0x74B JUMPI PUSH2 0x74A PUSH2 0x55C JUMP JUMPDEST JUMPDEST PUSH2 0x755 DUP3 SLOAD PUSH2 0x52C JUMP JUMPDEST PUSH2 0x760 DUP3 DUP3 DUP6 PUSH2 0x6A0 JUMP JUMPDEST PUSH0 PUSH1 0x20 SWAP1 POP PUSH1 0x1F DUP4 GT PUSH1 0x1 DUP2 EQ PUSH2 0x791 JUMPI PUSH0 DUP5 ISZERO PUSH2 0x77F JUMPI DUP3 DUP8 ADD MLOAD SWAP1 POP JUMPDEST PUSH2 0x789 DUP6 DUP3 PUSH2 0x70E JUMP JUMPDEST DUP7 SSTORE POP PUSH2 0x7F0 JUMP JUMPDEST PUSH1 0x1F NOT DUP5 AND PUSH2 0x79F DUP7 PUSH2 0x589 JUMP JUMPDEST PUSH0 JUMPDEST DUP3 DUP2 LT ISZERO PUSH2 0x7C6 JUMPI DUP5 DUP10 ADD MLOAD DUP3 SSTORE PUSH1 0x1 DUP3 ADD SWAP2 POP PUSH1 0x20 DUP6 ADD SWAP5 POP PUSH1 0x20 DUP2 ADD SWAP1 POP PUSH2 0x7A1 JUMP JUMPDEST DUP7 DUP4 LT ISZERO PUSH2 0x7E3 JUMPI DUP5 DUP10 ADD MLOAD PUSH2 0x7DF PUSH1 0x1F DUP10 AND DUP3 PUSH2 0x6F2 JUMP JUMPDEST DUP4 SSTORE POP JUMPDEST PUSH1 0x1 PUSH1 0x2 DUP9 MUL ADD DUP9 SSTORE POP POP POP JUMPDEST POP POP POP POP POP POP JUMP INVALID LOG2 PUSH5 0x6970667358 0x22 SLT KECCAK256 0xC4 0xF6 SMOD 0xE 0xEC 0xA5 0xAF 0xA7 0xC8 CALLCODE DUP15 CREATE POP 0xAA 0xE0 RETURNDATACOPY 0xB9 0xEF LOG1 CALLVALUE 0xE DUP4 BASEFEE DUP6 0xE6 0xBB 0xCF 0xC0 CODESIZE PUSH12 0x9DA164736F6C634300081C00 CALLER "
				},
				"gasEstimates": {
					"creation": {
						"codeDepositCost": "418800",
						"executionCost": "453",
						"totalCost": "419253"
					},
					"external": {
						"create(string)": "infinite",
						"get(uint256)": "infinite",
						"todos(uint256)": "infinite"
					}
				},
				"methodIdentifiers": {
					"create(string)": "b6a46b3b",
					"get(uint256)": "9507d39a",
					"todos(uint256)": "bc8bc2b4"
				}
			},
			"storageLayout": {
				"storage": [
					{
						"astId": 10,
						"contract": "struct.sol:Struct",
						"label": "todos",
						"offset": 0,
						"slot": "0",
						"type": "t_array(t_struct(Todo)6_storage)dyn_storage"
					}
				],
				"types": {
					"t_array(t_struct(Todo)6_storage)dyn_storage": {
						"base": "t_struct(Todo)6_storage",
						"encoding": "dynamic_array",
						"label": "struct Struct.Todo[]",
						"numberOfBytes": "32"
					},
					"t_bool": {
						"encoding": "inplace",
						"label": "bool",
						"numberOfBytes": "1"
					},
					"t_string_storage": {
						"encoding": "bytes",
						"label": "string",
						"numberOfBytes": "32"
					},
					"t_struct(Todo)6_storage": {
						"encoding": "inplace",
						"label": "struct Struct.Todo",
						"members": [
							{
								"astId": 3,
								"contract": "struct.sol:Struct",
								"label": "text",
								"offset": 0,
								"slot": "0",
								"type": "t_string_storage"
							},
							{
								"astId": 5,
								"contract": "struct.sol:Struct",
								"label": "completed",
								"offset": 0,
								"slot": "1",
								"type": "t_bool"
							}
						],
						"numberOfBytes": "64"
					}
				}
			},
			"userdoc": {
				"kind": "user",
				"methods": {},
				"version": 1
			}
		}
	}
}