{
	"data": {
		"bytecode": {
			"linkReferences": {},
			"object": "60a060405234801561001057600080fd5b506040516105c23803806105c283398101604081905261002f9161009d565b6001600160a01b0381166080819052604051632b77c09f60e21b81523060048201526001602482015282919063addf027c90604401600060405180830381600087803b15801561007e57600080fd5b505af1158015610092573d6000803e3d6000fd5b5050505050506100cd565b6000602082840312156100af57600080fd5b81516001600160a01b03811681146100c657600080fd5b9392505050565b6080516104cd6100f56000396000818160d60152818161018c015261022a01526104cd6000f3fe608060405234801561001057600080fd5b50600436106100885760003560e01c8063a36ff4d81161005b578063a36ff4d81461013f578063bef3a2f014610152578063bf90fb4e1461015b578063cf2e958a1461016e57600080fd5b80634daff67e1461008d57806371bab666146100d157806377e20df8146101155780637c1de7e11461012c575b600080fd5b6100cf61009b3660046102db565b600080546001600160a01b039485166001600160a01b03199182161790915560019290925560028054919093169116179055565b005b6100f87f000000000000000000000000000000000000000000000000000000000000000081565b6040516001600160a01b0390911681526020015b60405180910390f35b61011e60015481565b60405190815260200161010c565b6100cf61013a366004610360565b610181565b6000546100f8906001600160a01b031681565b61011e60035481565b6002546100f8906001600160a01b031681565b6100cf61017c3660046103ac565b61020a565b336001600160a01b037f000000000000000000000000000000000000000000000000000000000000000016146101f65760405162461bcd60e51b8152602060048201526016602482015275043616c6c6572206e6f74204169726e6f6465205252560541b604482015260640160405180910390fd5b610202818301836103ee565b600355505050565b600054600154600254604051636e6be03f60e01b81526001600160a01b037f0000000000000000000000000000000000000000000000000000000000000000811694636e6be03f9461027794918316939092309216908290637c1de7e160e01b908b908b90600401610407565b6020604051808303816000875af1158015610296573d6000803e3d6000fd5b505050506040513d601f19601f820116820180604052508101906102ba919061047e565b505050565b80356001600160a01b03811681146102d657600080fd5b919050565b6000806000606084860312156102f057600080fd5b6102f9846102bf565b92506020840135915061030e604085016102bf565b90509250925092565b60008083601f84011261032957600080fd5b50813567ffffffffffffffff81111561034157600080fd5b60208301915083602082850101111561035957600080fd5b9250929050565b60008060006040848603121561037557600080fd5b83359250602084013567ffffffffffffffff81111561039357600080fd5b61039f86828701610317565b9497909650939450505050565b600080602083850312156103bf57600080fd5b823567ffffffffffffffff8111156103d657600080fd5b6103e285828601610317565b90969095509350505050565b60006020828403121561040057600080fd5b5035919050565b6001600160a01b0389811682526020820189905287811660408301528681166060830152851660808201526001600160e01b0319841660a082015260e060c08201819052810182905260006101008385828501376000838501820152601f909301601f191690910190910198975050505050505050565b60006020828403121561049057600080fd5b505191905056fea264697066735822122022eebe3cc2192ec5326d40956a29ed618991cb753825de7daacb2fa564d2653664736f6c63430008120033",
			"opcodes": "PUSH1 0xA0 PUSH1 0x40 MSTORE CALLVALUE DUP1 ISZERO PUSH2 0x10 JUMPI PUSH1 0x0 DUP1 REVERT JUMPDEST POP PUSH1 0x40 MLOAD PUSH2 0x5C2 CODESIZE SUB DUP1 PUSH2 0x5C2 DUP4 CODECOPY DUP2 ADD PUSH1 0x40 DUP2 SWAP1 MSTORE PUSH2 0x2F SWAP2 PUSH2 0x9D JUMP JUMPDEST PUSH1 0x1 PUSH1 0x1 PUSH1 0xA0 SHL SUB DUP2 AND PUSH1 0x80 DUP2 SWAP1 MSTORE PUSH1 0x40 MLOAD PUSH4 0x2B77C09F PUSH1 0xE2 SHL DUP2 MSTORE ADDRESS PUSH1 0x4 DUP3 ADD MSTORE PUSH1 0x1 PUSH1 0x24 DUP3 ADD MSTORE DUP3 SWAP2 SWAP1 PUSH4 0xADDF027C SWAP1 PUSH1 0x44 ADD PUSH1 0x0 PUSH1 0x40 MLOAD DUP1 DUP4 SUB DUP2 PUSH1 0x0 DUP8 DUP1 EXTCODESIZE ISZERO DUP1 ISZERO PUSH2 0x7E JUMPI PUSH1 0x0 DUP1 REVERT JUMPDEST POP GAS CALL ISZERO DUP1 ISZERO PUSH2 0x92 JUMPI RETURNDATASIZE PUSH1 0x0 DUP1 RETURNDATACOPY RETURNDATASIZE PUSH1 0x0 REVERT JUMPDEST POP POP POP POP POP POP PUSH2 0xCD JUMP JUMPDEST PUSH1 0x0 PUSH1 0x20 DUP3 DUP5 SUB SLT ISZERO PUSH2 0xAF JUMPI PUSH1 0x0 DUP1 REVERT JUMPDEST DUP2 MLOAD PUSH1 0x1 PUSH1 0x1 PUSH1 0xA0 SHL SUB DUP2 AND DUP2 EQ PUSH2 0xC6 JUMPI PUSH1 0x0 DUP1 REVERT JUMPDEST SWAP4 SWAP3 POP POP POP JUMP JUMPDEST PUSH1 0x80 MLOAD PUSH2 0x4CD PUSH2 0xF5 PUSH1 0x0 CODECOPY PUSH1 0x0 DUP2 DUP2 PUSH1 0xD6 ADD MSTORE DUP2 DUP2 PUSH2 0x18C ADD MSTORE PUSH2 0x22A ADD MSTORE PUSH2 0x4CD PUSH1 0x0 RETURN INVALID PUSH1 0x80 PUSH1 0x40 MSTORE CALLVALUE DUP1 ISZERO PUSH2 0x10 JUMPI PUSH1 0x0 DUP1 REVERT JUMPDEST POP PUSH1 0x4 CALLDATASIZE LT PUSH2 0x88 JUMPI PUSH1 0x0 CALLDATALOAD PUSH1 0xE0 SHR DUP1 PUSH4 0xA36FF4D8 GT PUSH2 0x5B JUMPI DUP1 PUSH4 0xA36FF4D8 EQ PUSH2 0x13F JUMPI DUP1 PUSH4 0xBEF3A2F0 EQ PUSH2 0x152 JUMPI DUP1 PUSH4 0xBF90FB4E EQ PUSH2 0x15B JUMPI DUP1 PUSH4 0xCF2E958A EQ PUSH2 0x16E JUMPI PUSH1 0x0 DUP1 REVERT JUMPDEST DUP1 PUSH4 0x4DAFF67E EQ PUSH2 0x8D JUMPI DUP1 PUSH4 0x71BAB666 EQ PUSH2 0xD1 JUMPI DUP1 PUSH4 0x77E20DF8 EQ PUSH2 0x115 JUMPI DUP1 PUSH4 0x7C1DE7E1 EQ PUSH2 0x12C JUMPI JUMPDEST PUSH1 0x0 DUP1 REVERT JUMPDEST PUSH2 0xCF PUSH2 0x9B CALLDATASIZE PUSH1 0x4 PUSH2 0x2DB JUMP JUMPDEST PUSH1 0x0 DUP1 SLOAD PUSH1 0x1 PUSH1 0x1 PUSH1 0xA0 SHL SUB SWAP5 DUP6 AND PUSH1 0x1 PUSH1 0x1 PUSH1 0xA0 SHL SUB NOT SWAP2 DUP3 AND OR SWAP1 SWAP2 SSTORE PUSH1 0x1 SWAP3 SWAP1 SWAP3 SSTORE PUSH1 0x2 DUP1 SLOAD SWAP2 SWAP1 SWAP4 AND SWAP2 AND OR SWAP1 SSTORE JUMP JUMPDEST STOP JUMPDEST PUSH2 0xF8 PUSH32 0x0 DUP2 JUMP JUMPDEST PUSH1 0x40 MLOAD PUSH1 0x1 PUSH1 0x1 PUSH1 0xA0 SHL SUB SWAP1 SWAP2 AND DUP2 MSTORE PUSH1 0x20 ADD JUMPDEST PUSH1 0x40 MLOAD DUP1 SWAP2 SUB SWAP1 RETURN JUMPDEST PUSH2 0x11E PUSH1 0x1 SLOAD DUP2 JUMP JUMPDEST PUSH1 0x40 MLOAD SWAP1 DUP2 MSTORE PUSH1 0x20 ADD PUSH2 0x10C JUMP JUMPDEST PUSH2 0xCF PUSH2 0x13A CALLDATASIZE PUSH1 0x4 PUSH2 0x360 JUMP JUMPDEST PUSH2 0x181 JUMP JUMPDEST PUSH1 0x0 SLOAD PUSH2 0xF8 SWAP1 PUSH1 0x1 PUSH1 0x1 PUSH1 0xA0 SHL SUB AND DUP2 JUMP JUMPDEST PUSH2 0x11E PUSH1 0x3 SLOAD DUP2 JUMP JUMPDEST PUSH1 0x2 SLOAD PUSH2 0xF8 SWAP1 PUSH1 0x1 PUSH1 0x1 PUSH1 0xA0 SHL SUB AND DUP2 JUMP JUMPDEST PUSH2 0xCF PUSH2 0x17C CALLDATASIZE PUSH1 0x4 PUSH2 0x3AC JUMP JUMPDEST PUSH2 0x20A JUMP JUMPDEST CALLER PUSH1 0x1 PUSH1 0x1 PUSH1 0xA0 SHL SUB PUSH32 0x0 AND EQ PUSH2 0x1F6 JUMPI PUSH1 0x40 MLOAD PUSH3 0x461BCD PUSH1 0xE5 SHL DUP2 MSTORE PUSH1 0x20 PUSH1 0x4 DUP3 ADD MSTORE PUSH1 0x16 PUSH1 0x24 DUP3 ADD MSTORE PUSH22 0x43616C6C6572206E6F74204169726E6F64652052525 PUSH1 0x54 SHL PUSH1 0x44 DUP3 ADD MSTORE PUSH1 0x64 ADD PUSH1 0x40 MLOAD DUP1 SWAP2 SUB SWAP1 REVERT JUMPDEST PUSH2 0x202 DUP2 DUP4 ADD DUP4 PUSH2 0x3EE JUMP JUMPDEST PUSH1 0x3 SSTORE POP POP POP JUMP JUMPDEST PUSH1 0x0 SLOAD PUSH1 0x1 SLOAD PUSH1 0x2 SLOAD PUSH1 0x40 MLOAD PUSH4 0x6E6BE03F PUSH1 0xE0 SHL DUP2 MSTORE PUSH1 0x1 PUSH1 0x1 PUSH1 0xA0 SHL SUB PUSH32 0x0 DUP2 AND SWAP5 PUSH4 0x6E6BE03F SWAP5 PUSH2 0x277 SWAP5 SWAP2 DUP4 AND SWAP4 SWAP1 SWAP3 ADDRESS SWAP3 AND SWAP1 DUP3 SWAP1 PUSH4 0x7C1DE7E1 PUSH1 0xE0 SHL SWAP1 DUP12 SWAP1 DUP12 SWAP1 PUSH1 0x4 ADD PUSH2 0x407 JUMP JUMPDEST PUSH1 0x20 PUSH1 0x40 MLOAD DUP1 DUP4 SUB DUP2 PUSH1 0x0 DUP8 GAS CALL ISZERO DUP1 ISZERO PUSH2 0x296 JUMPI RETURNDATASIZE PUSH1 0x0 DUP1 RETURNDATACOPY RETURNDATASIZE PUSH1 0x0 REVERT JUMPDEST POP POP POP POP PUSH1 0x40 MLOAD RETURNDATASIZE PUSH1 0x1F NOT PUSH1 0x1F DUP3 ADD AND DUP3 ADD DUP1 PUSH1 0x40 MSTORE POP DUP2 ADD SWAP1 PUSH2 0x2BA SWAP2 SWAP1 PUSH2 0x47E JUMP JUMPDEST POP POP POP JUMP JUMPDEST DUP1 CALLDATALOAD PUSH1 0x1 PUSH1 0x1 PUSH1 0xA0 SHL SUB DUP2 AND DUP2 EQ PUSH2 0x2D6 JUMPI PUSH1 0x0 DUP1 REVERT JUMPDEST SWAP2 SWAP1 POP JUMP JUMPDEST PUSH1 0x0 DUP1 PUSH1 0x0 PUSH1 0x60 DUP5 DUP7 SUB SLT ISZERO PUSH2 0x2F0 JUMPI PUSH1 0x0 DUP1 REVERT JUMPDEST PUSH2 0x2F9 DUP5 PUSH2 0x2BF JUMP JUMPDEST SWAP3 POP PUSH1 0x20 DUP5 ADD CALLDATALOAD SWAP2 POP PUSH2 0x30E PUSH1 0x40 DUP6 ADD PUSH2 0x2BF JUMP JUMPDEST SWAP1 POP SWAP3 POP SWAP3 POP SWAP3 JUMP JUMPDEST PUSH1 0x0 DUP1 DUP4 PUSH1 0x1F DUP5 ADD SLT PUSH2 0x329 JUMPI PUSH1 0x0 DUP1 REVERT JUMPDEST POP DUP2 CALLDATALOAD PUSH8 0xFFFFFFFFFFFFFFFF DUP2 GT ISZERO PUSH2 0x341 JUMPI PUSH1 0x0 DUP1 REVERT JUMPDEST PUSH1 0x20 DUP4 ADD SWAP2 POP DUP4 PUSH1 0x20 DUP3 DUP6 ADD ADD GT ISZERO PUSH2 0x359 JUMPI PUSH1 0x0 DUP1 REVERT JUMPDEST SWAP3 POP SWAP3 SWAP1 POP JUMP JUMPDEST PUSH1 0x0 DUP1 PUSH1 0x0 PUSH1 0x40 DUP5 DUP7 SUB SLT ISZERO PUSH2 0x375 JUMPI PUSH1 0x0 DUP1 REVERT JUMPDEST DUP4 CALLDATALOAD SWAP3 POP PUSH1 0x20 DUP5 ADD CALLDATALOAD PUSH8 0xFFFFFFFFFFFFFFFF DUP2 GT ISZERO PUSH2 0x393 JUMPI PUSH1 0x0 DUP1 REVERT JUMPDEST PUSH2 0x39F DUP7 DUP3 DUP8 ADD PUSH2 0x317 JUMP JUMPDEST SWAP5 SWAP8 SWAP1 SWAP7 POP SWAP4 SWAP5 POP POP POP POP JUMP JUMPDEST PUSH1 0x0 DUP1 PUSH1 0x20 DUP4 DUP6 SUB SLT ISZERO PUSH2 0x3BF JUMPI PUSH1 0x0 DUP1 REVERT JUMPDEST DUP3 CALLDATALOAD PUSH8 0xFFFFFFFFFFFFFFFF DUP2 GT ISZERO PUSH2 0x3D6 JUMPI PUSH1 0x0 DUP1 REVERT JUMPDEST PUSH2 0x3E2 DUP6 DUP3 DUP7 ADD PUSH2 0x317 JUMP JUMPDEST SWAP1 SWAP7 SWAP1 SWAP6 POP SWAP4 POP POP POP POP JUMP JUMPDEST PUSH1 0x0 PUSH1 0x20 DUP3 DUP5 SUB SLT ISZERO PUSH2 0x400 JUMPI PUSH1 0x0 DUP1 REVERT JUMPDEST POP CALLDATALOAD SWAP2 SWAP1 POP JUMP JUMPDEST PUSH1 0x1 PUSH1 0x1 PUSH1 0xA0 SHL SUB DUP10 DUP2 AND DUP3 MSTORE PUSH1 0x20 DUP3 ADD DUP10 SWAP1 MSTORE DUP8 DUP2 AND PUSH1 0x40 DUP4 ADD MSTORE DUP7 DUP2 AND PUSH1 0x60 DUP4 ADD MSTORE DUP6 AND PUSH1 0x80 DUP3 ADD MSTORE PUSH1 0x1 PUSH1 0x1 PUSH1 0xE0 SHL SUB NOT DUP5 AND PUSH1 0xA0 DUP3 ADD MSTORE PUSH1 0xE0 PUSH1 0xC0 DUP3 ADD DUP2 SWAP1 MSTORE DUP2 ADD DUP3 SWAP1 MSTORE PUSH1 0x0 PUSH2 0x100 DUP4 DUP6 DUP3 DUP6 ADD CALLDATACOPY PUSH1 0x0 DUP4 DUP6 ADD DUP3 ADD MSTORE PUSH1 0x1F SWAP1 SWAP4 ADD PUSH1 0x1F NOT AND SWAP1 SWAP2 ADD SWAP1 SWAP2 ADD SWAP9 SWAP8 POP POP POP POP POP POP POP POP JUMP JUMPDEST PUSH1 0x0 PUSH1 0x20 DUP3 DUP5 SUB SLT ISZERO PUSH2 0x490 JUMPI PUSH1 0x0 DUP1 REVERT JUMPDEST POP MLOAD SWAP2 SWAP1 POP JUMP INVALID LOG2 PUSH5 0x6970667358 0x22 SLT KECCAK256 0x22 0xEE 0xBE EXTCODECOPY 0xC2 NOT 0x2E 0xC5 ORIGIN PUSH14 0x40956A29ED618991CB753825DE7D 0xAA 0xCB 0x2F 0xA5 PUSH5 0xD265366473 PUSH16 0x6C634300081200330000000000000000 "
		},
		"gasEstimates": {
			"creation": {
				"codeDepositCost": "245800",
				"executionCost": "infinite",
				"totalCost": "infinite"
			},
			"external": {
				"airnode()": "2326",
				"airnodeRrp()": "infinite",
				"endpointId()": "2340",
				"fulfill(bytes32,bytes)": "infinite",
				"latestResponse()": "2317",
				"makeRequest(bytes)": "infinite",
				"setAirnodeDetails(address,bytes32,address)": "infinite",
				"sponsorWallet()": "2370"
			}
		},
		"methodIdentifiers": {
			"airnode()": "a36ff4d8",
			"airnodeRrp()": "71bab666",
			"endpointId()": "77e20df8",
			"fulfill(bytes32,bytes)": "7c1de7e1",
			"latestResponse()": "bef3a2f0",
			"makeRequest(bytes)": "cf2e958a",
			"setAirnodeDetails(address,bytes32,address)": "4daff67e",
			"sponsorWallet()": "bf90fb4e"
		}
	},
	"abi": [
		{
			"inputs": [
				{
					"internalType": "address",
					"name": "_airnodeRrp",
					"type": "address"
				}
			],
			"stateMutability": "nonpayable",
			"type": "constructor"
		},
		{
			"inputs": [],
			"name": "airnode",
			"outputs": [
				{
					"internalType": "address",
					"name": "",
					"type": "address"
				}
			],
			"stateMutability": "view",
			"type": "function"
		},
		{
			"inputs": [],
			"name": "airnodeRrp",
			"outputs": [
				{
					"internalType": "contract IAirnodeRrpV0",
					"name": "",
					"type": "address"
				}
			],
			"stateMutability": "view",
			"type": "function"
		},
		{
			"inputs": [],
			"name": "endpointId",
			"outputs": [
				{
					"internalType": "bytes32",
					"name": "",
					"type": "bytes32"
				}
			],
			"stateMutability": "view",
			"type": "function"
		},
		{
			"inputs": [
				{
					"internalType": "bytes32",
					"name": "requestId",
					"type": "bytes32"
				},
				{
					"internalType": "bytes",
					"name": "data",
					"type": "bytes"
				}
			],
			"name": "fulfill",
			"outputs": [],
			"stateMutability": "nonpayable",
			"type": "function"
		},
		{
			"inputs": [],
			"name": "latestResponse",
			"outputs": [
				{
					"internalType": "uint256",
					"name": "",
					"type": "uint256"
				}
			],
			"stateMutability": "view",
			"type": "function"
		},
		{
			"inputs": [
				{
					"internalType": "bytes",
					"name": "parameters",
					"type": "bytes"
				}
			],
			"name": "makeRequest",
			"outputs": [],
			"stateMutability": "nonpayable",
			"type": "function"
		},
		{
			"inputs": [
				{
					"internalType": "address",
					"name": "_airnode",
					"type": "address"
				},
				{
					"internalType": "bytes32",
					"name": "_endpointId",
					"type": "bytes32"
				},
				{
					"internalType": "address",
					"name": "_sponsorWallet",
					"type": "address"
				}
			],
			"name": "setAirnodeDetails",
			"outputs": [],
			"stateMutability": "nonpayable",
			"type": "function"
		},
		{
			"inputs": [],
			"name": "sponsorWallet",
			"outputs": [
				{
					"internalType": "address",
					"name": "",
					"type": "address"
				}
			],
			"stateMutability": "view",
			"type": "function"
		}
	]
}