{
	"insurance contract/insurance.sol": {
		"Insurance": {
			"abi": [
				{
					"anonymous": false,
					"inputs": [
						{
							"indexed": true,
							"internalType": "address",
							"name": "insured",
							"type": "address"
						},
						{
							"indexed": false,
							"internalType": "string",
							"name": "policyName",
							"type": "string"
						},
						{
							"indexed": false,
							"internalType": "uint256",
							"name": "premium",
							"type": "uint256"
						},
						{
							"indexed": false,
							"internalType": "uint256",
							"name": "coverageAmount",
							"type": "uint256"
						}
					],
					"name": "PolicyCreated",
					"type": "event"
				},
				{
					"inputs": [
						{
							"internalType": "string",
							"name": "_policyName",
							"type": "string"
						},
						{
							"internalType": "uint256",
							"name": "_premium",
							"type": "uint256"
						},
						{
							"internalType": "uint256",
							"name": "_coverageAmount",
							"type": "uint256"
						}
					],
					"name": "createPolicy",
					"outputs": [],
					"stateMutability": "nonpayable",
					"type": "function"
				},
				{
					"inputs": [],
					"name": "getPolicies",
					"outputs": [
						{
							"components": [
								{
									"internalType": "string",
									"name": "policyName",
									"type": "string"
								},
								{
									"internalType": "uint256",
									"name": "premium",
									"type": "uint256"
								},
								{
									"internalType": "uint256",
									"name": "coverageAmount",
									"type": "uint256"
								},
								{
									"internalType": "bool",
									"name": "isActive",
									"type": "bool"
								}
							],
							"internalType": "struct Insurance.Policy[]",
							"name": "",
							"type": "tuple[]"
						}
					],
					"stateMutability": "view",
					"type": "function"
				},
				{
					"inputs": [
						{
							"internalType": "address",
							"name": "",
							"type": "address"
						},
						{
							"internalType": "uint256",
							"name": "",
							"type": "uint256"
						}
					],
					"name": "policies",
					"outputs": [
						{
							"internalType": "string",
							"name": "policyName",
							"type": "string"
						},
						{
							"internalType": "uint256",
							"name": "premium",
							"type": "uint256"
						},
						{
							"internalType": "uint256",
							"name": "coverageAmount",
							"type": "uint256"
						},
						{
							"internalType": "bool",
							"name": "isActive",
							"type": "bool"
						}
					],
					"stateMutability": "view",
					"type": "function"
				}
			],
			"devdoc": {
				"kind": "dev",
				"methods": {},
				"version": 1
			},
			"evm": {
				"assembly": "    /* \"insurance contract/insurance.sol\":96:2224  contract Insurance {... */\n  mstore(0x40, 0x80)\n  callvalue\n  dup1\n  iszero\n  tag_1\n  jumpi\n  0x00\n  dup1\n  revert\ntag_1:\n  pop\n  dataSize(sub_0)\n  dup1\n  dataOffset(sub_0)\n  0x00\n  codecopy\n  0x00\n  return\nstop\n\nsub_0: assembly {\n        /* \"insurance contract/insurance.sol\":96:2224  contract Insurance {... */\n      mstore(0x40, 0x80)\n      callvalue\n      dup1\n      iszero\n      tag_1\n      jumpi\n      0x00\n      dup1\n      revert\n    tag_1:\n      pop\n      jumpi(tag_2, lt(calldatasize, 0x04))\n      shr(0xe0, calldataload(0x00))\n      dup1\n      0x3b04f6f1\n      eq\n      tag_3\n      jumpi\n      dup1\n      0x90b4f12b\n      eq\n      tag_4\n      jumpi\n      dup1\n      0xe93b2a34\n      eq\n      tag_5\n      jumpi\n    tag_2:\n      0x00\n      dup1\n      revert\n        /* \"insurance contract/insurance.sol\":2035:2221  function getPolicies() public view returns (Policy[] memory) {... */\n    tag_3:\n      tag_6\n      tag_7\n      jump\t// in\n    tag_6:\n      mload(0x40)\n      tag_8\n      swap2\n      swap1\n      tag_9\n      jump\t// in\n    tag_8:\n      mload(0x40)\n      dup1\n      swap2\n      sub\n      swap1\n      return\n        /* \"insurance contract/insurance.sol\":658:702  mapping(address => Policy[]) public policies */\n    tag_4:\n      tag_10\n      tag_11\n      calldatasize\n      0x04\n      tag_12\n      jump\t// in\n    tag_11:\n      tag_13\n      jump\t// in\n    tag_10:\n      mload(0x40)\n      tag_8\n      swap5\n      swap4\n      swap3\n      swap2\n      swap1\n      tag_15\n      jump\t// in\n        /* \"insurance contract/insurance.sol\":1132:1917  function createPolicy(string memory _policyName, uint256 _premium, uint256 _coverageAmount) public {... */\n    tag_5:\n      tag_16\n      tag_17\n      calldatasize\n      0x04\n      tag_18\n      jump\t// in\n    tag_17:\n      tag_19\n      jump\t// in\n    tag_16:\n      stop\n        /* \"insurance contract/insurance.sol\":2035:2221  function getPolicies() public view returns (Policy[] memory) {... */\n    tag_7:\n        /* \"insurance contract/insurance.sol\":2202:2212  msg.sender */\n      caller\n        /* \"insurance contract/insurance.sol\":2193:2201  policies */\n      0x00\n        /* \"insurance contract/insurance.sol\":2193:2213  policies[msg.sender] */\n      swap1\n      dup2\n      mstore\n      0x20\n      dup2\n      dup2\n      mstore\n      0x40\n      dup1\n      dup4\n      keccak256\n        /* \"insurance contract/insurance.sol\":2186:2213  return policies[msg.sender] */\n      dup1\n      sload\n      dup3\n      mload\n      dup2\n      dup6\n      mul\n      dup2\n      add\n      dup6\n      add\n      swap1\n      swap4\n      mstore\n      dup1\n      dup4\n      mstore\n        /* \"insurance contract/insurance.sol\":2079:2094  Policy[] memory */\n      0x60\n      swap5\n        /* \"insurance contract/insurance.sol\":2186:2213  return policies[msg.sender] */\n      swap3\n      swap4\n        /* \"insurance contract/insurance.sol\":2193:2213  policies[msg.sender] */\n      swap2\n      swap3\n        /* \"insurance contract/insurance.sol\":2186:2213  return policies[msg.sender] */\n      swap1\n      swap2\n      dup5\n      add\n    tag_21:\n      dup3\n      dup3\n      lt\n      iszero\n      tag_22\n      jumpi\n      dup4\n      dup3\n      swap1\n      0x00\n      mstore\n      keccak256(0x00, 0x20)\n      swap1\n      0x04\n      mul\n      add\n      mload(0x40)\n      dup1\n      0x80\n      add\n      0x40\n      mstore\n      swap1\n      dup2\n      0x00\n      dup3\n      add\n      dup1\n      sload\n      tag_24\n      swap1\n      tag_25\n      jump\t// in\n    tag_24:\n      dup1\n      0x1f\n      add\n      0x20\n      dup1\n      swap2\n      div\n      mul\n      0x20\n      add\n      mload(0x40)\n      swap1\n      dup2\n      add\n      0x40\n      mstore\n      dup1\n      swap3\n      swap2\n      swap1\n      dup2\n      dup2\n      mstore\n      0x20\n      add\n      dup3\n      dup1\n      sload\n      tag_26\n      swap1\n      tag_25\n      jump\t// in\n    tag_26:\n      dup1\n      iszero\n      tag_27\n      jumpi\n      dup1\n      0x1f\n      lt\n      tag_28\n      jumpi\n      0x0100\n      dup1\n      dup4\n      sload\n      div\n      mul\n      dup4\n      mstore\n      swap2\n      0x20\n      add\n      swap2\n      jump(tag_27)\n    tag_28:\n      dup3\n      add\n      swap2\n      swap1\n      0x00\n      mstore\n      keccak256(0x00, 0x20)\n      swap1\n    tag_29:\n      dup2\n      sload\n      dup2\n      mstore\n      swap1\n      0x01\n      add\n      swap1\n      0x20\n      add\n      dup1\n      dup4\n      gt\n      tag_29\n      jumpi\n      dup3\n      swap1\n      sub\n      0x1f\n      and\n      dup3\n      add\n      swap2\n    tag_27:\n      pop\n      pop\n      pop\n      swap2\n      dup4\n      mstore\n      pop\n      pop\n      0x01\n      dup3\n      dup2\n      add\n      sload\n      0x20\n      dup1\n      dup5\n      add\n      swap2\n      swap1\n      swap2\n      mstore\n      0x02\n      dup5\n      add\n      sload\n      0x40\n      dup5\n      add\n      mstore\n      0x03\n      swap1\n      swap4\n      add\n      sload\n      0xff\n      and\n      iszero\n      iszero\n      0x60\n      swap1\n      swap3\n      add\n      swap2\n      swap1\n      swap2\n      mstore\n      swap2\n      dup4\n      mstore\n      swap3\n      add\n      swap2\n      add\n      jump(tag_21)\n    tag_22:\n      pop\n      pop\n      pop\n      pop\n      swap1\n      pop\n        /* \"insurance contract/insurance.sol\":2035:2221  function getPolicies() public view returns (Policy[] memory) {... */\n      swap1\n      jump\t// out\n        /* \"insurance contract/insurance.sol\":658:702  mapping(address => Policy[]) public policies */\n    tag_13:\n      mstore(0x20, 0x00)\n      dup2\n      0x00\n      mstore\n      keccak256(0x00, 0x40)\n      dup2\n      dup2\n      sload\n      dup2\n      lt\n      tag_30\n      jumpi\n      0x00\n      dup1\n      revert\n    tag_30:\n      swap1\n      0x00\n      mstore\n      keccak256(0x00, 0x20)\n      swap1\n      0x04\n      mul\n      add\n      0x00\n      swap2\n      pop\n      swap2\n      pop\n      pop\n      dup1\n      0x00\n      add\n      dup1\n      sload\n      tag_32\n      swap1\n      tag_25\n      jump\t// in\n    tag_32:\n      dup1\n      0x1f\n      add\n      0x20\n      dup1\n      swap2\n      div\n      mul\n      0x20\n      add\n      mload(0x40)\n      swap1\n      dup2\n      add\n      0x40\n      mstore\n      dup1\n      swap3\n      swap2\n      swap1\n      dup2\n      dup2\n      mstore\n      0x20\n      add\n      dup3\n      dup1\n      sload\n      tag_33\n      swap1\n      tag_25\n      jump\t// in\n    tag_33:\n      dup1\n      iszero\n      tag_34\n      jumpi\n      dup1\n      0x1f\n      lt\n      tag_35\n      jumpi\n      0x0100\n      dup1\n      dup4\n      sload\n      div\n      mul\n      dup4\n      mstore\n      swap2\n      0x20\n      add\n      swap2\n      jump(tag_34)\n    tag_35:\n      dup3\n      add\n      swap2\n      swap1\n      0x00\n      mstore\n      keccak256(0x00, 0x20)\n      swap1\n    tag_36:\n      dup2\n      sload\n      dup2\n      mstore\n      swap1\n      0x01\n      add\n      swap1\n      0x20\n      add\n      dup1\n      dup4\n      gt\n      tag_36\n      jumpi\n      dup3\n      swap1\n      sub\n      0x1f\n      and\n      dup3\n      add\n      swap2\n    tag_34:\n      pop\n      pop\n      pop\n      pop\n      0x01\n      dup4\n      add\n      sload\n      0x02\n      dup5\n      add\n      sload\n      0x03\n      swap1\n      swap5\n      add\n      sload\n      swap3\n      swap4\n      swap1\n      swap3\n      swap1\n      swap2\n      pop\n      0xff\n      and\n      dup5\n      jump\t// out\n        /* \"insurance contract/insurance.sol\":1132:1917  function createPolicy(string memory _policyName, uint256 _premium, uint256 _coverageAmount) public {... */\n    tag_19:\n        /* \"insurance contract/insurance.sol\":1330:1625  Policy({... */\n      0x40\n      dup1\n      mload\n      0x80\n      dup2\n      add\n      dup3\n      mstore\n      dup5\n      dup2\n      mstore\n      0x20\n      dup1\n      dup3\n      add\n      dup6\n      swap1\n      mstore\n      dup2\n      dup4\n      add\n      dup5\n      swap1\n      mstore\n        /* \"insurance contract/insurance.sol\":1557:1561  true */\n      0x01\n        /* \"insurance contract/insurance.sol\":1330:1625  Policy({... */\n      0x60\n      dup4\n      add\n      dup2\n      swap1\n      mstore\n        /* \"insurance contract/insurance.sol\":1735:1745  msg.sender */\n      caller\n        /* \"insurance contract/insurance.sol\":1304:1327  Policy memory newPolicy */\n      0x00\n        /* \"insurance contract/insurance.sol\":1726:1746  policies[msg.sender] */\n      swap1\n      dup2\n      mstore\n      dup1\n      dup4\n      mstore\n      swap4\n      dup5\n      keccak256\n        /* \"insurance contract/insurance.sol\":1726:1762  policies[msg.sender].push(newPolicy) */\n      dup1\n      sload\n      swap2\n      dup3\n      add\n      dup2\n      sstore\n      dup5\n      mstore\n      swap3\n      keccak256\n      dup2\n      mload\n        /* \"insurance contract/insurance.sol\":1330:1625  Policy({... */\n      swap2\n      swap3\n      dup4\n      swap3\n        /* \"insurance contract/insurance.sol\":1726:1762  policies[msg.sender].push(newPolicy) */\n      0x04\n      swap1\n      swap2\n      mul\n      swap1\n      swap2\n      add\n      swap1\n      dup2\n      swap1\n      tag_39\n      swap1\n      dup3\n      tag_40\n      jump\t// in\n    tag_39:\n      pop\n      0x20\n      dup3\n      add\n      mload\n      0x01\n      dup3\n      add\n      sstore\n      0x40\n      dup1\n      dup4\n      add\n      mload\n      0x02\n      dup4\n      add\n      sstore\n      0x60\n      swap1\n      swap3\n      add\n      mload\n      0x03\n      swap1\n      swap2\n      add\n      dup1\n      sload\n      not(0xff)\n      and\n      swap2\n      iszero\n      iszero\n      swap2\n      swap1\n      swap2\n      or\n      swap1\n      sstore\n        /* \"insurance contract/insurance.sol\":1844:1909  PolicyCreated(msg.sender, _policyName, _premium, _coverageAmount) */\n      mload\n        /* \"insurance contract/insurance.sol\":1858:1868  msg.sender */\n      caller\n      swap1\n        /* \"insurance contract/insurance.sol\":1844:1909  PolicyCreated(msg.sender, _policyName, _premium, _coverageAmount) */\n      0x12eb7199c42b72f63cf254b78178ae5c55e9f28e0d54817eac684b6af020222b\n      swap1\n      tag_41\n      swap1\n        /* \"insurance contract/insurance.sol\":1870:1881  _policyName */\n      dup8\n      swap1\n        /* \"insurance contract/insurance.sol\":1883:1891  _premium */\n      dup8\n      swap1\n        /* \"insurance contract/insurance.sol\":1893:1908  _coverageAmount */\n      dup8\n      swap1\n        /* \"insurance contract/insurance.sol\":1844:1909  PolicyCreated(msg.sender, _policyName, _premium, _coverageAmount) */\n      tag_42\n      jump\t// in\n    tag_41:\n      mload(0x40)\n      dup1\n      swap2\n      sub\n      swap1\n      log2\n        /* \"insurance contract/insurance.sol\":1231:1917  {... */\n      pop\n        /* \"insurance contract/insurance.sol\":1132:1917  function createPolicy(string memory _policyName, uint256 _premium, uint256 _coverageAmount) public {... */\n      pop\n      pop\n      pop\n      jump\t// out\n        /* \"#utility.yul\":14:437   */\n    tag_43:\n        /* \"#utility.yul\":56:59   */\n      0x00\n        /* \"#utility.yul\":94:99   */\n      dup2\n        /* \"#utility.yul\":88:100   */\n      mload\n        /* \"#utility.yul\":121:127   */\n      dup1\n        /* \"#utility.yul\":116:119   */\n      dup5\n        /* \"#utility.yul\":109:128   */\n      mstore\n        /* \"#utility.yul\":146:147   */\n      0x00\n        /* \"#utility.yul\":156:318   */\n    tag_50:\n        /* \"#utility.yul\":170:176   */\n      dup2\n        /* \"#utility.yul\":167:168   */\n      dup2\n        /* \"#utility.yul\":164:177   */\n      lt\n        /* \"#utility.yul\":156:318   */\n      iszero\n      tag_52\n      jumpi\n        /* \"#utility.yul\":232:236   */\n      0x20\n        /* \"#utility.yul\":288:301   */\n      dup2\n      dup6\n      add\n        /* \"#utility.yul\":284:306   */\n      dup2\n      add\n        /* \"#utility.yul\":278:307   */\n      mload\n        /* \"#utility.yul\":260:271   */\n      dup7\n      dup4\n      add\n        /* \"#utility.yul\":256:276   */\n      dup3\n      add\n        /* \"#utility.yul\":249:308   */\n      mstore\n        /* \"#utility.yul\":185:197   */\n      add\n        /* \"#utility.yul\":156:318   */\n      jump(tag_50)\n    tag_52:\n        /* \"#utility.yul\":160:163   */\n      pop\n        /* \"#utility.yul\":363:364   */\n      0x00\n        /* \"#utility.yul\":356:360   */\n      0x20\n        /* \"#utility.yul\":347:353   */\n      dup3\n        /* \"#utility.yul\":342:345   */\n      dup7\n        /* \"#utility.yul\":338:354   */\n      add\n        /* \"#utility.yul\":334:361   */\n      add\n        /* \"#utility.yul\":327:365   */\n      mstore\n        /* \"#utility.yul\":426:430   */\n      0x20\n        /* \"#utility.yul\":419:421   */\n      0x1f\n        /* \"#utility.yul\":415:422   */\n      not\n        /* \"#utility.yul\":410:412   */\n      0x1f\n        /* \"#utility.yul\":402:408   */\n      dup4\n        /* \"#utility.yul\":398:413   */\n      add\n        /* \"#utility.yul\":394:423   */\n      and\n        /* \"#utility.yul\":389:392   */\n      dup6\n        /* \"#utility.yul\":385:424   */\n      add\n        /* \"#utility.yul\":381:431   */\n      add\n        /* \"#utility.yul\":374:431   */\n      swap2\n      pop\n      pop\n        /* \"#utility.yul\":14:437   */\n      swap3\n      swap2\n      pop\n      pop\n      jump\t// out\n        /* \"#utility.yul\":442:1678   */\n    tag_9:\n        /* \"#utility.yul\":628:632   */\n      0x00\n        /* \"#utility.yul\":657:659   */\n      0x20\n        /* \"#utility.yul\":697:699   */\n      dup1\n        /* \"#utility.yul\":686:695   */\n      dup4\n        /* \"#utility.yul\":682:700   */\n      add\n        /* \"#utility.yul\":727:729   */\n      dup2\n        /* \"#utility.yul\":716:725   */\n      dup5\n        /* \"#utility.yul\":709:730   */\n      mstore\n        /* \"#utility.yul\":750:756   */\n      dup1\n        /* \"#utility.yul\":785:791   */\n      dup6\n        /* \"#utility.yul\":779:792   */\n      mload\n        /* \"#utility.yul\":816:822   */\n      dup1\n        /* \"#utility.yul\":808:814   */\n      dup4\n        /* \"#utility.yul\":801:823   */\n      mstore\n        /* \"#utility.yul\":842:844   */\n      0x40\n        /* \"#utility.yul\":832:844   */\n      swap3\n      pop\n        /* \"#utility.yul\":875:877   */\n      dup3\n        /* \"#utility.yul\":864:873   */\n      dup7\n        /* \"#utility.yul\":860:878   */\n      add\n        /* \"#utility.yul\":853:878   */\n      swap2\n      pop\n        /* \"#utility.yul\":937:939   */\n      dup3\n        /* \"#utility.yul\":927:933   */\n      dup2\n        /* \"#utility.yul\":924:925   */\n      0x05\n        /* \"#utility.yul\":920:934   */\n      shl\n        /* \"#utility.yul\":909:918   */\n      dup8\n        /* \"#utility.yul\":905:935   */\n      add\n        /* \"#utility.yul\":901:940   */\n      add\n        /* \"#utility.yul\":975:977   */\n      dup5\n        /* \"#utility.yul\":967:973   */\n      dup9\n        /* \"#utility.yul\":963:978   */\n      add\n        /* \"#utility.yul\":996:997   */\n      0x00\n        /* \"#utility.yul\":1006:1649   */\n    tag_54:\n        /* \"#utility.yul\":1020:1026   */\n      dup4\n        /* \"#utility.yul\":1017:1018   */\n      dup2\n        /* \"#utility.yul\":1014:1027   */\n      lt\n        /* \"#utility.yul\":1006:1649   */\n      iszero\n      tag_56\n      jumpi\n        /* \"#utility.yul\":1113:1115   */\n      0x3f\n        /* \"#utility.yul\":1109:1116   */\n      not\n        /* \"#utility.yul\":1097:1106   */\n      dup10\n        /* \"#utility.yul\":1089:1095   */\n      dup5\n        /* \"#utility.yul\":1085:1107   */\n      sub\n        /* \"#utility.yul\":1081:1117   */\n      add\n        /* \"#utility.yul\":1076:1079   */\n      dup6\n        /* \"#utility.yul\":1069:1118   */\n      mstore\n        /* \"#utility.yul\":1147:1153   */\n      dup2\n        /* \"#utility.yul\":1141:1154   */\n      mload\n        /* \"#utility.yul\":1177:1181   */\n      0x80\n        /* \"#utility.yul\":1220:1222   */\n      dup2\n        /* \"#utility.yul\":1214:1223   */\n      mload\n        /* \"#utility.yul\":1251:1253   */\n      dup2\n        /* \"#utility.yul\":1243:1249   */\n      dup7\n        /* \"#utility.yul\":1236:1254   */\n      mstore\n        /* \"#utility.yul\":1281:1329   */\n      tag_57\n        /* \"#utility.yul\":1325:1327   */\n      dup3\n        /* \"#utility.yul\":1317:1323   */\n      dup8\n        /* \"#utility.yul\":1313:1328   */\n      add\n        /* \"#utility.yul\":1299:1311   */\n      dup3\n        /* \"#utility.yul\":1281:1329   */\n      tag_43\n      jump\t// in\n    tag_57:\n        /* \"#utility.yul\":1372:1383   */\n      dup4\n      dup12\n      add\n        /* \"#utility.yul\":1366:1384   */\n      mload\n        /* \"#utility.yul\":1349:1364   */\n      dup8\n      dup13\n      add\n        /* \"#utility.yul\":1342:1385   */\n      mstore\n        /* \"#utility.yul\":1428:1439   */\n      dup10\n      dup5\n      add\n        /* \"#utility.yul\":1422:1440   */\n      mload\n        /* \"#utility.yul\":1405:1420   */\n      dup11\n      dup9\n      add\n        /* \"#utility.yul\":1398:1441   */\n      mstore\n        /* \"#utility.yul\":1464:1468   */\n      0x60\n        /* \"#utility.yul\":1525:1536   */\n      swap4\n      dup5\n      add\n        /* \"#utility.yul\":1519:1537   */\n      mload\n        /* \"#utility.yul\":1512:1538   */\n      iszero\n        /* \"#utility.yul\":1505:1539   */\n      iszero\n        /* \"#utility.yul\":1488:1503   */\n      swap4\n      swap1\n      swap7\n      add\n        /* \"#utility.yul\":1481:1540   */\n      swap3\n      swap1\n      swap3\n      mstore\n      pop\n      pop\n        /* \"#utility.yul\":1627:1639   */\n      swap4\n      dup7\n      add\n      swap4\n        /* \"#utility.yul\":1592:1607   */\n      swap1\n      dup7\n      add\n      swap1\n        /* \"#utility.yul\":1042:1043   */\n      0x01\n        /* \"#utility.yul\":1035:1044   */\n      add\n        /* \"#utility.yul\":1006:1649   */\n      jump(tag_54)\n    tag_56:\n      pop\n        /* \"#utility.yul\":1666:1672   */\n      swap1\n      swap9\n        /* \"#utility.yul\":442:1678   */\n      swap8\n      pop\n      pop\n      pop\n      pop\n      pop\n      pop\n      pop\n      pop\n      jump\t// out\n        /* \"#utility.yul\":1683:2037   */\n    tag_12:\n        /* \"#utility.yul\":1751:1757   */\n      0x00\n        /* \"#utility.yul\":1759:1765   */\n      dup1\n        /* \"#utility.yul\":1812:1814   */\n      0x40\n        /* \"#utility.yul\":1800:1809   */\n      dup4\n        /* \"#utility.yul\":1791:1798   */\n      dup6\n        /* \"#utility.yul\":1787:1810   */\n      sub\n        /* \"#utility.yul\":1783:1815   */\n      slt\n        /* \"#utility.yul\":1780:1832   */\n      iszero\n      tag_59\n      jumpi\n        /* \"#utility.yul\":1828:1829   */\n      0x00\n        /* \"#utility.yul\":1825:1826   */\n      dup1\n        /* \"#utility.yul\":1818:1830   */\n      revert\n        /* \"#utility.yul\":1780:1832   */\n    tag_59:\n        /* \"#utility.yul\":1854:1877   */\n      dup3\n      calldataload\n      sub(shl(0xa0, 0x01), 0x01)\n        /* \"#utility.yul\":1906:1937   */\n      dup2\n      and\n        /* \"#utility.yul\":1896:1938   */\n      dup2\n      eq\n        /* \"#utility.yul\":1886:1956   */\n      tag_60\n      jumpi\n        /* \"#utility.yul\":1952:1953   */\n      0x00\n        /* \"#utility.yul\":1949:1950   */\n      dup1\n        /* \"#utility.yul\":1942:1954   */\n      revert\n        /* \"#utility.yul\":1886:1956   */\n    tag_60:\n        /* \"#utility.yul\":1975:1980   */\n      swap5\n        /* \"#utility.yul\":2027:2029   */\n      0x20\n        /* \"#utility.yul\":2012:2030   */\n      swap4\n      swap1\n      swap4\n      add\n        /* \"#utility.yul\":1999:2031   */\n      calldataload\n      swap4\n      pop\n      pop\n      pop\n        /* \"#utility.yul\":1683:2037   */\n      jump\t// out\n        /* \"#utility.yul\":2042:2487   */\n    tag_15:\n        /* \"#utility.yul\":2269:2272   */\n      0x80\n        /* \"#utility.yul\":2258:2267   */\n      dup2\n        /* \"#utility.yul\":2251:2273   */\n      mstore\n        /* \"#utility.yul\":2232:2236   */\n      0x00\n        /* \"#utility.yul\":2290:2336   */\n      tag_62\n        /* \"#utility.yul\":2331:2334   */\n      0x80\n        /* \"#utility.yul\":2320:2329   */\n      dup4\n        /* \"#utility.yul\":2316:2335   */\n      add\n        /* \"#utility.yul\":2308:2314   */\n      dup8\n        /* \"#utility.yul\":2290:2336   */\n      tag_43\n      jump\t// in\n    tag_62:\n        /* \"#utility.yul\":2367:2369   */\n      0x20\n        /* \"#utility.yul\":2352:2370   */\n      dup4\n      add\n        /* \"#utility.yul\":2345:2379   */\n      swap6\n      swap1\n      swap6\n      mstore\n      pop\n        /* \"#utility.yul\":2410:2412   */\n      0x40\n        /* \"#utility.yul\":2395:2413   */\n      dup2\n      add\n        /* \"#utility.yul\":2388:2422   */\n      swap3\n      swap1\n      swap3\n      mstore\n        /* \"#utility.yul\":2465:2479   */\n      iszero\n        /* \"#utility.yul\":2458:2480   */\n      iszero\n        /* \"#utility.yul\":2453:2455   */\n      0x60\n        /* \"#utility.yul\":2438:2456   */\n      swap1\n      swap2\n      add\n        /* \"#utility.yul\":2431:2481   */\n      mstore\n        /* \"#utility.yul\":2282:2336   */\n      swap2\n        /* \"#utility.yul\":2042:2487   */\n      swap1\n      pop\n      jump\t// out\n        /* \"#utility.yul\":2492:2619   */\n    tag_44:\n        /* \"#utility.yul\":2553:2563   */\n      0x4e487b71\n        /* \"#utility.yul\":2548:2551   */\n      0xe0\n        /* \"#utility.yul\":2544:2564   */\n      shl\n        /* \"#utility.yul\":2541:2542   */\n      0x00\n        /* \"#utility.yul\":2534:2565   */\n      mstore\n        /* \"#utility.yul\":2584:2588   */\n      0x41\n        /* \"#utility.yul\":2581:2582   */\n      0x04\n        /* \"#utility.yul\":2574:2589   */\n      mstore\n        /* \"#utility.yul\":2608:2612   */\n      0x24\n        /* \"#utility.yul\":2605:2606   */\n      0x00\n        /* \"#utility.yul\":2598:2613   */\n      revert\n        /* \"#utility.yul\":2624:3692   */\n    tag_18:\n        /* \"#utility.yul\":2711:2717   */\n      0x00\n        /* \"#utility.yul\":2719:2725   */\n      dup1\n        /* \"#utility.yul\":2727:2733   */\n      0x00\n        /* \"#utility.yul\":2780:2782   */\n      0x60\n        /* \"#utility.yul\":2768:2777   */\n      dup5\n        /* \"#utility.yul\":2759:2766   */\n      dup7\n        /* \"#utility.yul\":2755:2778   */\n      sub\n        /* \"#utility.yul\":2751:2783   */\n      slt\n        /* \"#utility.yul\":2748:2800   */\n      iszero\n      tag_65\n      jumpi\n        /* \"#utility.yul\":2796:2797   */\n      0x00\n        /* \"#utility.yul\":2793:2794   */\n      dup1\n        /* \"#utility.yul\":2786:2798   */\n      revert\n        /* \"#utility.yul\":2748:2800   */\n    tag_65:\n        /* \"#utility.yul\":2836:2845   */\n      dup4\n        /* \"#utility.yul\":2823:2846   */\n      calldataload\n        /* \"#utility.yul\":2865:2883   */\n      0xffffffffffffffff\n        /* \"#utility.yul\":2906:2908   */\n      dup1\n        /* \"#utility.yul\":2898:2904   */\n      dup3\n        /* \"#utility.yul\":2895:2909   */\n      gt\n        /* \"#utility.yul\":2892:2926   */\n      iszero\n      tag_66\n      jumpi\n        /* \"#utility.yul\":2922:2923   */\n      0x00\n        /* \"#utility.yul\":2919:2920   */\n      dup1\n        /* \"#utility.yul\":2912:2924   */\n      revert\n        /* \"#utility.yul\":2892:2926   */\n    tag_66:\n        /* \"#utility.yul\":2960:2966   */\n      dup2\n        /* \"#utility.yul\":2949:2958   */\n      dup7\n        /* \"#utility.yul\":2945:2967   */\n      add\n        /* \"#utility.yul\":2935:2967   */\n      swap2\n      pop\n        /* \"#utility.yul\":3005:3012   */\n      dup7\n        /* \"#utility.yul\":2998:3002   */\n      0x1f\n        /* \"#utility.yul\":2994:2996   */\n      dup4\n        /* \"#utility.yul\":2990:3003   */\n      add\n        /* \"#utility.yul\":2986:3013   */\n      slt\n        /* \"#utility.yul\":2976:3031   */\n      tag_67\n      jumpi\n        /* \"#utility.yul\":3027:3028   */\n      0x00\n        /* \"#utility.yul\":3024:3025   */\n      dup1\n        /* \"#utility.yul\":3017:3029   */\n      revert\n        /* \"#utility.yul\":2976:3031   */\n    tag_67:\n        /* \"#utility.yul\":3063:3065   */\n      dup2\n        /* \"#utility.yul\":3050:3066   */\n      calldataload\n        /* \"#utility.yul\":3085:3087   */\n      dup2\n        /* \"#utility.yul\":3081:3083   */\n      dup2\n        /* \"#utility.yul\":3078:3088   */\n      gt\n        /* \"#utility.yul\":3075:3111   */\n      iszero\n      tag_69\n      jumpi\n        /* \"#utility.yul\":3091:3109   */\n      tag_69\n      tag_44\n      jump\t// in\n    tag_69:\n        /* \"#utility.yul\":3166:3168   */\n      0x40\n        /* \"#utility.yul\":3160:3169   */\n      mload\n        /* \"#utility.yul\":3134:3136   */\n      0x1f\n        /* \"#utility.yul\":3220:3233   */\n      dup3\n      add\n      not(0x1f)\n        /* \"#utility.yul\":3216:3238   */\n      swap1\n      dup2\n      and\n        /* \"#utility.yul\":3240:3242   */\n      0x3f\n        /* \"#utility.yul\":3212:3243   */\n      add\n        /* \"#utility.yul\":3208:3248   */\n      and\n        /* \"#utility.yul\":3196:3249   */\n      dup2\n      add\n      swap1\n        /* \"#utility.yul\":3264:3282   */\n      dup4\n      dup3\n      gt\n        /* \"#utility.yul\":3284:3306   */\n      dup2\n      dup4\n      lt\n        /* \"#utility.yul\":3261:3307   */\n      or\n        /* \"#utility.yul\":3258:3330   */\n      iszero\n      tag_71\n      jumpi\n        /* \"#utility.yul\":3310:3328   */\n      tag_71\n      tag_44\n      jump\t// in\n    tag_71:\n        /* \"#utility.yul\":3350:3360   */\n      dup2\n        /* \"#utility.yul\":3346:3348   */\n      0x40\n        /* \"#utility.yul\":3339:3361   */\n      mstore\n        /* \"#utility.yul\":3385:3387   */\n      dup3\n        /* \"#utility.yul\":3377:3383   */\n      dup2\n        /* \"#utility.yul\":3370:3388   */\n      mstore\n        /* \"#utility.yul\":3427:3434   */\n      dup10\n        /* \"#utility.yul\":3420:3424   */\n      0x20\n        /* \"#utility.yul\":3415:3417   */\n      dup5\n        /* \"#utility.yul\":3411:3413   */\n      dup8\n        /* \"#utility.yul\":3407:3418   */\n      add\n        /* \"#utility.yul\":3403:3425   */\n      add\n        /* \"#utility.yul\":3400:3435   */\n      gt\n        /* \"#utility.yul\":3397:3452   */\n      iszero\n      tag_72\n      jumpi\n        /* \"#utility.yul\":3448:3449   */\n      0x00\n        /* \"#utility.yul\":3445:3446   */\n      dup1\n        /* \"#utility.yul\":3438:3450   */\n      revert\n        /* \"#utility.yul\":3397:3452   */\n    tag_72:\n        /* \"#utility.yul\":3508:3510   */\n      dup3\n        /* \"#utility.yul\":3501:3505   */\n      0x20\n        /* \"#utility.yul\":3497:3499   */\n      dup7\n        /* \"#utility.yul\":3493:3506   */\n      add\n        /* \"#utility.yul\":3486:3490   */\n      0x20\n        /* \"#utility.yul\":3478:3484   */\n      dup4\n        /* \"#utility.yul\":3474:3491   */\n      add\n        /* \"#utility.yul\":3461:3511   */\n      calldatacopy\n        /* \"#utility.yul\":3555:3556   */\n      0x00\n        /* \"#utility.yul\":3548:3552   */\n      0x20\n        /* \"#utility.yul\":3543:3545   */\n      dup5\n        /* \"#utility.yul\":3535:3541   */\n      dup4\n        /* \"#utility.yul\":3531:3546   */\n      add\n        /* \"#utility.yul\":3527:3553   */\n      add\n        /* \"#utility.yul\":3520:3557   */\n      mstore\n        /* \"#utility.yul\":3576:3582   */\n      dup1\n        /* \"#utility.yul\":3566:3582   */\n      swap8\n      pop\n      pop\n      pop\n      pop\n      pop\n      pop\n        /* \"#utility.yul\":3629:3633   */\n      0x20\n        /* \"#utility.yul\":3618:3627   */\n      dup5\n        /* \"#utility.yul\":3614:3634   */\n      add\n        /* \"#utility.yul\":3601:3635   */\n      calldataload\n        /* \"#utility.yul\":3591:3635   */\n      swap2\n      pop\n        /* \"#utility.yul\":3682:3684   */\n      0x40\n        /* \"#utility.yul\":3671:3680   */\n      dup5\n        /* \"#utility.yul\":3667:3685   */\n      add\n        /* \"#utility.yul\":3654:3686   */\n      calldataload\n        /* \"#utility.yul\":3644:3686   */\n      swap1\n      pop\n        /* \"#utility.yul\":2624:3692   */\n      swap3\n      pop\n      swap3\n      pop\n      swap3\n      jump\t// out\n        /* \"#utility.yul\":3697:4077   */\n    tag_25:\n        /* \"#utility.yul\":3776:3777   */\n      0x01\n        /* \"#utility.yul\":3772:3784   */\n      dup2\n      dup2\n      shr\n      swap1\n        /* \"#utility.yul\":3819:3831   */\n      dup3\n      and\n      dup1\n        /* \"#utility.yul\":3840:3901   */\n      tag_74\n      jumpi\n        /* \"#utility.yul\":3894:3898   */\n      0x7f\n        /* \"#utility.yul\":3886:3892   */\n      dup3\n        /* \"#utility.yul\":3882:3899   */\n      and\n        /* \"#utility.yul\":3872:3899   */\n      swap2\n      pop\n        /* \"#utility.yul\":3840:3901   */\n    tag_74:\n        /* \"#utility.yul\":3947:3949   */\n      0x20\n        /* \"#utility.yul\":3939:3945   */\n      dup3\n        /* \"#utility.yul\":3936:3950   */\n      lt\n        /* \"#utility.yul\":3916:3934   */\n      dup2\n        /* \"#utility.yul\":3913:3951   */\n      sub\n        /* \"#utility.yul\":3910:4071   */\n      tag_75\n      jumpi\n        /* \"#utility.yul\":3993:4003   */\n      0x4e487b71\n        /* \"#utility.yul\":3988:3991   */\n      0xe0\n        /* \"#utility.yul\":3984:4004   */\n      shl\n        /* \"#utility.yul\":3981:3982   */\n      0x00\n        /* \"#utility.yul\":3974:4005   */\n      mstore\n        /* \"#utility.yul\":4028:4032   */\n      0x22\n        /* \"#utility.yul\":4025:4026   */\n      0x04\n        /* \"#utility.yul\":4018:4033   */\n      mstore\n        /* \"#utility.yul\":4056:4060   */\n      0x24\n        /* \"#utility.yul\":4053:4054   */\n      0x00\n        /* \"#utility.yul\":4046:4061   */\n      revert\n        /* \"#utility.yul\":3910:4071   */\n    tag_75:\n      pop\n        /* \"#utility.yul\":3697:4077   */\n      swap2\n      swap1\n      pop\n      jump\t// out\n        /* \"#utility.yul\":4208:4753   */\n    tag_46:\n        /* \"#utility.yul\":4310:4312   */\n      0x1f\n        /* \"#utility.yul\":4305:4308   */\n      dup3\n        /* \"#utility.yul\":4302:4313   */\n      gt\n        /* \"#utility.yul\":4299:4747   */\n      iszero\n      tag_78\n      jumpi\n        /* \"#utility.yul\":4346:4347   */\n      0x00\n        /* \"#utility.yul\":4371:4376   */\n      dup2\n        /* \"#utility.yul\":4367:4369   */\n      dup2\n        /* \"#utility.yul\":4360:4377   */\n      mstore\n        /* \"#utility.yul\":4416:4420   */\n      0x20\n        /* \"#utility.yul\":4412:4414   */\n      dup2\n        /* \"#utility.yul\":4402:4421   */\n      keccak256\n        /* \"#utility.yul\":4486:4488   */\n      0x1f\n        /* \"#utility.yul\":4474:4484   */\n      dup6\n        /* \"#utility.yul\":4470:4489   */\n      add\n        /* \"#utility.yul\":4467:4468   */\n      0x05\n        /* \"#utility.yul\":4463:4490   */\n      shr\n        /* \"#utility.yul\":4457:4461   */\n      dup2\n        /* \"#utility.yul\":4453:4491   */\n      add\n        /* \"#utility.yul\":4522:4526   */\n      0x20\n        /* \"#utility.yul\":4510:4520   */\n      dup7\n        /* \"#utility.yul\":4507:4527   */\n      lt\n        /* \"#utility.yul\":4504:4551   */\n      iszero\n      tag_79\n      jumpi\n      pop\n        /* \"#utility.yul\":4545:4549   */\n      dup1\n        /* \"#utility.yul\":4504:4551   */\n    tag_79:\n        /* \"#utility.yul\":4600:4602   */\n      0x1f\n        /* \"#utility.yul\":4595:4598   */\n      dup6\n        /* \"#utility.yul\":4591:4603   */\n      add\n        /* \"#utility.yul\":4588:4589   */\n      0x05\n        /* \"#utility.yul\":4584:4604   */\n      shr\n        /* \"#utility.yul\":4578:4582   */\n      dup3\n        /* \"#utility.yul\":4574:4605   */\n      add\n        /* \"#utility.yul\":4564:4605   */\n      swap2\n      pop\n        /* \"#utility.yul\":4655:4737   */\n    tag_80:\n        /* \"#utility.yul\":4673:4675   */\n      dup2\n        /* \"#utility.yul\":4666:4671   */\n      dup2\n        /* \"#utility.yul\":4663:4676   */\n      lt\n        /* \"#utility.yul\":4655:4737   */\n      iszero\n      tag_82\n      jumpi\n        /* \"#utility.yul\":4718:4735   */\n      dup3\n      dup2\n      sstore\n        /* \"#utility.yul\":4699:4700   */\n      0x01\n        /* \"#utility.yul\":4688:4701   */\n      add\n        /* \"#utility.yul\":4655:4737   */\n      jump(tag_80)\n    tag_82:\n        /* \"#utility.yul\":4659:4662   */\n      pop\n      pop\n      pop\n        /* \"#utility.yul\":4299:4747   */\n    tag_78:\n        /* \"#utility.yul\":4208:4753   */\n      pop\n      pop\n      pop\n      jump\t// out\n        /* \"#utility.yul\":4929:6281   */\n    tag_40:\n        /* \"#utility.yul\":5055:5058   */\n      dup2\n        /* \"#utility.yul\":5049:5059   */\n      mload\n        /* \"#utility.yul\":5082:5100   */\n      0xffffffffffffffff\n        /* \"#utility.yul\":5074:5080   */\n      dup2\n        /* \"#utility.yul\":5071:5101   */\n      gt\n        /* \"#utility.yul\":5068:5124   */\n      iszero\n      tag_86\n      jumpi\n        /* \"#utility.yul\":5104:5122   */\n      tag_86\n      tag_44\n      jump\t// in\n    tag_86:\n        /* \"#utility.yul\":5133:5230   */\n      tag_87\n        /* \"#utility.yul\":5223:5229   */\n      dup2\n        /* \"#utility.yul\":5183:5221   */\n      tag_88\n        /* \"#utility.yul\":5215:5219   */\n      dup5\n        /* \"#utility.yul\":5209:5220   */\n      sload\n        /* \"#utility.yul\":5183:5221   */\n      tag_25\n      jump\t// in\n    tag_88:\n        /* \"#utility.yul\":5177:5181   */\n      dup5\n        /* \"#utility.yul\":5133:5230   */\n      tag_46\n      jump\t// in\n    tag_87:\n        /* \"#utility.yul\":5285:5289   */\n      0x20\n      dup1\n        /* \"#utility.yul\":5349:5351   */\n      0x1f\n        /* \"#utility.yul\":5338:5352   */\n      dup4\n      gt\n        /* \"#utility.yul\":5366:5367   */\n      0x01\n        /* \"#utility.yul\":5361:6024   */\n      dup2\n      eq\n      tag_90\n      jumpi\n        /* \"#utility.yul\":6068:6069   */\n      0x00\n        /* \"#utility.yul\":6085:6091   */\n      dup5\n        /* \"#utility.yul\":6082:6171   */\n      iszero\n      tag_91\n      jumpi\n      pop\n        /* \"#utility.yul\":6137:6156   */\n      dup6\n      dup4\n      add\n        /* \"#utility.yul\":6131:6157   */\n      mload\n        /* \"#utility.yul\":6082:6171   */\n    tag_91:\n      not(0x00)\n        /* \"#utility.yul\":4886:4887   */\n      0x03\n        /* \"#utility.yul\":4882:4893   */\n      dup7\n      swap1\n      shl\n        /* \"#utility.yul\":4878:4902   */\n      shr\n        /* \"#utility.yul\":4874:4903   */\n      not\n        /* \"#utility.yul\":4864:4904   */\n      and\n        /* \"#utility.yul\":4910:4911   */\n      0x01\n        /* \"#utility.yul\":4906:4917   */\n      dup6\n      swap1\n      shl\n        /* \"#utility.yul\":4861:4918   */\n      or\n        /* \"#utility.yul\":6184:6265   */\n      dup6\n      sstore\n        /* \"#utility.yul\":5331:6275   */\n      jump(tag_82)\n        /* \"#utility.yul\":5361:6024   */\n    tag_90:\n        /* \"#utility.yul\":4155:4156   */\n      0x00\n        /* \"#utility.yul\":4148:4162   */\n      dup6\n      dup2\n      mstore\n        /* \"#utility.yul\":4192:4196   */\n      0x20\n        /* \"#utility.yul\":4179:4197   */\n      dup2\n      keccak256\n      not(0x1f)\n        /* \"#utility.yul\":5397:5417   */\n      dup7\n      and\n      swap2\n        /* \"#utility.yul\":5515:5751   */\n    tag_94:\n        /* \"#utility.yul\":5529:5536   */\n      dup3\n        /* \"#utility.yul\":5526:5527   */\n      dup2\n        /* \"#utility.yul\":5523:5537   */\n      lt\n        /* \"#utility.yul\":5515:5751   */\n      iszero\n      tag_96\n      jumpi\n        /* \"#utility.yul\":5618:5637   */\n      dup9\n      dup7\n      add\n        /* \"#utility.yul\":5612:5638   */\n      mload\n        /* \"#utility.yul\":5597:5639   */\n      dup3\n      sstore\n        /* \"#utility.yul\":5710:5737   */\n      swap5\n      dup5\n      add\n      swap5\n        /* \"#utility.yul\":5678:5679   */\n      0x01\n        /* \"#utility.yul\":5666:5680   */\n      swap1\n      swap2\n      add\n      swap1\n        /* \"#utility.yul\":5545:5564   */\n      dup5\n      add\n        /* \"#utility.yul\":5515:5751   */\n      jump(tag_94)\n    tag_96:\n        /* \"#utility.yul\":5519:5522   */\n      pop\n        /* \"#utility.yul\":5779:5785   */\n      dup6\n        /* \"#utility.yul\":5770:5777   */\n      dup3\n        /* \"#utility.yul\":5767:5786   */\n      lt\n        /* \"#utility.yul\":5764:5965   */\n      iszero\n      tag_97\n      jumpi\n        /* \"#utility.yul\":5840:5859   */\n      dup8\n      dup6\n      add\n        /* \"#utility.yul\":5834:5860   */\n      mload\n      not(0x00)\n        /* \"#utility.yul\":5923:5924   */\n      0x03\n        /* \"#utility.yul\":5919:5933   */\n      dup9\n      swap1\n      shl\n        /* \"#utility.yul\":5935:5938   */\n      0xf8\n        /* \"#utility.yul\":5915:5939   */\n      and\n        /* \"#utility.yul\":5911:5948   */\n      shr\n        /* \"#utility.yul\":5907:5949   */\n      not\n        /* \"#utility.yul\":5892:5950   */\n      and\n        /* \"#utility.yul\":5877:5951   */\n      dup2\n      sstore\n        /* \"#utility.yul\":5764:5965   */\n    tag_97:\n      pop\n      pop\n      pop\n      pop\n      pop\n        /* \"#utility.yul\":6011:6012   */\n      0x01\n        /* \"#utility.yul\":5995:6009   */\n      swap1\n      dup2\n      shl\n        /* \"#utility.yul\":5991:6013   */\n      add\n        /* \"#utility.yul\":5978:6014   */\n      swap1\n      sstore\n      pop\n        /* \"#utility.yul\":4929:6281   */\n      jump\t// out\n        /* \"#utility.yul\":6286:6648   */\n    tag_42:\n        /* \"#utility.yul\":6491:6493   */\n      0x60\n        /* \"#utility.yul\":6480:6489   */\n      dup2\n        /* \"#utility.yul\":6473:6494   */\n      mstore\n        /* \"#utility.yul\":6454:6458   */\n      0x00\n        /* \"#utility.yul\":6511:6556   */\n      tag_99\n        /* \"#utility.yul\":6552:6554   */\n      0x60\n        /* \"#utility.yul\":6541:6550   */\n      dup4\n        /* \"#utility.yul\":6537:6555   */\n      add\n        /* \"#utility.yul\":6529:6535   */\n      dup7\n        /* \"#utility.yul\":6511:6556   */\n      tag_43\n      jump\t// in\n    tag_99:\n        /* \"#utility.yul\":6587:6589   */\n      0x20\n        /* \"#utility.yul\":6572:6590   */\n      dup4\n      add\n        /* \"#utility.yul\":6565:6599   */\n      swap5\n      swap1\n      swap5\n      mstore\n      pop\n        /* \"#utility.yul\":6630:6632   */\n      0x40\n        /* \"#utility.yul\":6615:6633   */\n      add\n        /* \"#utility.yul\":6608:6642   */\n      mstore\n        /* \"#utility.yul\":6503:6556   */\n      swap2\n        /* \"#utility.yul\":6286:6648   */\n      swap1\n      pop\n      jump\t// out\n\n    auxdata: 0xa26469706673582212201ae3f297c340b3adca9c65f194888a47fe190fa29cf28c1b9c54754822c9f21664736f6c63430008120033\n}\n",
				"bytecode": {
					"linkReferences": {},
					"object": "608060405234801561001057600080fd5b5061071b806100206000396000f3fe608060405234801561001057600080fd5b50600436106100415760003560e01c80633b04f6f11461004657806390b4f12b14610064578063e93b2a3414610087575b600080fd5b61004e61009c565b60405161005b91906103a7565b60405180910390f35b610077610072366004610434565b6101bf565b60405161005b949392919061046c565b61009a6100953660046104b3565b610299565b005b33600090815260208181526040808320805482518185028101850190935280835260609492939192909184015b828210156101b657838290600052602060002090600402016040518060800160405290816000820180546100fc90610577565b80601f016020809104026020016040519081016040528092919081815260200182805461012890610577565b80156101755780601f1061014a57610100808354040283529160200191610175565b820191906000526020600020905b81548152906001019060200180831161015857829003601f168201915b50505091835250506001828101546020808401919091526002840154604084015260039093015460ff161515606090920191909152918352920191016100c9565b50505050905090565b600060205281600052604060002081815481106101db57600080fd5b9060005260206000209060040201600091509150508060000180546101ff90610577565b80601f016020809104026020016040519081016040528092919081815260200182805461022b90610577565b80156102785780601f1061024d57610100808354040283529160200191610278565b820191906000526020600020905b81548152906001019060200180831161025b57829003601f168201915b50505050600183015460028401546003909401549293909290915060ff1684565b604080516080810182528481526020808201859052818301849052600160608301819052336000908152808352938420805491820181558452922081519192839260049091029091019081906102ef9082610600565b506020820151600182015560408083015160028301556060909201516003909101805460ff19169115159190911790555133907f12eb7199c42b72f63cf254b78178ae5c55e9f28e0d54817eac684b6af020222b90610353908790879087906106c0565b60405180910390a250505050565b6000815180845260005b818110156103875760208185018101518683018201520161036b565b506000602082860101526020601f19601f83011685010191505092915050565b60006020808301818452808551808352604092508286019150828160051b87010184880160005b8381101561042657603f198984030185528151608081518186526103f482870182610361565b838b0151878c0152898401518a88015260609384015115159390960192909252505093860193908601906001016103ce565b509098975050505050505050565b6000806040838503121561044757600080fd5b82356001600160a01b038116811461045e57600080fd5b946020939093013593505050565b60808152600061047f6080830187610361565b60208301959095525060408101929092521515606090910152919050565b634e487b7160e01b600052604160045260246000fd5b6000806000606084860312156104c857600080fd5b833567ffffffffffffffff808211156104e057600080fd5b818601915086601f8301126104f457600080fd5b8135818111156105065761050661049d565b604051601f8201601f19908116603f0116810190838211818310171561052e5761052e61049d565b8160405282815289602084870101111561054757600080fd5b82602086016020830137600060208483010152809750505050505060208401359150604084013590509250925092565b600181811c9082168061058b57607f821691505b6020821081036105ab57634e487b7160e01b600052602260045260246000fd5b50919050565b601f8211156105fb57600081815260208120601f850160051c810160208610156105d85750805b601f850160051c820191505b818110156105f7578281556001016105e4565b5050505b505050565b815167ffffffffffffffff81111561061a5761061a61049d565b61062e816106288454610577565b846105b1565b602080601f831160018114610663576000841561064b5750858301515b600019600386901b1c1916600185901b1785556105f7565b600085815260208120601f198616915b8281101561069257888601518255948401946001909101908401610673565b50858210156106b05787850151600019600388901b60f8161c191681555b5050505050600190811b01905550565b6060815260006106d36060830186610361565b6020830194909452506040015291905056fea26469706673582212201ae3f297c340b3adca9c65f194888a47fe190fa29cf28c1b9c54754822c9f21664736f6c63430008120033",
					"opcodes": "PUSH1 0x80 PUSH1 0x40 MSTORE CALLVALUE DUP1 ISZERO PUSH2 0x10 JUMPI PUSH1 0x0 DUP1 REVERT JUMPDEST POP PUSH2 0x71B DUP1 PUSH2 0x20 PUSH1 0x0 CODECOPY PUSH1 0x0 RETURN INVALID PUSH1 0x80 PUSH1 0x40 MSTORE CALLVALUE DUP1 ISZERO PUSH2 0x10 JUMPI PUSH1 0x0 DUP1 REVERT JUMPDEST POP PUSH1 0x4 CALLDATASIZE LT PUSH2 0x41 JUMPI PUSH1 0x0 CALLDATALOAD PUSH1 0xE0 SHR DUP1 PUSH4 0x3B04F6F1 EQ PUSH2 0x46 JUMPI DUP1 PUSH4 0x90B4F12B EQ PUSH2 0x64 JUMPI DUP1 PUSH4 0xE93B2A34 EQ PUSH2 0x87 JUMPI JUMPDEST PUSH1 0x0 DUP1 REVERT JUMPDEST PUSH2 0x4E PUSH2 0x9C JUMP JUMPDEST PUSH1 0x40 MLOAD PUSH2 0x5B SWAP2 SWAP1 PUSH2 0x3A7 JUMP JUMPDEST PUSH1 0x40 MLOAD DUP1 SWAP2 SUB SWAP1 RETURN JUMPDEST PUSH2 0x77 PUSH2 0x72 CALLDATASIZE PUSH1 0x4 PUSH2 0x434 JUMP JUMPDEST PUSH2 0x1BF JUMP JUMPDEST PUSH1 0x40 MLOAD PUSH2 0x5B SWAP5 SWAP4 SWAP3 SWAP2 SWAP1 PUSH2 0x46C JUMP JUMPDEST PUSH2 0x9A PUSH2 0x95 CALLDATASIZE PUSH1 0x4 PUSH2 0x4B3 JUMP JUMPDEST PUSH2 0x299 JUMP JUMPDEST STOP JUMPDEST CALLER PUSH1 0x0 SWAP1 DUP2 MSTORE PUSH1 0x20 DUP2 DUP2 MSTORE PUSH1 0x40 DUP1 DUP4 KECCAK256 DUP1 SLOAD DUP3 MLOAD DUP2 DUP6 MUL DUP2 ADD DUP6 ADD SWAP1 SWAP4 MSTORE DUP1 DUP4 MSTORE PUSH1 0x60 SWAP5 SWAP3 SWAP4 SWAP2 SWAP3 SWAP1 SWAP2 DUP5 ADD JUMPDEST DUP3 DUP3 LT ISZERO PUSH2 0x1B6 JUMPI DUP4 DUP3 SWAP1 PUSH1 0x0 MSTORE PUSH1 0x20 PUSH1 0x0 KECCAK256 SWAP1 PUSH1 0x4 MUL ADD PUSH1 0x40 MLOAD DUP1 PUSH1 0x80 ADD PUSH1 0x40 MSTORE SWAP1 DUP2 PUSH1 0x0 DUP3 ADD DUP1 SLOAD PUSH2 0xFC SWAP1 PUSH2 0x577 JUMP JUMPDEST DUP1 PUSH1 0x1F ADD PUSH1 0x20 DUP1 SWAP2 DIV MUL PUSH1 0x20 ADD PUSH1 0x40 MLOAD SWAP1 DUP2 ADD PUSH1 0x40 MSTORE DUP1 SWAP3 SWAP2 SWAP1 DUP2 DUP2 MSTORE PUSH1 0x20 ADD DUP3 DUP1 SLOAD PUSH2 0x128 SWAP1 PUSH2 0x577 JUMP JUMPDEST DUP1 ISZERO PUSH2 0x175 JUMPI DUP1 PUSH1 0x1F LT PUSH2 0x14A JUMPI PUSH2 0x100 DUP1 DUP4 SLOAD DIV MUL DUP4 MSTORE SWAP2 PUSH1 0x20 ADD SWAP2 PUSH2 0x175 JUMP JUMPDEST DUP3 ADD SWAP2 SWAP1 PUSH1 0x0 MSTORE PUSH1 0x20 PUSH1 0x0 KECCAK256 SWAP1 JUMPDEST DUP2 SLOAD DUP2 MSTORE SWAP1 PUSH1 0x1 ADD SWAP1 PUSH1 0x20 ADD DUP1 DUP4 GT PUSH2 0x158 JUMPI DUP3 SWAP1 SUB PUSH1 0x1F AND DUP3 ADD SWAP2 JUMPDEST POP POP POP SWAP2 DUP4 MSTORE POP POP PUSH1 0x1 DUP3 DUP2 ADD SLOAD PUSH1 0x20 DUP1 DUP5 ADD SWAP2 SWAP1 SWAP2 MSTORE PUSH1 0x2 DUP5 ADD SLOAD PUSH1 0x40 DUP5 ADD MSTORE PUSH1 0x3 SWAP1 SWAP4 ADD SLOAD PUSH1 0xFF AND ISZERO ISZERO PUSH1 0x60 SWAP1 SWAP3 ADD SWAP2 SWAP1 SWAP2 MSTORE SWAP2 DUP4 MSTORE SWAP3 ADD SWAP2 ADD PUSH2 0xC9 JUMP JUMPDEST POP POP POP POP SWAP1 POP SWAP1 JUMP JUMPDEST PUSH1 0x0 PUSH1 0x20 MSTORE DUP2 PUSH1 0x0 MSTORE PUSH1 0x40 PUSH1 0x0 KECCAK256 DUP2 DUP2 SLOAD DUP2 LT PUSH2 0x1DB JUMPI PUSH1 0x0 DUP1 REVERT JUMPDEST SWAP1 PUSH1 0x0 MSTORE PUSH1 0x20 PUSH1 0x0 KECCAK256 SWAP1 PUSH1 0x4 MUL ADD PUSH1 0x0 SWAP2 POP SWAP2 POP POP DUP1 PUSH1 0x0 ADD DUP1 SLOAD PUSH2 0x1FF SWAP1 PUSH2 0x577 JUMP JUMPDEST DUP1 PUSH1 0x1F ADD PUSH1 0x20 DUP1 SWAP2 DIV MUL PUSH1 0x20 ADD PUSH1 0x40 MLOAD SWAP1 DUP2 ADD PUSH1 0x40 MSTORE DUP1 SWAP3 SWAP2 SWAP1 DUP2 DUP2 MSTORE PUSH1 0x20 ADD DUP3 DUP1 SLOAD PUSH2 0x22B SWAP1 PUSH2 0x577 JUMP JUMPDEST DUP1 ISZERO PUSH2 0x278 JUMPI DUP1 PUSH1 0x1F LT PUSH2 0x24D JUMPI PUSH2 0x100 DUP1 DUP4 SLOAD DIV MUL DUP4 MSTORE SWAP2 PUSH1 0x20 ADD SWAP2 PUSH2 0x278 JUMP JUMPDEST DUP3 ADD SWAP2 SWAP1 PUSH1 0x0 MSTORE PUSH1 0x20 PUSH1 0x0 KECCAK256 SWAP1 JUMPDEST DUP2 SLOAD DUP2 MSTORE SWAP1 PUSH1 0x1 ADD SWAP1 PUSH1 0x20 ADD DUP1 DUP4 GT PUSH2 0x25B JUMPI DUP3 SWAP1 SUB PUSH1 0x1F AND DUP3 ADD SWAP2 JUMPDEST POP POP POP POP PUSH1 0x1 DUP4 ADD SLOAD PUSH1 0x2 DUP5 ADD SLOAD PUSH1 0x3 SWAP1 SWAP5 ADD SLOAD SWAP3 SWAP4 SWAP1 SWAP3 SWAP1 SWAP2 POP PUSH1 0xFF AND DUP5 JUMP JUMPDEST PUSH1 0x40 DUP1 MLOAD PUSH1 0x80 DUP2 ADD DUP3 MSTORE DUP5 DUP2 MSTORE PUSH1 0x20 DUP1 DUP3 ADD DUP6 SWAP1 MSTORE DUP2 DUP4 ADD DUP5 SWAP1 MSTORE PUSH1 0x1 PUSH1 0x60 DUP4 ADD DUP2 SWAP1 MSTORE CALLER PUSH1 0x0 SWAP1 DUP2 MSTORE DUP1 DUP4 MSTORE SWAP4 DUP5 KECCAK256 DUP1 SLOAD SWAP2 DUP3 ADD DUP2 SSTORE DUP5 MSTORE SWAP3 KECCAK256 DUP2 MLOAD SWAP2 SWAP3 DUP4 SWAP3 PUSH1 0x4 SWAP1 SWAP2 MUL SWAP1 SWAP2 ADD SWAP1 DUP2 SWAP1 PUSH2 0x2EF SWAP1 DUP3 PUSH2 0x600 JUMP JUMPDEST POP PUSH1 0x20 DUP3 ADD MLOAD PUSH1 0x1 DUP3 ADD SSTORE PUSH1 0x40 DUP1 DUP4 ADD MLOAD PUSH1 0x2 DUP4 ADD SSTORE PUSH1 0x60 SWAP1 SWAP3 ADD MLOAD PUSH1 0x3 SWAP1 SWAP2 ADD DUP1 SLOAD PUSH1 0xFF NOT AND SWAP2 ISZERO ISZERO SWAP2 SWAP1 SWAP2 OR SWAP1 SSTORE MLOAD CALLER SWAP1 PUSH32 0x12EB7199C42B72F63CF254B78178AE5C55E9F28E0D54817EAC684B6AF020222B SWAP1 PUSH2 0x353 SWAP1 DUP8 SWAP1 DUP8 SWAP1 DUP8 SWAP1 PUSH2 0x6C0 JUMP JUMPDEST PUSH1 0x40 MLOAD DUP1 SWAP2 SUB SWAP1 LOG2 POP POP POP POP JUMP JUMPDEST PUSH1 0x0 DUP2 MLOAD DUP1 DUP5 MSTORE PUSH1 0x0 JUMPDEST DUP2 DUP2 LT ISZERO PUSH2 0x387 JUMPI PUSH1 0x20 DUP2 DUP6 ADD DUP2 ADD MLOAD DUP7 DUP4 ADD DUP3 ADD MSTORE ADD PUSH2 0x36B JUMP JUMPDEST POP PUSH1 0x0 PUSH1 0x20 DUP3 DUP7 ADD ADD MSTORE PUSH1 0x20 PUSH1 0x1F NOT PUSH1 0x1F DUP4 ADD AND DUP6 ADD ADD SWAP2 POP POP SWAP3 SWAP2 POP POP JUMP JUMPDEST PUSH1 0x0 PUSH1 0x20 DUP1 DUP4 ADD DUP2 DUP5 MSTORE DUP1 DUP6 MLOAD DUP1 DUP4 MSTORE PUSH1 0x40 SWAP3 POP DUP3 DUP7 ADD SWAP2 POP DUP3 DUP2 PUSH1 0x5 SHL DUP8 ADD ADD DUP5 DUP9 ADD PUSH1 0x0 JUMPDEST DUP4 DUP2 LT ISZERO PUSH2 0x426 JUMPI PUSH1 0x3F NOT DUP10 DUP5 SUB ADD DUP6 MSTORE DUP2 MLOAD PUSH1 0x80 DUP2 MLOAD DUP2 DUP7 MSTORE PUSH2 0x3F4 DUP3 DUP8 ADD DUP3 PUSH2 0x361 JUMP JUMPDEST DUP4 DUP12 ADD MLOAD DUP8 DUP13 ADD MSTORE DUP10 DUP5 ADD MLOAD DUP11 DUP9 ADD MSTORE PUSH1 0x60 SWAP4 DUP5 ADD MLOAD ISZERO ISZERO SWAP4 SWAP1 SWAP7 ADD SWAP3 SWAP1 SWAP3 MSTORE POP POP SWAP4 DUP7 ADD SWAP4 SWAP1 DUP7 ADD SWAP1 PUSH1 0x1 ADD PUSH2 0x3CE JUMP JUMPDEST POP SWAP1 SWAP9 SWAP8 POP POP POP POP POP POP POP POP JUMP JUMPDEST PUSH1 0x0 DUP1 PUSH1 0x40 DUP4 DUP6 SUB SLT ISZERO PUSH2 0x447 JUMPI PUSH1 0x0 DUP1 REVERT JUMPDEST DUP3 CALLDATALOAD PUSH1 0x1 PUSH1 0x1 PUSH1 0xA0 SHL SUB DUP2 AND DUP2 EQ PUSH2 0x45E JUMPI PUSH1 0x0 DUP1 REVERT JUMPDEST SWAP5 PUSH1 0x20 SWAP4 SWAP1 SWAP4 ADD CALLDATALOAD SWAP4 POP POP POP JUMP JUMPDEST PUSH1 0x80 DUP2 MSTORE PUSH1 0x0 PUSH2 0x47F PUSH1 0x80 DUP4 ADD DUP8 PUSH2 0x361 JUMP JUMPDEST PUSH1 0x20 DUP4 ADD SWAP6 SWAP1 SWAP6 MSTORE POP PUSH1 0x40 DUP2 ADD SWAP3 SWAP1 SWAP3 MSTORE ISZERO ISZERO PUSH1 0x60 SWAP1 SWAP2 ADD MSTORE SWAP2 SWAP1 POP JUMP JUMPDEST PUSH4 0x4E487B71 PUSH1 0xE0 SHL PUSH1 0x0 MSTORE PUSH1 0x41 PUSH1 0x4 MSTORE PUSH1 0x24 PUSH1 0x0 REVERT JUMPDEST PUSH1 0x0 DUP1 PUSH1 0x0 PUSH1 0x60 DUP5 DUP7 SUB SLT ISZERO PUSH2 0x4C8 JUMPI PUSH1 0x0 DUP1 REVERT JUMPDEST DUP4 CALLDATALOAD PUSH8 0xFFFFFFFFFFFFFFFF DUP1 DUP3 GT ISZERO PUSH2 0x4E0 JUMPI PUSH1 0x0 DUP1 REVERT JUMPDEST DUP2 DUP7 ADD SWAP2 POP DUP7 PUSH1 0x1F DUP4 ADD SLT PUSH2 0x4F4 JUMPI PUSH1 0x0 DUP1 REVERT JUMPDEST DUP2 CALLDATALOAD DUP2 DUP2 GT ISZERO PUSH2 0x506 JUMPI PUSH2 0x506 PUSH2 0x49D JUMP JUMPDEST PUSH1 0x40 MLOAD PUSH1 0x1F DUP3 ADD PUSH1 0x1F NOT SWAP1 DUP2 AND PUSH1 0x3F ADD AND DUP2 ADD SWAP1 DUP4 DUP3 GT DUP2 DUP4 LT OR ISZERO PUSH2 0x52E JUMPI PUSH2 0x52E PUSH2 0x49D JUMP JUMPDEST DUP2 PUSH1 0x40 MSTORE DUP3 DUP2 MSTORE DUP10 PUSH1 0x20 DUP5 DUP8 ADD ADD GT ISZERO PUSH2 0x547 JUMPI PUSH1 0x0 DUP1 REVERT JUMPDEST DUP3 PUSH1 0x20 DUP7 ADD PUSH1 0x20 DUP4 ADD CALLDATACOPY PUSH1 0x0 PUSH1 0x20 DUP5 DUP4 ADD ADD MSTORE DUP1 SWAP8 POP POP POP POP POP POP PUSH1 0x20 DUP5 ADD CALLDATALOAD SWAP2 POP PUSH1 0x40 DUP5 ADD CALLDATALOAD SWAP1 POP SWAP3 POP SWAP3 POP SWAP3 JUMP JUMPDEST PUSH1 0x1 DUP2 DUP2 SHR SWAP1 DUP3 AND DUP1 PUSH2 0x58B JUMPI PUSH1 0x7F DUP3 AND SWAP2 POP JUMPDEST PUSH1 0x20 DUP3 LT DUP2 SUB PUSH2 0x5AB JUMPI PUSH4 0x4E487B71 PUSH1 0xE0 SHL PUSH1 0x0 MSTORE PUSH1 0x22 PUSH1 0x4 MSTORE PUSH1 0x24 PUSH1 0x0 REVERT JUMPDEST POP SWAP2 SWAP1 POP JUMP JUMPDEST PUSH1 0x1F DUP3 GT ISZERO PUSH2 0x5FB JUMPI PUSH1 0x0 DUP2 DUP2 MSTORE PUSH1 0x20 DUP2 KECCAK256 PUSH1 0x1F DUP6 ADD PUSH1 0x5 SHR DUP2 ADD PUSH1 0x20 DUP7 LT ISZERO PUSH2 0x5D8 JUMPI POP DUP1 JUMPDEST PUSH1 0x1F DUP6 ADD PUSH1 0x5 SHR DUP3 ADD SWAP2 POP JUMPDEST DUP2 DUP2 LT ISZERO PUSH2 0x5F7 JUMPI DUP3 DUP2 SSTORE PUSH1 0x1 ADD PUSH2 0x5E4 JUMP JUMPDEST POP POP POP JUMPDEST POP POP POP JUMP JUMPDEST DUP2 MLOAD PUSH8 0xFFFFFFFFFFFFFFFF DUP2 GT ISZERO PUSH2 0x61A JUMPI PUSH2 0x61A PUSH2 0x49D JUMP JUMPDEST PUSH2 0x62E DUP2 PUSH2 0x628 DUP5 SLOAD PUSH2 0x577 JUMP JUMPDEST DUP5 PUSH2 0x5B1 JUMP JUMPDEST PUSH1 0x20 DUP1 PUSH1 0x1F DUP4 GT PUSH1 0x1 DUP2 EQ PUSH2 0x663 JUMPI PUSH1 0x0 DUP5 ISZERO PUSH2 0x64B JUMPI POP DUP6 DUP4 ADD MLOAD JUMPDEST PUSH1 0x0 NOT PUSH1 0x3 DUP7 SWAP1 SHL SHR NOT AND PUSH1 0x1 DUP6 SWAP1 SHL OR DUP6 SSTORE PUSH2 0x5F7 JUMP JUMPDEST PUSH1 0x0 DUP6 DUP2 MSTORE PUSH1 0x20 DUP2 KECCAK256 PUSH1 0x1F NOT DUP7 AND SWAP2 JUMPDEST DUP3 DUP2 LT ISZERO PUSH2 0x692 JUMPI DUP9 DUP7 ADD MLOAD DUP3 SSTORE SWAP5 DUP5 ADD SWAP5 PUSH1 0x1 SWAP1 SWAP2 ADD SWAP1 DUP5 ADD PUSH2 0x673 JUMP JUMPDEST POP DUP6 DUP3 LT ISZERO PUSH2 0x6B0 JUMPI DUP8 DUP6 ADD MLOAD PUSH1 0x0 NOT PUSH1 0x3 DUP9 SWAP1 SHL PUSH1 0xF8 AND SHR NOT AND DUP2 SSTORE JUMPDEST POP POP POP POP POP PUSH1 0x1 SWAP1 DUP2 SHL ADD SWAP1 SSTORE POP JUMP JUMPDEST PUSH1 0x60 DUP2 MSTORE PUSH1 0x0 PUSH2 0x6D3 PUSH1 0x60 DUP4 ADD DUP7 PUSH2 0x361 JUMP JUMPDEST PUSH1 0x20 DUP4 ADD SWAP5 SWAP1 SWAP5 MSTORE POP PUSH1 0x40 ADD MSTORE SWAP2 SWAP1 POP JUMP INVALID LOG2 PUSH5 0x6970667358 0x22 SLT KECCAK256 BYTE 0xE3 CALLCODE SWAP8 0xC3 BLOCKHASH 0xB3 0xAD 0xCA SWAP13 PUSH6 0xF194888A47FE NOT 0xF LOG2 SWAP13 CALLCODE DUP13 SHL SWAP13 SLOAD PUSH22 0x4822C9F21664736F6C63430008120033000000000000 "
				},
				"gasEstimates": {
					"creation": {
						"codeDepositCost": "363800",
						"executionCost": "399",
						"totalCost": "364199"
					},
					"external": {
						"createPolicy(string,uint256,uint256)": "infinite",
						"getPolicies()": "infinite",
						"policies(address,uint256)": "infinite"
					}
				},
				"methodIdentifiers": {
					"createPolicy(string,uint256,uint256)": "e93b2a34",
					"getPolicies()": "3b04f6f1",
					"policies(address,uint256)": "90b4f12b"
				}
			},
			"storageLayout": {
				"storage": [
					{
						"astId": 16,
						"contract": "insurance contract/insurance.sol:Insurance",
						"label": "policies",
						"offset": 0,
						"slot": "0",
						"type": "t_mapping(t_address,t_array(t_struct(Policy)10_storage)dyn_storage)"
					}
				],
				"types": {
					"t_address": {
						"encoding": "inplace",
						"label": "address",
						"numberOfBytes": "20"
					},
					"t_array(t_struct(Policy)10_storage)dyn_storage": {
						"base": "t_struct(Policy)10_storage",
						"encoding": "dynamic_array",
						"label": "struct Insurance.Policy[]",
						"numberOfBytes": "32"
					},
					"t_bool": {
						"encoding": "inplace",
						"label": "bool",
						"numberOfBytes": "1"
					},
					"t_mapping(t_address,t_array(t_struct(Policy)10_storage)dyn_storage)": {
						"encoding": "mapping",
						"key": "t_address",
						"label": "mapping(address => struct Insurance.Policy[])",
						"numberOfBytes": "32",
						"value": "t_array(t_struct(Policy)10_storage)dyn_storage"
					},
					"t_string_storage": {
						"encoding": "bytes",
						"label": "string",
						"numberOfBytes": "32"
					},
					"t_struct(Policy)10_storage": {
						"encoding": "inplace",
						"label": "struct Insurance.Policy",
						"members": [
							{
								"astId": 3,
								"contract": "insurance contract/insurance.sol:Insurance",
								"label": "policyName",
								"offset": 0,
								"slot": "0",
								"type": "t_string_storage"
							},
							{
								"astId": 5,
								"contract": "insurance contract/insurance.sol:Insurance",
								"label": "premium",
								"offset": 0,
								"slot": "1",
								"type": "t_uint256"
							},
							{
								"astId": 7,
								"contract": "insurance contract/insurance.sol:Insurance",
								"label": "coverageAmount",
								"offset": 0,
								"slot": "2",
								"type": "t_uint256"
							},
							{
								"astId": 9,
								"contract": "insurance contract/insurance.sol:Insurance",
								"label": "isActive",
								"offset": 0,
								"slot": "3",
								"type": "t_bool"
							}
						],
						"numberOfBytes": "128"
					},
					"t_uint256": {
						"encoding": "inplace",
						"label": "uint256",
						"numberOfBytes": "32"
					}
				}
			},
			"userdoc": {
				"kind": "user",
				"methods": {},
				"version": 1
			}
		}
	}
}