{
	"@api3/airnode-protocol/contracts/rrp/requesters/RrpRequesterV0.sol": {
		"RrpRequesterV0": {
			"abi": [
				{
					"inputs": [
						{
							"internalType": "address",
							"name": "_airnodeRrp",
							"type": "address"
						}
					],
					"stateMutability": "nonpayable",
					"type": "constructor"
				},
				{
					"inputs": [],
					"name": "airnodeRrp",
					"outputs": [
						{
							"internalType": "contract IAirnodeRrpV0",
							"name": "",
							"type": "address"
						}
					],
					"stateMutability": "view",
					"type": "function"
				}
			],
			"devdoc": {
				"kind": "dev",
				"methods": {
					"constructor": {
						"details": "Airnode RRP address is set at deployment and is immutable. RrpRequester is made its own sponsor by default. RrpRequester can also be sponsored by others and use these sponsorships while making requests, i.e., using this default sponsorship is optional.",
						"params": {
							"_airnodeRrp": "Airnode RRP contract address"
						}
					}
				},
				"title": "The contract to be inherited to make Airnode RRP requests",
				"version": 1
			},
			"evm": {
				"assembly": "    /* \"@api3/airnode-protocol/contracts/rrp/requesters/RrpRequesterV0.sol\":169:1063  contract RrpRequesterV0 {... */\n  mstore(0x40, 0xa0)\n    /* \"@api3/airnode-protocol/contracts/rrp/requesters/RrpRequesterV0.sol\":894:1061  constructor(address _airnodeRrp) {... */\n  callvalue\n  dup1\n  iszero\n  tag_1\n  jumpi\n  0x00\n  dup1\n  revert\ntag_1:\n  pop\n  mload(0x40)\n  sub(codesize, bytecodeSize)\n  dup1\n  bytecodeSize\n  dup4\n  codecopy\n  dup2\n  add\n  0x40\n  dup2\n  swap1\n  mstore\n  tag_2\n  swap2\n  tag_3\n  jump\t// in\ntag_2:\n  sub(shl(0xa0, 0x01), 0x01)\n    /* \"@api3/airnode-protocol/contracts/rrp/requesters/RrpRequesterV0.sol\":937:976  airnodeRrp = IAirnodeRrpV0(_airnodeRrp) */\n  dup2\n  and\n  0x80\n  dup2\n  swap1\n  mstore\n    /* \"@api3/airnode-protocol/contracts/rrp/requesters/RrpRequesterV0.sol\":986:1054  IAirnodeRrpV0(_airnodeRrp).setSponsorshipStatus(address(this), true) */\n  mload(0x40)\n  shl(0xe2, 0x2b77c09f)\n  dup2\n  mstore\n    /* \"@api3/airnode-protocol/contracts/rrp/requesters/RrpRequesterV0.sol\":1042:1046  this */\n  address\n    /* \"@api3/airnode-protocol/contracts/rrp/requesters/RrpRequesterV0.sol\":986:1054  IAirnodeRrpV0(_airnodeRrp).setSponsorshipStatus(address(this), true) */\n  0x04\n  dup3\n  add\n    /* \"#utility.yul\":477:528   */\n  mstore\n    /* \"@api3/airnode-protocol/contracts/rrp/requesters/RrpRequesterV0.sol\":1049:1053  true */\n  0x01\n    /* \"#utility.yul\":544:562   */\n  0x24\n  dup3\n  add\n    /* \"#utility.yul\":537:587   */\n  mstore\n    /* \"@api3/airnode-protocol/contracts/rrp/requesters/RrpRequesterV0.sol\":986:1033  IAirnodeRrpV0(_airnodeRrp).setSponsorshipStatus */\n  0xaddf027c\n  swap1\n    /* \"#utility.yul\":450:468   */\n  0x44\n  add\n    /* \"@api3/airnode-protocol/contracts/rrp/requesters/RrpRequesterV0.sol\":986:1054  IAirnodeRrpV0(_airnodeRrp).setSponsorshipStatus(address(this), true) */\n  0x00\n  mload(0x40)\n  dup1\n  dup4\n  sub\n  dup2\n  0x00\n  dup8\n  dup1\n  extcodesize\n  iszero\n  dup1\n  iszero\n  tag_8\n  jumpi\n  0x00\n  dup1\n  revert\ntag_8:\n  pop\n  gas\n  call\n  iszero\n  dup1\n  iszero\n  tag_10\n  jumpi\n  returndatasize\n  0x00\n  dup1\n  returndatacopy\n  revert(0x00, returndatasize)\ntag_10:\n  pop\n  pop\n  pop\n  pop\n    /* \"@api3/airnode-protocol/contracts/rrp/requesters/RrpRequesterV0.sol\":894:1061  constructor(address _airnodeRrp) {... */\n  pop\n    /* \"@api3/airnode-protocol/contracts/rrp/requesters/RrpRequesterV0.sol\":169:1063  contract RrpRequesterV0 {... */\n  jump(tag_12)\n    /* \"#utility.yul\":14:304   */\ntag_3:\n    /* \"#utility.yul\":84:90   */\n  0x00\n    /* \"#utility.yul\":137:139   */\n  0x20\n    /* \"#utility.yul\":125:134   */\n  dup3\n    /* \"#utility.yul\":116:123   */\n  dup5\n    /* \"#utility.yul\":112:135   */\n  sub\n    /* \"#utility.yul\":108:140   */\n  slt\n    /* \"#utility.yul\":105:157   */\n  iszero\n  tag_14\n  jumpi\n    /* \"#utility.yul\":153:154   */\n  0x00\n    /* \"#utility.yul\":150:151   */\n  dup1\n    /* \"#utility.yul\":143:155   */\n  revert\n    /* \"#utility.yul\":105:157   */\ntag_14:\n    /* \"#utility.yul\":179:195   */\n  dup2\n  mload\n  sub(shl(0xa0, 0x01), 0x01)\n    /* \"#utility.yul\":224:255   */\n  dup2\n  and\n    /* \"#utility.yul\":214:256   */\n  dup2\n  eq\n    /* \"#utility.yul\":204:274   */\n  tag_15\n  jumpi\n    /* \"#utility.yul\":270:271   */\n  0x00\n    /* \"#utility.yul\":267:268   */\n  dup1\n    /* \"#utility.yul\":260:272   */\n  revert\n    /* \"#utility.yul\":204:274   */\ntag_15:\n    /* \"#utility.yul\":293:298   */\n  swap4\n    /* \"#utility.yul\":14:304   */\n  swap3\n  pop\n  pop\n  pop\n  jump\t// out\n    /* \"#utility.yul\":309:593   */\ntag_12:\n    /* \"@api3/airnode-protocol/contracts/rrp/requesters/RrpRequesterV0.sol\":169:1063  contract RrpRequesterV0 {... */\n  mload(0x80)\n  codecopy(0x00, dataOffset(sub_0), dataSize(sub_0))\n  0x00\n  assignImmutable(\"0xb54132232922229e38cc95c863488521e95e5e7a61a99a0c1f7114e9af332ed3\")\n  return(0x00, dataSize(sub_0))\nstop\n\nsub_0: assembly {\n        /* \"@api3/airnode-protocol/contracts/rrp/requesters/RrpRequesterV0.sol\":169:1063  contract RrpRequesterV0 {... */\n      mstore(0x40, 0x80)\n      callvalue\n      dup1\n      iszero\n      tag_1\n      jumpi\n      0x00\n      dup1\n      revert\n    tag_1:\n      pop\n      jumpi(tag_2, lt(calldatasize, 0x04))\n      shr(0xe0, calldataload(0x00))\n      dup1\n      0x71bab666\n      eq\n      tag_3\n      jumpi\n    tag_2:\n      0x00\n      dup1\n      revert\n        /* \"@api3/airnode-protocol/contracts/rrp/requesters/RrpRequesterV0.sol\":199:240  IAirnodeRrpV0 public immutable airnodeRrp */\n    tag_3:\n      tag_4\n      immutable(\"0xb54132232922229e38cc95c863488521e95e5e7a61a99a0c1f7114e9af332ed3\")\n      dup2\n      jump\n    tag_4:\n      mload(0x40)\n      sub(shl(0xa0, 0x01), 0x01)\n        /* \"#utility.yul\":199:231   */\n      swap1\n      swap2\n      and\n        /* \"#utility.yul\":181:232   */\n      dup2\n      mstore\n        /* \"#utility.yul\":169:171   */\n      0x20\n        /* \"#utility.yul\":154:172   */\n      add\n        /* \"@api3/airnode-protocol/contracts/rrp/requesters/RrpRequesterV0.sol\":199:240  IAirnodeRrpV0 public immutable airnodeRrp */\n      mload(0x40)\n      dup1\n      swap2\n      sub\n      swap1\n      return\n\n    auxdata: 0xa2646970667358221220ca654b8029e6c4d5c668dfd68c66830448625644c4cd1721a0ade10a392bdcdb64736f6c63430008120033\n}\n",
				"bytecode": {
					"linkReferences": {},
					"object": "60a060405234801561001057600080fd5b5060405161018638038061018683398101604081905261002f91610099565b6001600160a01b0381166080819052604051632b77c09f60e21b81523060048201526001602482015263addf027c90604401600060405180830381600087803b15801561007b57600080fd5b505af115801561008f573d6000803e3d6000fd5b50505050506100c9565b6000602082840312156100ab57600080fd5b81516001600160a01b03811681146100c257600080fd5b9392505050565b60805160a56100e160003960006031015260a56000f3fe6080604052348015600f57600080fd5b506004361060285760003560e01c806371bab66614602d575b600080fd5b60537f000000000000000000000000000000000000000000000000000000000000000081565b6040516001600160a01b03909116815260200160405180910390f3fea2646970667358221220ca654b8029e6c4d5c668dfd68c66830448625644c4cd1721a0ade10a392bdcdb64736f6c63430008120033",
					"opcodes": "PUSH1 0xA0 PUSH1 0x40 MSTORE CALLVALUE DUP1 ISZERO PUSH2 0x10 JUMPI PUSH1 0x0 DUP1 REVERT JUMPDEST POP PUSH1 0x40 MLOAD PUSH2 0x186 CODESIZE SUB DUP1 PUSH2 0x186 DUP4 CODECOPY DUP2 ADD PUSH1 0x40 DUP2 SWAP1 MSTORE PUSH2 0x2F SWAP2 PUSH2 0x99 JUMP JUMPDEST PUSH1 0x1 PUSH1 0x1 PUSH1 0xA0 SHL SUB DUP2 AND PUSH1 0x80 DUP2 SWAP1 MSTORE PUSH1 0x40 MLOAD PUSH4 0x2B77C09F PUSH1 0xE2 SHL DUP2 MSTORE ADDRESS PUSH1 0x4 DUP3 ADD MSTORE PUSH1 0x1 PUSH1 0x24 DUP3 ADD MSTORE PUSH4 0xADDF027C SWAP1 PUSH1 0x44 ADD PUSH1 0x0 PUSH1 0x40 MLOAD DUP1 DUP4 SUB DUP2 PUSH1 0x0 DUP8 DUP1 EXTCODESIZE ISZERO DUP1 ISZERO PUSH2 0x7B JUMPI PUSH1 0x0 DUP1 REVERT JUMPDEST POP GAS CALL ISZERO DUP1 ISZERO PUSH2 0x8F JUMPI RETURNDATASIZE PUSH1 0x0 DUP1 RETURNDATACOPY RETURNDATASIZE PUSH1 0x0 REVERT JUMPDEST POP POP POP POP POP PUSH2 0xC9 JUMP JUMPDEST PUSH1 0x0 PUSH1 0x20 DUP3 DUP5 SUB SLT ISZERO PUSH2 0xAB JUMPI PUSH1 0x0 DUP1 REVERT JUMPDEST DUP2 MLOAD PUSH1 0x1 PUSH1 0x1 PUSH1 0xA0 SHL SUB DUP2 AND DUP2 EQ PUSH2 0xC2 JUMPI PUSH1 0x0 DUP1 REVERT JUMPDEST SWAP4 SWAP3 POP POP POP JUMP JUMPDEST PUSH1 0x80 MLOAD PUSH1 0xA5 PUSH2 0xE1 PUSH1 0x0 CODECOPY PUSH1 0x0 PUSH1 0x31 ADD MSTORE PUSH1 0xA5 PUSH1 0x0 RETURN INVALID PUSH1 0x80 PUSH1 0x40 MSTORE CALLVALUE DUP1 ISZERO PUSH1 0xF JUMPI PUSH1 0x0 DUP1 REVERT JUMPDEST POP PUSH1 0x4 CALLDATASIZE LT PUSH1 0x28 JUMPI PUSH1 0x0 CALLDATALOAD PUSH1 0xE0 SHR DUP1 PUSH4 0x71BAB666 EQ PUSH1 0x2D JUMPI JUMPDEST PUSH1 0x0 DUP1 REVERT JUMPDEST PUSH1 0x53 PUSH32 0x0 DUP2 JUMP JUMPDEST PUSH1 0x40 MLOAD PUSH1 0x1 PUSH1 0x1 PUSH1 0xA0 SHL SUB SWAP1 SWAP2 AND DUP2 MSTORE PUSH1 0x20 ADD PUSH1 0x40 MLOAD DUP1 SWAP2 SUB SWAP1 RETURN INVALID LOG2 PUSH5 0x6970667358 0x22 SLT KECCAK256 0xCA PUSH6 0x4B8029E6C4D5 0xC6 PUSH9 0xDFD68C668304486256 PREVRANDAO 0xC4 0xCD OR 0x21 LOG0 0xAD 0xE1 EXP CODECOPY 0x2B 0xDC 0xDB PUSH5 0x736F6C6343 STOP ADDMOD SLT STOP CALLER "
				},
				"gasEstimates": {
					"creation": {
						"codeDepositCost": "33000",
						"executionCost": "infinite",
						"totalCost": "infinite"
					},
					"external": {
						"airnodeRrp()": "infinite"
					}
				},
				"methodIdentifiers": {
					"airnodeRrp()": "71bab666"
				}
			},
			"storageLayout": {
				"storage": [],
				"types": null
			},
			"userdoc": {
				"kind": "user",
				"methods": {},
				"version": 1
			}
		}
	}
}