{
	"insurance contract/insuranceSelfDestruct.sol": {
		"Insurance": {
			"abi": [
				{
					"inputs": [],
					"stateMutability": "nonpayable",
					"type": "constructor"
				},
				{
					"anonymous": false,
					"inputs": [
						{
							"indexed": true,
							"internalType": "address",
							"name": "insured",
							"type": "address"
						},
						{
							"indexed": false,
							"internalType": "string",
							"name": "policyName",
							"type": "string"
						},
						{
							"indexed": false,
							"internalType": "uint256",
							"name": "premium",
							"type": "uint256"
						},
						{
							"indexed": false,
							"internalType": "uint256",
							"name": "coverageAmount",
							"type": "uint256"
						}
					],
					"name": "PolicyCreated",
					"type": "event"
				},
				{
					"inputs": [
						{
							"internalType": "string",
							"name": "_policyName",
							"type": "string"
						},
						{
							"internalType": "uint256",
							"name": "_premium",
							"type": "uint256"
						},
						{
							"internalType": "uint256",
							"name": "_coverageAmount",
							"type": "uint256"
						}
					],
					"name": "createPolicy",
					"outputs": [],
					"stateMutability": "nonpayable",
					"type": "function"
				},
				{
					"inputs": [],
					"name": "destroyContract",
					"outputs": [],
					"stateMutability": "nonpayable",
					"type": "function"
				},
				{
					"inputs": [],
					"name": "getPolicies",
					"outputs": [
						{
							"components": [
								{
									"internalType": "string",
									"name": "policyName",
									"type": "string"
								},
								{
									"internalType": "uint256",
									"name": "premium",
									"type": "uint256"
								},
								{
									"internalType": "uint256",
									"name": "coverageAmount",
									"type": "uint256"
								},
								{
									"internalType": "bool",
									"name": "isActive",
									"type": "bool"
								}
							],
							"internalType": "struct Insurance.Policy[]",
							"name": "",
							"type": "tuple[]"
						}
					],
					"stateMutability": "view",
					"type": "function"
				},
				{
					"inputs": [],
					"name": "owner",
					"outputs": [
						{
							"internalType": "address",
							"name": "",
							"type": "address"
						}
					],
					"stateMutability": "view",
					"type": "function"
				},
				{
					"inputs": [
						{
							"internalType": "address",
							"name": "",
							"type": "address"
						},
						{
							"internalType": "uint256",
							"name": "",
							"type": "uint256"
						}
					],
					"name": "policies",
					"outputs": [
						{
							"internalType": "string",
							"name": "policyName",
							"type": "string"
						},
						{
							"internalType": "uint256",
							"name": "premium",
							"type": "uint256"
						},
						{
							"internalType": "uint256",
							"name": "coverageAmount",
							"type": "uint256"
						},
						{
							"internalType": "bool",
							"name": "isActive",
							"type": "bool"
						}
					],
					"stateMutability": "view",
					"type": "function"
				}
			],
			"devdoc": {
				"kind": "dev",
				"methods": {},
				"version": 1
			},
			"evm": {
				"assembly": "    /* \"insurance contract/insuranceSelfDestruct.sol\":61:2564  contract Insurance {... */\n  mstore(0x40, 0x80)\n    /* \"insurance contract/insuranceSelfDestruct.sol\":1658:1772  constructor() {... */\n  callvalue\n  dup1\n  iszero\n  tag_1\n  jumpi\n  revert(0x00, 0x00)\ntag_1:\n  pop\n    /* \"insurance contract/insuranceSelfDestruct.sol\":1683:1688  owner */\n  0x01\n    /* \"insurance contract/insuranceSelfDestruct.sol\":1683:1701  owner = msg.sender */\n  dup1\n  sload\n  not(sub(shl(0xa0, 0x01), 0x01))\n  and\n    /* \"insurance contract/insuranceSelfDestruct.sol\":1691:1701  msg.sender */\n  caller\n    /* \"insurance contract/insuranceSelfDestruct.sol\":1683:1701  owner = msg.sender */\n  or\n  swap1\n  sstore\n    /* \"insurance contract/insuranceSelfDestruct.sol\":61:2564  contract Insurance {... */\n  dataSize(sub_0)\n  dup1\n  dataOffset(sub_0)\n  0x00\n  codecopy\n  0x00\n  return\nstop\n\nsub_0: assembly {\n        /* \"insurance contract/insuranceSelfDestruct.sol\":61:2564  contract Insurance {... */\n      mstore(0x40, 0x80)\n      callvalue\n      dup1\n      iszero\n      tag_1\n      jumpi\n      revert(0x00, 0x00)\n    tag_1:\n      pop\n      jumpi(tag_2, lt(calldatasize, 0x04))\n      shr(0xe0, calldataload(0x00))\n      dup1\n      0x092a5cce\n      eq\n      tag_3\n      jumpi\n      dup1\n      0x3b04f6f1\n      eq\n      tag_4\n      jumpi\n      dup1\n      0x8da5cb5b\n      eq\n      tag_5\n      jumpi\n      dup1\n      0x90b4f12b\n      eq\n      tag_6\n      jumpi\n      dup1\n      0xe93b2a34\n      eq\n      tag_7\n      jumpi\n    tag_2:\n      revert(0x00, 0x00)\n        /* \"insurance contract/insuranceSelfDestruct.sol\":2165:2382  function destroyContract() public onlyOwner {... */\n    tag_3:\n      tag_8\n      tag_9\n      jump\t// in\n    tag_8:\n      stop\n        /* \"insurance contract/insuranceSelfDestruct.sol\":1448:1555  function getPolicies() public view returns (Policy[] memory) {... */\n    tag_4:\n      tag_10\n      tag_11\n      jump\t// in\n    tag_10:\n      mload(0x40)\n      tag_12\n      swap2\n      swap1\n      tag_13\n      jump\t// in\n    tag_12:\n      mload(0x40)\n      dup1\n      swap2\n      sub\n      swap1\n      return\n        /* \"insurance contract/insuranceSelfDestruct.sol\":1629:1649  address public owner */\n    tag_5:\n      sload(0x01)\n      tag_14\n      swap1\n      sub(shl(0xa0, 0x01), 0x01)\n      and\n      dup2\n      jump\n    tag_14:\n      mload(0x40)\n      sub(shl(0xa0, 0x01), 0x01)\n        /* \"#utility.yul\":1625:1657   */\n      swap1\n      swap2\n      and\n        /* \"#utility.yul\":1607:1658   */\n      dup2\n      mstore\n        /* \"#utility.yul\":1595:1597   */\n      0x20\n        /* \"#utility.yul\":1580:1598   */\n      add\n        /* \"insurance contract/insuranceSelfDestruct.sol\":1629:1649  address public owner */\n      tag_12\n        /* \"#utility.yul\":1461:1664   */\n      jump\n        /* \"insurance contract/insuranceSelfDestruct.sol\":524:568  mapping(address => Policy[]) public policies */\n    tag_6:\n      tag_18\n      tag_19\n      calldatasize\n      0x04\n      tag_20\n      jump\t// in\n    tag_19:\n      tag_21\n      jump\t// in\n    tag_18:\n      mload(0x40)\n      tag_12\n      swap5\n      swap4\n      swap3\n      swap2\n      swap1\n      tag_23\n      jump\t// in\n        /* \"insurance contract/insuranceSelfDestruct.sol\":802:1373  function createPolicy(string memory _policyName, uint256 _premium, uint256 _coverageAmount) public {... */\n    tag_7:\n      tag_8\n      tag_25\n      calldatasize\n      0x04\n      tag_26\n      jump\t// in\n    tag_25:\n      tag_27\n      jump\t// in\n        /* \"insurance contract/insuranceSelfDestruct.sol\":2165:2382  function destroyContract() public onlyOwner {... */\n    tag_9:\n        /* \"insurance contract/insuranceSelfDestruct.sol\":2493:2498  owner */\n      and(sub(shl(0xa0, 0x01), 0x01), sload(0x01))\n        /* \"insurance contract/insuranceSelfDestruct.sol\":2479:2489  msg.sender */\n      caller\n        /* \"insurance contract/insuranceSelfDestruct.sol\":2479:2498  msg.sender == owner */\n      eq\n        /* \"insurance contract/insuranceSelfDestruct.sol\":2471:2541  require(msg.sender == owner, \"Only the owner can perform this action\") */\n      tag_29\n      jumpi\n      mload(0x40)\n      shl(0xe5, 0x461bcd)\n      dup2\n      mstore\n        /* \"#utility.yul\":4058:4060   */\n      0x20\n        /* \"insurance contract/insuranceSelfDestruct.sol\":2471:2541  require(msg.sender == owner, \"Only the owner can perform this action\") */\n      0x04\n      dup3\n      add\n        /* \"#utility.yul\":4040:4061   */\n      mstore\n        /* \"#utility.yul\":4097:4099   */\n      0x26\n        /* \"#utility.yul\":4077:4095   */\n      0x24\n      dup3\n      add\n        /* \"#utility.yul\":4070:4100   */\n      mstore\n        /* \"#utility.yul\":4136:4170   */\n      0x4f6e6c7920746865206f776e65722063616e20706572666f726d207468697320\n        /* \"#utility.yul\":4116:4134   */\n      0x44\n      dup3\n      add\n        /* \"#utility.yul\":4109:4171   */\n      mstore\n      shl(0xd1, 0x30b1ba34b7b7)\n        /* \"#utility.yul\":4187:4205   */\n      0x64\n      dup3\n      add\n        /* \"#utility.yul\":4180:4216   */\n      mstore\n        /* \"#utility.yul\":4233:4252   */\n      0x84\n      add\n        /* \"insurance contract/insuranceSelfDestruct.sol\":2471:2541  require(msg.sender == owner, \"Only the owner can perform this action\") */\n      mload(0x40)\n      dup1\n      swap2\n      sub\n      swap1\n      revert\n    tag_29:\n        /* \"insurance contract/insuranceSelfDestruct.sol\":2220:2230  _cleanUp() */\n      tag_33\n        /* \"insurance contract/insuranceSelfDestruct.sol\":2220:2228  _cleanUp */\n      tag_34\n        /* \"insurance contract/insuranceSelfDestruct.sol\":2220:2230  _cleanUp() */\n      jump\t// in\n    tag_33:\n        /* \"insurance contract/insuranceSelfDestruct.sol\":2295:2300  owner */\n      and(sub(shl(0xa0, 0x01), 0x01), sload(0x01))\n        /* \"insurance contract/insuranceSelfDestruct.sol\":2274:2302  selfdestruct(payable(owner)) */\n      selfdestruct\n        /* \"insurance contract/insuranceSelfDestruct.sol\":1448:1555  function getPolicies() public view returns (Policy[] memory) {... */\n    tag_11:\n        /* \"insurance contract/insuranceSelfDestruct.sol\":1536:1546  msg.sender */\n      caller\n        /* \"insurance contract/insuranceSelfDestruct.sol\":1527:1535  policies */\n      0x00\n        /* \"insurance contract/insuranceSelfDestruct.sol\":1527:1547  policies[msg.sender] */\n      swap1\n      dup2\n      mstore\n      0x20\n      dup2\n      dup2\n      mstore\n      0x40\n      dup1\n      dup4\n      keccak256\n        /* \"insurance contract/insuranceSelfDestruct.sol\":1520:1547  return policies[msg.sender] */\n      dup1\n      sload\n      dup3\n      mload\n      dup2\n      dup6\n      mul\n      dup2\n      add\n      dup6\n      add\n      swap1\n      swap4\n      mstore\n      dup1\n      dup4\n      mstore\n        /* \"insurance contract/insuranceSelfDestruct.sol\":1492:1507  Policy[] memory */\n      0x60\n      swap5\n        /* \"insurance contract/insuranceSelfDestruct.sol\":1520:1547  return policies[msg.sender] */\n      swap3\n      swap4\n        /* \"insurance contract/insuranceSelfDestruct.sol\":1527:1547  policies[msg.sender] */\n      swap2\n      swap3\n        /* \"insurance contract/insuranceSelfDestruct.sol\":1520:1547  return policies[msg.sender] */\n      swap1\n      swap2\n      dup5\n      add\n    tag_36:\n      dup3\n      dup3\n      lt\n      iszero\n      tag_37\n      jumpi\n      dup4\n      dup3\n      swap1\n      0x00\n      mstore\n      keccak256(0x00, 0x20)\n      swap1\n      0x04\n      mul\n      add\n      mload(0x40)\n      dup1\n      0x80\n      add\n      0x40\n      mstore\n      swap1\n      dup2\n      0x00\n      dup3\n      add\n      dup1\n      sload\n      tag_39\n      swap1\n      tag_40\n      jump\t// in\n    tag_39:\n      dup1\n      0x1f\n      add\n      0x20\n      dup1\n      swap2\n      div\n      mul\n      0x20\n      add\n      mload(0x40)\n      swap1\n      dup2\n      add\n      0x40\n      mstore\n      dup1\n      swap3\n      swap2\n      swap1\n      dup2\n      dup2\n      mstore\n      0x20\n      add\n      dup3\n      dup1\n      sload\n      tag_41\n      swap1\n      tag_40\n      jump\t// in\n    tag_41:\n      dup1\n      iszero\n      tag_42\n      jumpi\n      dup1\n      0x1f\n      lt\n      tag_43\n      jumpi\n      0x0100\n      dup1\n      dup4\n      sload\n      div\n      mul\n      dup4\n      mstore\n      swap2\n      0x20\n      add\n      swap2\n      jump(tag_42)\n    tag_43:\n      dup3\n      add\n      swap2\n      swap1\n      0x00\n      mstore\n      keccak256(0x00, 0x20)\n      swap1\n    tag_44:\n      dup2\n      sload\n      dup2\n      mstore\n      swap1\n      0x01\n      add\n      swap1\n      0x20\n      add\n      dup1\n      dup4\n      gt\n      tag_44\n      jumpi\n      dup3\n      swap1\n      sub\n      0x1f\n      and\n      dup3\n      add\n      swap2\n    tag_42:\n      pop\n      pop\n      pop\n      swap2\n      dup4\n      mstore\n      pop\n      pop\n      0x01\n      dup3\n      dup2\n      add\n      sload\n      0x20\n      dup1\n      dup5\n      add\n      swap2\n      swap1\n      swap2\n      mstore\n      0x02\n      dup5\n      add\n      sload\n      0x40\n      dup5\n      add\n      mstore\n      0x03\n      swap1\n      swap4\n      add\n      sload\n      0xff\n      and\n      iszero\n      iszero\n      0x60\n      swap1\n      swap3\n      add\n      swap2\n      swap1\n      swap2\n      mstore\n      swap2\n      dup4\n      mstore\n      swap3\n      add\n      swap2\n      add\n      jump(tag_36)\n    tag_37:\n      pop\n      pop\n      pop\n      pop\n      swap1\n      pop\n        /* \"insurance contract/insuranceSelfDestruct.sol\":1448:1555  function getPolicies() public view returns (Policy[] memory) {... */\n      swap1\n      jump\t// out\n        /* \"insurance contract/insuranceSelfDestruct.sol\":524:568  mapping(address => Policy[]) public policies */\n    tag_21:\n      mstore(0x20, 0x00)\n      dup2\n      0x00\n      mstore\n      keccak256(0x00, 0x40)\n      dup2\n      dup2\n      sload\n      dup2\n      lt\n      tag_45\n      jumpi\n      0x00\n      dup1\n      revert\n    tag_45:\n      swap1\n      0x00\n      mstore\n      keccak256(0x00, 0x20)\n      swap1\n      0x04\n      mul\n      add\n      0x00\n      swap2\n      pop\n      swap2\n      pop\n      pop\n      dup1\n      0x00\n      add\n      dup1\n      sload\n      tag_47\n      swap1\n      tag_40\n      jump\t// in\n    tag_47:\n      dup1\n      0x1f\n      add\n      0x20\n      dup1\n      swap2\n      div\n      mul\n      0x20\n      add\n      mload(0x40)\n      swap1\n      dup2\n      add\n      0x40\n      mstore\n      dup1\n      swap3\n      swap2\n      swap1\n      dup2\n      dup2\n      mstore\n      0x20\n      add\n      dup3\n      dup1\n      sload\n      tag_48\n      swap1\n      tag_40\n      jump\t// in\n    tag_48:\n      dup1\n      iszero\n      tag_49\n      jumpi\n      dup1\n      0x1f\n      lt\n      tag_50\n      jumpi\n      0x0100\n      dup1\n      dup4\n      sload\n      div\n      mul\n      dup4\n      mstore\n      swap2\n      0x20\n      add\n      swap2\n      jump(tag_49)\n    tag_50:\n      dup3\n      add\n      swap2\n      swap1\n      0x00\n      mstore\n      keccak256(0x00, 0x20)\n      swap1\n    tag_51:\n      dup2\n      sload\n      dup2\n      mstore\n      swap1\n      0x01\n      add\n      swap1\n      0x20\n      add\n      dup1\n      dup4\n      gt\n      tag_51\n      jumpi\n      dup3\n      swap1\n      sub\n      0x1f\n      and\n      dup3\n      add\n      swap2\n    tag_49:\n      pop\n      pop\n      pop\n      pop\n      0x01\n      dup4\n      add\n      sload\n      0x02\n      dup5\n      add\n      sload\n      0x03\n      swap1\n      swap5\n      add\n      sload\n      swap3\n      swap4\n      swap1\n      swap3\n      swap1\n      swap2\n      pop\n      0xff\n      and\n      dup5\n      jump\t// out\n        /* \"insurance contract/insuranceSelfDestruct.sol\":802:1373  function createPolicy(string memory _policyName, uint256 _premium, uint256 _coverageAmount) public {... */\n    tag_27:\n        /* \"insurance contract/insuranceSelfDestruct.sol\":938:1233  Policy({... */\n      0x40\n      dup1\n      mload\n      0x80\n      dup2\n      add\n      dup3\n      mstore\n      dup5\n      dup2\n      mstore\n      0x20\n      dup1\n      dup3\n      add\n      dup6\n      swap1\n      mstore\n      dup2\n      dup4\n      add\n      dup5\n      swap1\n      mstore\n        /* \"insurance contract/insuranceSelfDestruct.sol\":1165:1169  true */\n      0x01\n        /* \"insurance contract/insuranceSelfDestruct.sol\":938:1233  Policy({... */\n      0x60\n      dup4\n      add\n      dup2\n      swap1\n      mstore\n        /* \"insurance contract/insuranceSelfDestruct.sol\":1255:1265  msg.sender */\n      caller\n        /* \"insurance contract/insuranceSelfDestruct.sol\":912:935  Policy memory newPolicy */\n      0x00\n        /* \"insurance contract/insuranceSelfDestruct.sol\":1246:1266  policies[msg.sender] */\n      swap1\n      dup2\n      mstore\n      dup1\n      dup4\n      mstore\n      swap4\n      dup5\n      keccak256\n        /* \"insurance contract/insuranceSelfDestruct.sol\":1246:1282  policies[msg.sender].push(newPolicy) */\n      dup1\n      sload\n      swap2\n      dup3\n      add\n      dup2\n      sstore\n      dup5\n      mstore\n      swap3\n      keccak256\n      dup2\n      mload\n        /* \"insurance contract/insuranceSelfDestruct.sol\":938:1233  Policy({... */\n      swap2\n      swap3\n      dup4\n      swap3\n        /* \"insurance contract/insuranceSelfDestruct.sol\":1246:1282  policies[msg.sender].push(newPolicy) */\n      0x04\n      swap1\n      swap2\n      mul\n      swap1\n      swap2\n      add\n      swap1\n      dup2\n      swap1\n      tag_54\n      swap1\n      dup3\n      tag_55\n      jump\t// in\n    tag_54:\n      pop\n      0x20\n      dup3\n      add\n      mload\n      0x01\n      dup3\n      add\n      sstore\n      0x40\n      dup1\n      dup4\n      add\n      mload\n      0x02\n      dup4\n      add\n      sstore\n      0x60\n      swap1\n      swap3\n      add\n      mload\n      0x03\n      swap1\n      swap2\n      add\n      dup1\n      sload\n      not(0xff)\n      and\n      swap2\n      iszero\n      iszero\n      swap2\n      swap1\n      swap2\n      or\n      swap1\n      sstore\n        /* \"insurance contract/insuranceSelfDestruct.sol\":1300:1365  PolicyCreated(msg.sender, _policyName, _premium, _coverageAmount) */\n      mload\n        /* \"insurance contract/insuranceSelfDestruct.sol\":1314:1324  msg.sender */\n      caller\n      swap1\n        /* \"insurance contract/insuranceSelfDestruct.sol\":1300:1365  PolicyCreated(msg.sender, _policyName, _premium, _coverageAmount) */\n      0x12eb7199c42b72f63cf254b78178ae5c55e9f28e0d54817eac684b6af020222b\n      swap1\n      tag_56\n      swap1\n        /* \"insurance contract/insuranceSelfDestruct.sol\":1326:1337  _policyName */\n      dup8\n      swap1\n        /* \"insurance contract/insuranceSelfDestruct.sol\":1339:1347  _premium */\n      dup8\n      swap1\n        /* \"insurance contract/insuranceSelfDestruct.sol\":1349:1364  _coverageAmount */\n      dup8\n      swap1\n        /* \"insurance contract/insuranceSelfDestruct.sol\":1300:1365  PolicyCreated(msg.sender, _policyName, _premium, _coverageAmount) */\n      tag_57\n      jump\t// in\n    tag_56:\n      mload(0x40)\n      dup1\n      swap2\n      sub\n      swap1\n      log2\n        /* \"insurance contract/insuranceSelfDestruct.sol\":901:1373  {... */\n      pop\n        /* \"insurance contract/insuranceSelfDestruct.sol\":802:1373  function createPolicy(string memory _policyName, uint256 _premium, uint256 _coverageAmount) public {... */\n      pop\n      pop\n      pop\n      jump\t// out\n        /* \"insurance contract/insuranceSelfDestruct.sol\":1867:2074  function _cleanUp() private {... */\n    tag_34:\n        /* \"insurance contract/insuranceSelfDestruct.sol\":2055:2065  msg.sender */\n      caller\n        /* \"insurance contract/insuranceSelfDestruct.sol\":2046:2054  policies */\n      0x00\n        /* \"insurance contract/insuranceSelfDestruct.sol\":2046:2066  policies[msg.sender] */\n      swap1\n      dup2\n      mstore\n      0x20\n      dup2\n      swap1\n      mstore\n      0x40\n      dup2\n      keccak256\n        /* \"insurance contract/insuranceSelfDestruct.sol\":2039:2066  delete policies[msg.sender] */\n      tag_59\n      swap2\n      tag_60\n      jump\t// in\n    tag_59:\n        /* \"insurance contract/insuranceSelfDestruct.sol\":1867:2074  function _cleanUp() private {... */\n      jump\t// out\n    tag_60:\n      pop\n      dup1\n      sload\n      0x00\n      dup3\n      sstore\n      0x04\n      mul\n      swap1\n      0x00\n      mstore\n      keccak256(0x00, 0x20)\n      swap1\n      dup2\n      add\n      swap1\n      tag_62\n      swap2\n      swap1\n      tag_63\n      jump\t// in\n    tag_62:\n      pop\n      jump\t// out\n    tag_63:\n      dup1\n      dup3\n      gt\n      iszero\n      tag_65\n      jumpi\n      0x00\n      tag_66\n      dup3\n      dup3\n      tag_67\n      jump\t// in\n    tag_66:\n      pop\n      0x00\n      0x01\n      dup3\n      add\n      dup2\n      swap1\n      sstore\n      0x02\n      dup3\n      add\n      sstore\n      0x03\n      dup2\n      add\n      dup1\n      sload\n      not(0xff)\n      and\n      swap1\n      sstore\n      0x04\n      add\n      jump(tag_63)\n    tag_65:\n      pop\n      swap1\n      jump\t// out\n    tag_67:\n      pop\n      dup1\n      sload\n      tag_68\n      swap1\n      tag_40\n      jump\t// in\n    tag_68:\n      0x00\n      dup3\n      sstore\n      dup1\n      0x1f\n      lt\n      tag_70\n      jumpi\n      pop\n      pop\n      jump\t// out\n    tag_70:\n      0x1f\n      add\n      0x20\n      swap1\n      div\n      swap1\n      0x00\n      mstore\n      keccak256(0x00, 0x20)\n      swap1\n      dup2\n      add\n      swap1\n      tag_62\n      swap2\n      swap1\n    tag_73:\n      dup1\n      dup3\n      gt\n      iszero\n      tag_65\n      jumpi\n      0x00\n      dup2\n      sstore\n      0x01\n      add\n      jump(tag_73)\n        /* \"#utility.yul\":14:303   */\n    tag_75:\n        /* \"#utility.yul\":56:59   */\n      0x00\n        /* \"#utility.yul\":94:99   */\n      dup2\n        /* \"#utility.yul\":88:100   */\n      mload\n        /* \"#utility.yul\":121:127   */\n      dup1\n        /* \"#utility.yul\":116:119   */\n      dup5\n        /* \"#utility.yul\":109:128   */\n      mstore\n        /* \"#utility.yul\":177:183   */\n      dup1\n        /* \"#utility.yul\":170:174   */\n      0x20\n        /* \"#utility.yul\":163:168   */\n      dup5\n        /* \"#utility.yul\":159:175   */\n      add\n        /* \"#utility.yul\":152:156   */\n      0x20\n        /* \"#utility.yul\":147:150   */\n      dup7\n        /* \"#utility.yul\":143:157   */\n      add\n        /* \"#utility.yul\":137:184   */\n      mcopy\n        /* \"#utility.yul\":229:230   */\n      0x00\n        /* \"#utility.yul\":222:226   */\n      0x20\n        /* \"#utility.yul\":213:219   */\n      dup3\n        /* \"#utility.yul\":208:211   */\n      dup7\n        /* \"#utility.yul\":204:220   */\n      add\n        /* \"#utility.yul\":200:227   */\n      add\n        /* \"#utility.yul\":193:231   */\n      mstore\n        /* \"#utility.yul\":292:296   */\n      0x20\n        /* \"#utility.yul\":285:287   */\n      0x1f\n        /* \"#utility.yul\":281:288   */\n      not\n        /* \"#utility.yul\":276:278   */\n      0x1f\n        /* \"#utility.yul\":268:274   */\n      dup4\n        /* \"#utility.yul\":264:279   */\n      add\n        /* \"#utility.yul\":260:289   */\n      and\n        /* \"#utility.yul\":255:258   */\n      dup6\n        /* \"#utility.yul\":251:290   */\n      add\n        /* \"#utility.yul\":247:297   */\n      add\n        /* \"#utility.yul\":240:297   */\n      swap2\n      pop\n      pop\n        /* \"#utility.yul\":14:303   */\n      swap3\n      swap2\n      pop\n      pop\n      jump\t// out\n        /* \"#utility.yul\":308:1456   */\n    tag_13:\n        /* \"#utility.yul\":494:498   */\n      0x00\n        /* \"#utility.yul\":542:544   */\n      0x20\n        /* \"#utility.yul\":531:540   */\n      dup3\n        /* \"#utility.yul\":527:545   */\n      add\n        /* \"#utility.yul\":572:574   */\n      0x20\n        /* \"#utility.yul\":561:570   */\n      dup4\n        /* \"#utility.yul\":554:575   */\n      mstore\n        /* \"#utility.yul\":595:601   */\n      dup1\n        /* \"#utility.yul\":630:636   */\n      dup5\n        /* \"#utility.yul\":624:637   */\n      mload\n        /* \"#utility.yul\":661:667   */\n      dup1\n        /* \"#utility.yul\":653:659   */\n      dup4\n        /* \"#utility.yul\":646:668   */\n      mstore\n        /* \"#utility.yul\":699:701   */\n      0x40\n        /* \"#utility.yul\":688:697   */\n      dup6\n        /* \"#utility.yul\":684:702   */\n      add\n        /* \"#utility.yul\":677:702   */\n      swap2\n      pop\n        /* \"#utility.yul\":761:763   */\n      0x40\n        /* \"#utility.yul\":751:757   */\n      dup2\n        /* \"#utility.yul\":748:749   */\n      0x05\n        /* \"#utility.yul\":744:758   */\n      shl\n        /* \"#utility.yul\":733:742   */\n      dup7\n        /* \"#utility.yul\":729:759   */\n      add\n        /* \"#utility.yul\":725:764   */\n      add\n        /* \"#utility.yul\":711:764   */\n      swap3\n      pop\n        /* \"#utility.yul\":799:801   */\n      0x20\n        /* \"#utility.yul\":791:797   */\n      dup7\n        /* \"#utility.yul\":787:802   */\n      add\n        /* \"#utility.yul\":820:821   */\n      0x00\n        /* \"#utility.yul\":830:1427   */\n    tag_83:\n        /* \"#utility.yul\":844:850   */\n      dup3\n        /* \"#utility.yul\":841:842   */\n      dup2\n        /* \"#utility.yul\":838:851   */\n      lt\n        /* \"#utility.yul\":830:1427   */\n      iszero\n      tag_85\n      jumpi\n        /* \"#utility.yul\":937:939   */\n      0x3f\n        /* \"#utility.yul\":933:940   */\n      not\n        /* \"#utility.yul\":921:930   */\n      dup8\n        /* \"#utility.yul\":913:919   */\n      dup7\n        /* \"#utility.yul\":909:931   */\n      sub\n        /* \"#utility.yul\":905:941   */\n      add\n        /* \"#utility.yul\":900:903   */\n      dup5\n        /* \"#utility.yul\":893:942   */\n      mstore\n        /* \"#utility.yul\":971:977   */\n      dup2\n        /* \"#utility.yul\":965:978   */\n      mload\n        /* \"#utility.yul\":1017:1019   */\n      dup1\n        /* \"#utility.yul\":1011:1020   */\n      mload\n        /* \"#utility.yul\":1048:1052   */\n      0x80\n        /* \"#utility.yul\":1040:1046   */\n      dup8\n        /* \"#utility.yul\":1033:1053   */\n      mstore\n        /* \"#utility.yul\":1080:1130   */\n      tag_86\n        /* \"#utility.yul\":1124:1128   */\n      0x80\n        /* \"#utility.yul\":1116:1122   */\n      dup9\n        /* \"#utility.yul\":1112:1129   */\n      add\n        /* \"#utility.yul\":1098:1110   */\n      dup3\n        /* \"#utility.yul\":1080:1130   */\n      tag_75\n      jump\t// in\n    tag_86:\n        /* \"#utility.yul\":1181:1183   */\n      0x20\n        /* \"#utility.yul\":1173:1184   */\n      dup4\n      dup2\n      add\n        /* \"#utility.yul\":1167:1185   */\n      mload\n        /* \"#utility.yul\":1150:1165   */\n      dup10\n      dup3\n      add\n        /* \"#utility.yul\":1143:1186   */\n      mstore\n        /* \"#utility.yul\":1237:1239   */\n      0x40\n        /* \"#utility.yul\":1229:1240   */\n      dup1\n      dup6\n      add\n        /* \"#utility.yul\":1223:1241   */\n      mload\n        /* \"#utility.yul\":1206:1221   */\n      swap1\n      dup11\n      add\n        /* \"#utility.yul\":1199:1242   */\n      mstore\n        /* \"#utility.yul\":1309:1313   */\n      0x60\n        /* \"#utility.yul\":1301:1314   */\n      swap4\n      dup5\n      add\n        /* \"#utility.yul\":1295:1315   */\n      mload\n        /* \"#utility.yul\":1288:1316   */\n      iszero\n        /* \"#utility.yul\":1281:1317   */\n      iszero\n        /* \"#utility.yul\":1262:1279   */\n      swap4\n      swap1\n      swap9\n      add\n        /* \"#utility.yul\":1255:1318   */\n      swap3\n      swap1\n      swap3\n      mstore\n      pop\n        /* \"#utility.yul\":1066:1130   */\n      swap5\n        /* \"#utility.yul\":1405:1417   */\n      swap4\n      dup5\n      add\n      swap4\n        /* \"#utility.yul\":1370:1385   */\n      swap2\n      swap1\n      swap2\n      add\n      swap1\n        /* \"#utility.yul\":866:867   */\n      0x01\n        /* \"#utility.yul\":859:868   */\n      add\n        /* \"#utility.yul\":830:1427   */\n      jump(tag_83)\n    tag_85:\n      pop\n        /* \"#utility.yul\":1444:1450   */\n      swap3\n      swap7\n        /* \"#utility.yul\":308:1456   */\n      swap6\n      pop\n      pop\n      pop\n      pop\n      pop\n      pop\n      jump\t// out\n        /* \"#utility.yul\":1669:2075   */\n    tag_20:\n        /* \"#utility.yul\":1737:1743   */\n      0x00\n        /* \"#utility.yul\":1745:1751   */\n      0x00\n        /* \"#utility.yul\":1798:1800   */\n      0x40\n        /* \"#utility.yul\":1786:1795   */\n      dup4\n        /* \"#utility.yul\":1777:1784   */\n      dup6\n        /* \"#utility.yul\":1773:1796   */\n      sub\n        /* \"#utility.yul\":1769:1801   */\n      slt\n        /* \"#utility.yul\":1766:1818   */\n      iszero\n      tag_89\n      jumpi\n        /* \"#utility.yul\":1814:1815   */\n      0x00\n        /* \"#utility.yul\":1811:1812   */\n      0x00\n        /* \"#utility.yul\":1804:1816   */\n      revert\n        /* \"#utility.yul\":1766:1818   */\n    tag_89:\n        /* \"#utility.yul\":1840:1863   */\n      dup3\n      calldataload\n      sub(shl(0xa0, 0x01), 0x01)\n        /* \"#utility.yul\":1892:1923   */\n      dup2\n      and\n        /* \"#utility.yul\":1882:1924   */\n      dup2\n      eq\n        /* \"#utility.yul\":1872:1942   */\n      tag_90\n      jumpi\n        /* \"#utility.yul\":1938:1939   */\n      0x00\n        /* \"#utility.yul\":1935:1936   */\n      0x00\n        /* \"#utility.yul\":1928:1940   */\n      revert\n        /* \"#utility.yul\":1872:1942   */\n    tag_90:\n        /* \"#utility.yul\":1961:1966   */\n      swap5\n        /* \"#utility.yul\":2039:2041   */\n      0x20\n        /* \"#utility.yul\":2024:2042   */\n      swap4\n      swap1\n      swap4\n      add\n        /* \"#utility.yul\":2011:2043   */\n      calldataload\n      swap4\n      pop\n      pop\n      pop\n        /* \"#utility.yul\":1669:2075   */\n      jump\t// out\n        /* \"#utility.yul\":2080:2525   */\n    tag_23:\n        /* \"#utility.yul\":2307:2310   */\n      0x80\n        /* \"#utility.yul\":2296:2305   */\n      dup2\n        /* \"#utility.yul\":2289:2311   */\n      mstore\n        /* \"#utility.yul\":2270:2274   */\n      0x00\n        /* \"#utility.yul\":2328:2374   */\n      tag_92\n        /* \"#utility.yul\":2369:2372   */\n      0x80\n        /* \"#utility.yul\":2358:2367   */\n      dup4\n        /* \"#utility.yul\":2354:2373   */\n      add\n        /* \"#utility.yul\":2346:2352   */\n      dup8\n        /* \"#utility.yul\":2328:2374   */\n      tag_75\n      jump\t// in\n    tag_92:\n        /* \"#utility.yul\":2405:2407   */\n      0x20\n        /* \"#utility.yul\":2390:2408   */\n      dup4\n      add\n        /* \"#utility.yul\":2383:2417   */\n      swap6\n      swap1\n      swap6\n      mstore\n      pop\n        /* \"#utility.yul\":2448:2450   */\n      0x40\n        /* \"#utility.yul\":2433:2451   */\n      dup2\n      add\n        /* \"#utility.yul\":2426:2460   */\n      swap3\n      swap1\n      swap3\n      mstore\n        /* \"#utility.yul\":2503:2517   */\n      iszero\n        /* \"#utility.yul\":2496:2518   */\n      iszero\n        /* \"#utility.yul\":2491:2493   */\n      0x60\n        /* \"#utility.yul\":2476:2494   */\n      swap1\n      swap2\n      add\n        /* \"#utility.yul\":2469:2519   */\n      mstore\n        /* \"#utility.yul\":2320:2374   */\n      swap2\n        /* \"#utility.yul\":2080:2525   */\n      swap1\n      pop\n      jump\t// out\n        /* \"#utility.yul\":2530:2657   */\n    tag_76:\n        /* \"#utility.yul\":2591:2601   */\n      0x4e487b71\n        /* \"#utility.yul\":2586:2589   */\n      0xe0\n        /* \"#utility.yul\":2582:2602   */\n      shl\n        /* \"#utility.yul\":2579:2580   */\n      0x00\n        /* \"#utility.yul\":2572:2603   */\n      mstore\n        /* \"#utility.yul\":2622:2626   */\n      0x41\n        /* \"#utility.yul\":2619:2620   */\n      0x04\n        /* \"#utility.yul\":2612:2627   */\n      mstore\n        /* \"#utility.yul\":2646:2650   */\n      0x24\n        /* \"#utility.yul\":2643:2644   */\n      0x00\n        /* \"#utility.yul\":2636:2651   */\n      revert\n        /* \"#utility.yul\":2662:3851   */\n    tag_26:\n        /* \"#utility.yul\":2749:2755   */\n      0x00\n        /* \"#utility.yul\":2757:2763   */\n      0x00\n        /* \"#utility.yul\":2765:2771   */\n      0x00\n        /* \"#utility.yul\":2818:2820   */\n      0x60\n        /* \"#utility.yul\":2806:2815   */\n      dup5\n        /* \"#utility.yul\":2797:2804   */\n      dup7\n        /* \"#utility.yul\":2793:2816   */\n      sub\n        /* \"#utility.yul\":2789:2821   */\n      slt\n        /* \"#utility.yul\":2786:2838   */\n      iszero\n      tag_95\n      jumpi\n        /* \"#utility.yul\":2834:2835   */\n      0x00\n        /* \"#utility.yul\":2831:2832   */\n      0x00\n        /* \"#utility.yul\":2824:2836   */\n      revert\n        /* \"#utility.yul\":2786:2838   */\n    tag_95:\n        /* \"#utility.yul\":2874:2883   */\n      dup4\n        /* \"#utility.yul\":2861:2884   */\n      calldataload\n        /* \"#utility.yul\":2907:2925   */\n      0xffffffffffffffff\n        /* \"#utility.yul\":2899:2905   */\n      dup2\n        /* \"#utility.yul\":2896:2926   */\n      gt\n        /* \"#utility.yul\":2893:2943   */\n      iszero\n      tag_96\n      jumpi\n        /* \"#utility.yul\":2939:2940   */\n      0x00\n        /* \"#utility.yul\":2936:2937   */\n      0x00\n        /* \"#utility.yul\":2929:2941   */\n      revert\n        /* \"#utility.yul\":2893:2943   */\n    tag_96:\n        /* \"#utility.yul\":2962:2984   */\n      dup5\n      add\n        /* \"#utility.yul\":3015:3019   */\n      0x1f\n        /* \"#utility.yul\":3007:3020   */\n      dup2\n      add\n        /* \"#utility.yul\":3003:3030   */\n      dup7\n      sgt\n        /* \"#utility.yul\":2993:3048   */\n      tag_97\n      jumpi\n        /* \"#utility.yul\":3044:3045   */\n      0x00\n        /* \"#utility.yul\":3041:3042   */\n      0x00\n        /* \"#utility.yul\":3034:3046   */\n      revert\n        /* \"#utility.yul\":2993:3048   */\n    tag_97:\n        /* \"#utility.yul\":3084:3086   */\n      dup1\n        /* \"#utility.yul\":3071:3087   */\n      calldataload\n        /* \"#utility.yul\":3110:3128   */\n      0xffffffffffffffff\n        /* \"#utility.yul\":3102:3108   */\n      dup2\n        /* \"#utility.yul\":3099:3129   */\n      gt\n        /* \"#utility.yul\":3096:3152   */\n      iszero\n      tag_99\n      jumpi\n        /* \"#utility.yul\":3132:3150   */\n      tag_99\n      tag_76\n      jump\t// in\n    tag_99:\n        /* \"#utility.yul\":3181:3183   */\n      0x40\n        /* \"#utility.yul\":3175:3184   */\n      mload\n        /* \"#utility.yul\":3273:3275   */\n      0x1f\n        /* \"#utility.yul\":3235:3252   */\n      dup3\n      add\n      not(0x1f)\n        /* \"#utility.yul\":3231:3262   */\n      swap1\n      dup2\n      and\n        /* \"#utility.yul\":3264:3266   */\n      0x3f\n        /* \"#utility.yul\":3227:3267   */\n      add\n        /* \"#utility.yul\":3223:3277   */\n      and\n        /* \"#utility.yul\":3211:3278   */\n      dup2\n      add\n        /* \"#utility.yul\":3308:3326   */\n      0xffffffffffffffff\n        /* \"#utility.yul\":3293:3327   */\n      dup2\n      gt\n        /* \"#utility.yul\":3329:3351   */\n      dup3\n      dup3\n      lt\n        /* \"#utility.yul\":3290:3352   */\n      or\n        /* \"#utility.yul\":3287:3375   */\n      iszero\n      tag_101\n      jumpi\n        /* \"#utility.yul\":3355:3373   */\n      tag_101\n      tag_76\n      jump\t// in\n    tag_101:\n        /* \"#utility.yul\":3391:3393   */\n      0x40\n        /* \"#utility.yul\":3384:3406   */\n      mstore\n        /* \"#utility.yul\":3415:3437   */\n      dup2\n      dup2\n      mstore\n        /* \"#utility.yul\":3456:3471   */\n      dup3\n      dup3\n      add\n        /* \"#utility.yul\":3473:3477   */\n      0x20\n        /* \"#utility.yul\":3452:3478   */\n      add\n        /* \"#utility.yul\":3449:3488   */\n      dup9\n      lt\n        /* \"#utility.yul\":3446:3505   */\n      iszero\n      tag_102\n      jumpi\n        /* \"#utility.yul\":3501:3502   */\n      0x00\n        /* \"#utility.yul\":3498:3499   */\n      0x00\n        /* \"#utility.yul\":3491:3503   */\n      revert\n        /* \"#utility.yul\":3446:3505   */\n    tag_102:\n        /* \"#utility.yul\":3561:3567   */\n      dup2\n        /* \"#utility.yul\":3554:3558   */\n      0x20\n        /* \"#utility.yul\":3550:3552   */\n      dup5\n        /* \"#utility.yul\":3546:3559   */\n      add\n        /* \"#utility.yul\":3539:3543   */\n      0x20\n        /* \"#utility.yul\":3531:3537   */\n      dup4\n        /* \"#utility.yul\":3527:3544   */\n      add\n        /* \"#utility.yul\":3514:3568   */\n      calldatacopy\n        /* \"#utility.yul\":3616:3617   */\n      0x00\n        /* \"#utility.yul\":3609:3613   */\n      0x20\n        /* \"#utility.yul\":3588:3607   */\n      swap3\n      dup3\n      add\n        /* \"#utility.yul\":3584:3614   */\n      dup4\n      add\n        /* \"#utility.yul\":3577:3618   */\n      mstore\n        /* \"#utility.yul\":3588:3607   */\n      swap8\n        /* \"#utility.yul\":3697:3717   */\n      swap1\n      dup7\n      add\n        /* \"#utility.yul\":3684:3718   */\n      calldataload\n      swap7\n      pop\n        /* \"#utility.yul\":3815:3817   */\n      0x40\n        /* \"#utility.yul\":3800:3818   */\n      swap1\n      swap6\n      add\n        /* \"#utility.yul\":3787:3819   */\n      calldataload\n      swap5\n        /* \"#utility.yul\":3592:3598   */\n      swap4\n      pop\n      pop\n      pop\n      pop\n        /* \"#utility.yul\":2662:3851   */\n      jump\t// out\n        /* \"#utility.yul\":4263:4643   */\n    tag_40:\n        /* \"#utility.yul\":4342:4343   */\n      0x01\n        /* \"#utility.yul\":4338:4350   */\n      dup2\n      dup2\n      shr\n      swap1\n        /* \"#utility.yul\":4385:4397   */\n      dup3\n      and\n      dup1\n        /* \"#utility.yul\":4406:4467   */\n      tag_105\n      jumpi\n        /* \"#utility.yul\":4460:4464   */\n      0x7f\n        /* \"#utility.yul\":4452:4458   */\n      dup3\n        /* \"#utility.yul\":4448:4465   */\n      and\n        /* \"#utility.yul\":4438:4465   */\n      swap2\n      pop\n        /* \"#utility.yul\":4406:4467   */\n    tag_105:\n        /* \"#utility.yul\":4513:4515   */\n      0x20\n        /* \"#utility.yul\":4505:4511   */\n      dup3\n        /* \"#utility.yul\":4502:4516   */\n      lt\n        /* \"#utility.yul\":4482:4500   */\n      dup2\n        /* \"#utility.yul\":4479:4517   */\n      sub\n        /* \"#utility.yul\":4476:4637   */\n      tag_106\n      jumpi\n        /* \"#utility.yul\":4559:4569   */\n      0x4e487b71\n        /* \"#utility.yul\":4554:4557   */\n      0xe0\n        /* \"#utility.yul\":4550:4570   */\n      shl\n        /* \"#utility.yul\":4547:4548   */\n      0x00\n        /* \"#utility.yul\":4540:4571   */\n      mstore\n        /* \"#utility.yul\":4594:4598   */\n      0x22\n        /* \"#utility.yul\":4591:4592   */\n      0x04\n        /* \"#utility.yul\":4584:4599   */\n      mstore\n        /* \"#utility.yul\":4622:4626   */\n      0x24\n        /* \"#utility.yul\":4619:4620   */\n      0x00\n        /* \"#utility.yul\":4612:4627   */\n      revert\n        /* \"#utility.yul\":4476:4637   */\n    tag_106:\n      pop\n        /* \"#utility.yul\":4263:4643   */\n      swap2\n      swap1\n      pop\n      jump\t// out\n        /* \"#utility.yul\":4774:5292   */\n    tag_78:\n        /* \"#utility.yul\":4876:4878   */\n      0x1f\n        /* \"#utility.yul\":4871:4874   */\n      dup3\n        /* \"#utility.yul\":4868:4879   */\n      gt\n        /* \"#utility.yul\":4865:5286   */\n      iszero\n      tag_109\n      jumpi\n        /* \"#utility.yul\":4912:4917   */\n      dup1\n        /* \"#utility.yul\":4909:4910   */\n      0x00\n        /* \"#utility.yul\":4902:4918   */\n      mstore\n        /* \"#utility.yul\":4956:4960   */\n      0x20\n        /* \"#utility.yul\":4953:4954   */\n      0x00\n        /* \"#utility.yul\":4943:4961   */\n      keccak256\n        /* \"#utility.yul\":5026:5028   */\n      0x1f\n        /* \"#utility.yul\":5014:5024   */\n      dup5\n        /* \"#utility.yul\":5010:5029   */\n      add\n        /* \"#utility.yul\":5007:5008   */\n      0x05\n        /* \"#utility.yul\":5003:5030   */\n      shr\n        /* \"#utility.yul\":4997:5001   */\n      dup2\n        /* \"#utility.yul\":4993:5031   */\n      add\n        /* \"#utility.yul\":5062:5066   */\n      0x20\n        /* \"#utility.yul\":5050:5060   */\n      dup6\n        /* \"#utility.yul\":5047:5067   */\n      lt\n        /* \"#utility.yul\":5044:5091   */\n      iszero\n      tag_110\n      jumpi\n      pop\n        /* \"#utility.yul\":5085:5089   */\n      dup1\n        /* \"#utility.yul\":5044:5091   */\n    tag_110:\n        /* \"#utility.yul\":5140:5142   */\n      0x1f\n        /* \"#utility.yul\":5135:5138   */\n      dup5\n        /* \"#utility.yul\":5131:5143   */\n      add\n        /* \"#utility.yul\":5128:5129   */\n      0x05\n        /* \"#utility.yul\":5124:5144   */\n      shr\n        /* \"#utility.yul\":5118:5122   */\n      dup3\n        /* \"#utility.yul\":5114:5145   */\n      add\n        /* \"#utility.yul\":5104:5145   */\n      swap2\n      pop\n        /* \"#utility.yul\":5195:5276   */\n    tag_111:\n        /* \"#utility.yul\":5213:5215   */\n      dup2\n        /* \"#utility.yul\":5206:5211   */\n      dup2\n        /* \"#utility.yul\":5203:5216   */\n      lt\n        /* \"#utility.yul\":5195:5276   */\n      iszero\n      tag_113\n      jumpi\n        /* \"#utility.yul\":5272:5273   */\n      0x00\n        /* \"#utility.yul\":5258:5274   */\n      dup2\n      sstore\n        /* \"#utility.yul\":5239:5240   */\n      0x01\n        /* \"#utility.yul\":5228:5241   */\n      add\n        /* \"#utility.yul\":5195:5276   */\n      jump(tag_111)\n    tag_113:\n        /* \"#utility.yul\":5199:5202   */\n      pop\n      pop\n        /* \"#utility.yul\":4865:5286   */\n    tag_109:\n        /* \"#utility.yul\":4774:5292   */\n      pop\n      pop\n      pop\n      jump\t// out\n        /* \"#utility.yul\":5468:6767   */\n    tag_55:\n        /* \"#utility.yul\":5594:5597   */\n      dup2\n        /* \"#utility.yul\":5588:5598   */\n      mload\n        /* \"#utility.yul\":5621:5639   */\n      0xffffffffffffffff\n        /* \"#utility.yul\":5613:5619   */\n      dup2\n        /* \"#utility.yul\":5610:5640   */\n      gt\n        /* \"#utility.yul\":5607:5663   */\n      iszero\n      tag_117\n      jumpi\n        /* \"#utility.yul\":5643:5661   */\n      tag_117\n      tag_76\n      jump\t// in\n    tag_117:\n        /* \"#utility.yul\":5672:5769   */\n      tag_118\n        /* \"#utility.yul\":5762:5768   */\n      dup2\n        /* \"#utility.yul\":5722:5760   */\n      tag_119\n        /* \"#utility.yul\":5754:5758   */\n      dup5\n        /* \"#utility.yul\":5748:5759   */\n      sload\n        /* \"#utility.yul\":5722:5760   */\n      tag_40\n      jump\t// in\n    tag_119:\n        /* \"#utility.yul\":5716:5720   */\n      dup5\n        /* \"#utility.yul\":5672:5769   */\n      tag_78\n      jump\t// in\n    tag_118:\n        /* \"#utility.yul\":5818:5822   */\n      0x20\n        /* \"#utility.yul\":5849:5851   */\n      0x1f\n        /* \"#utility.yul\":5838:5852   */\n      dup3\n      gt\n        /* \"#utility.yul\":5866:5867   */\n      0x01\n        /* \"#utility.yul\":5861:6510   */\n      dup2\n      eq\n      tag_121\n      jumpi\n        /* \"#utility.yul\":6554:6555   */\n      0x00\n        /* \"#utility.yul\":6571:6577   */\n      dup4\n        /* \"#utility.yul\":6568:6657   */\n      iszero\n      tag_122\n      jumpi\n      pop\n        /* \"#utility.yul\":6623:6642   */\n      dup5\n      dup3\n      add\n        /* \"#utility.yul\":6617:6643   */\n      mload\n        /* \"#utility.yul\":6568:6657   */\n    tag_122:\n      not(0x00)\n        /* \"#utility.yul\":5425:5426   */\n      0x03\n        /* \"#utility.yul\":5421:5432   */\n      dup6\n      swap1\n      shl\n        /* \"#utility.yul\":5417:5441   */\n      shr\n        /* \"#utility.yul\":5413:5442   */\n      not\n        /* \"#utility.yul\":5403:5443   */\n      and\n        /* \"#utility.yul\":5449:5450   */\n      0x01\n        /* \"#utility.yul\":5445:5456   */\n      dup5\n      swap1\n      shl\n        /* \"#utility.yul\":5400:5457   */\n      or\n        /* \"#utility.yul\":6670:6751   */\n      dup5\n      sstore\n        /* \"#utility.yul\":5831:6761   */\n      jump(tag_113)\n        /* \"#utility.yul\":5861:6510   */\n    tag_121:\n        /* \"#utility.yul\":4721:4722   */\n      0x00\n        /* \"#utility.yul\":4714:4728   */\n      dup5\n      dup2\n      mstore\n        /* \"#utility.yul\":4758:4762   */\n      0x20\n        /* \"#utility.yul\":4745:4763   */\n      dup2\n      keccak256\n      not(0x1f)\n        /* \"#utility.yul\":5897:5917   */\n      dup6\n      and\n      swap2\n        /* \"#utility.yul\":6015:6237   */\n    tag_125:\n        /* \"#utility.yul\":6029:6036   */\n      dup3\n        /* \"#utility.yul\":6026:6027   */\n      dup2\n        /* \"#utility.yul\":6023:6037   */\n      lt\n        /* \"#utility.yul\":6015:6237   */\n      iszero\n      tag_127\n      jumpi\n        /* \"#utility.yul\":6111:6130   */\n      dup8\n      dup6\n      add\n        /* \"#utility.yul\":6105:6131   */\n      mload\n        /* \"#utility.yul\":6090:6132   */\n      dup3\n      sstore\n        /* \"#utility.yul\":6218:6222   */\n      0x20\n        /* \"#utility.yul\":6203:6223   */\n      swap5\n      dup6\n      add\n      swap5\n        /* \"#utility.yul\":6171:6172   */\n      0x01\n        /* \"#utility.yul\":6159:6173   */\n      swap1\n      swap3\n      add\n      swap2\n        /* \"#utility.yul\":6045:6057   */\n      add\n        /* \"#utility.yul\":6015:6237   */\n      jump(tag_125)\n    tag_127:\n        /* \"#utility.yul\":6019:6022   */\n      pop\n        /* \"#utility.yul\":6265:6271   */\n      dup5\n        /* \"#utility.yul\":6256:6263   */\n      dup3\n        /* \"#utility.yul\":6253:6272   */\n      lt\n        /* \"#utility.yul\":6250:6451   */\n      iszero\n      tag_128\n      jumpi\n        /* \"#utility.yul\":6326:6345   */\n      dup7\n      dup5\n      add\n        /* \"#utility.yul\":6320:6346   */\n      mload\n      not(0x00)\n        /* \"#utility.yul\":6409:6410   */\n      0x03\n        /* \"#utility.yul\":6405:6419   */\n      dup8\n      swap1\n      shl\n        /* \"#utility.yul\":6421:6424   */\n      0xf8\n        /* \"#utility.yul\":6401:6425   */\n      and\n        /* \"#utility.yul\":6397:6434   */\n      shr\n        /* \"#utility.yul\":6393:6435   */\n      not\n        /* \"#utility.yul\":6378:6436   */\n      and\n        /* \"#utility.yul\":6363:6437   */\n      dup2\n      sstore\n        /* \"#utility.yul\":6250:6451   */\n    tag_128:\n      pop\n      pop\n      pop\n      pop\n        /* \"#utility.yul\":6497:6498   */\n      0x01\n        /* \"#utility.yul\":6481:6495   */\n      swap1\n      dup2\n      shl\n        /* \"#utility.yul\":6477:6499   */\n      add\n        /* \"#utility.yul\":6464:6500   */\n      swap1\n      sstore\n      pop\n        /* \"#utility.yul\":5468:6767   */\n      jump\t// out\n        /* \"#utility.yul\":6772:7134   */\n    tag_57:\n        /* \"#utility.yul\":6977:6979   */\n      0x60\n        /* \"#utility.yul\":6966:6975   */\n      dup2\n        /* \"#utility.yul\":6959:6980   */\n      mstore\n        /* \"#utility.yul\":6940:6944   */\n      0x00\n        /* \"#utility.yul\":6997:7042   */\n      tag_130\n        /* \"#utility.yul\":7038:7040   */\n      0x60\n        /* \"#utility.yul\":7027:7036   */\n      dup4\n        /* \"#utility.yul\":7023:7041   */\n      add\n        /* \"#utility.yul\":7015:7021   */\n      dup7\n        /* \"#utility.yul\":6997:7042   */\n      tag_75\n      jump\t// in\n    tag_130:\n        /* \"#utility.yul\":7073:7075   */\n      0x20\n        /* \"#utility.yul\":7058:7076   */\n      dup4\n      add\n        /* \"#utility.yul\":7051:7085   */\n      swap5\n      swap1\n      swap5\n      mstore\n      pop\n        /* \"#utility.yul\":7116:7118   */\n      0x40\n        /* \"#utility.yul\":7101:7119   */\n      add\n        /* \"#utility.yul\":7094:7128   */\n      mstore\n        /* \"#utility.yul\":6989:7042   */\n      swap2\n        /* \"#utility.yul\":6772:7134   */\n      swap1\n      pop\n      jump\t// out\n\n    auxdata: 0xa26469706673582212201511f3e84828dfffeccd566367e6958d23d304ef4568c787d5c6bd0547524bfe64736f6c634300081c0033\n}\n",
				"bytecode": {
					"linkReferences": {},
					"object": "6080604052348015600e575f5ffd5b50600180546001600160a01b031916331790556108618061002e5f395ff3fe608060405234801561000f575f5ffd5b5060043610610055575f3560e01c8063092a5cce146100595780633b04f6f1146100635780638da5cb5b1461008157806390b4f12b146100ac578063e93b2a34146100cf575b5f5ffd5b6100616100e2565b005b61006b610165565b6040516100789190610500565b60405180910390f35b600154610094906001600160a01b031681565b6040516001600160a01b039091168152602001610078565b6100bf6100ba36600461058f565b610282565b60405161007894939291906105c4565b6100616100dd366004610608565b610352565b6001546001600160a01b0316331461014f5760405162461bcd60e51b815260206004820152602660248201527f4f6e6c7920746865206f776e65722063616e20706572666f726d20746869732060448201526530b1ba34b7b760d11b606482015260840160405180910390fd5b610157610419565b6001546001600160a01b0316ff5b335f90815260208181526040808320805482518185028101850190935280835260609492939192909184015b82821015610279578382905f5260205f2090600402016040518060800160405290815f820180546101c1906106c8565b80601f01602080910402602001604051908101604052809291908181526020018280546101ed906106c8565b80156102385780601f1061020f57610100808354040283529160200191610238565b820191905f5260205f20905b81548152906001019060200180831161021b57829003601f168201915b50505091835250506001828101546020808401919091526002840154604084015260039093015460ff16151560609092019190915291835292019101610191565b50505050905090565b5f602052815f5260405f20818154811061029a575f80fd5b905f5260205f2090600402015f9150915050805f0180546102ba906106c8565b80601f01602080910402602001604051908101604052809291908181526020018280546102e6906106c8565b80156103315780601f1061030857610100808354040283529160200191610331565b820191905f5260205f20905b81548152906001019060200180831161031457829003601f168201915b50505050600183015460028401546003909401549293909290915060ff1684565b604080516080810182528481526020808201859052818301849052600160608301819052335f908152808352938420805491820181558452922081519192839260049091029091019081906103a7908261074c565b506020820151600182015560408083015160028301556060909201516003909101805460ff19169115159190911790555133907f12eb7199c42b72f63cf254b78178ae5c55e9f28e0d54817eac684b6af020222b9061040b90879087908790610807565b60405180910390a250505050565b335f90815260208190526040812061043091610432565b565b5080545f8255600402905f5260205f20908101906104509190610453565b50565b80821115610488575f610466828261048c565b505f60018201819055600282015560038101805460ff19169055600401610453565b5090565b508054610498906106c8565b5f825580601f106104a7575050565b601f0160209004905f5260205f209081019061045091905b80821115610488575f81556001016104bf565b5f81518084528060208401602086015e5f602082860101526020601f19601f83011685010191505092915050565b5f602082016020835280845180835260408501915060408160051b8601019250602086015f5b8281101561058357603f19878603018452815180516080875261054c60808801826104d2565b60208381015189820152604080850151908a0152606093840151151593909801929092525094938401939190910190600101610526565b50929695505050505050565b5f5f604083850312156105a0575f5ffd5b82356001600160a01b03811681146105b6575f5ffd5b946020939093013593505050565b608081525f6105d660808301876104d2565b60208301959095525060408101929092521515606090910152919050565b634e487b7160e01b5f52604160045260245ffd5b5f5f5f6060848603121561061a575f5ffd5b833567ffffffffffffffff811115610630575f5ffd5b8401601f81018613610640575f5ffd5b803567ffffffffffffffff81111561065a5761065a6105f4565b604051601f8201601f19908116603f0116810167ffffffffffffffff81118282101715610689576106896105f4565b6040528181528282016020018810156106a0575f5ffd5b816020840160208301375f602092820183015297908601359650604090950135949350505050565b600181811c908216806106dc57607f821691505b6020821081036106fa57634e487b7160e01b5f52602260045260245ffd5b50919050565b601f82111561074757805f5260205f20601f840160051c810160208510156107255750805b601f840160051c820191505b81811015610744575f8155600101610731565b50505b505050565b815167ffffffffffffffff811115610766576107666105f4565b61077a8161077484546106c8565b84610700565b6020601f8211600181146107ac575f83156107955750848201515b5f19600385901b1c1916600184901b178455610744565b5f84815260208120601f198516915b828110156107db57878501518255602094850194600190920191016107bb565b50848210156107f857868401515f19600387901b60f8161c191681555b50505050600190811b01905550565b606081525f61081960608301866104d2565b6020830194909452506040015291905056fea26469706673582212201511f3e84828dfffeccd566367e6958d23d304ef4568c787d5c6bd0547524bfe64736f6c634300081c0033",
					"opcodes": "PUSH1 0x80 PUSH1 0x40 MSTORE CALLVALUE DUP1 ISZERO PUSH1 0xE JUMPI PUSH0 PUSH0 REVERT JUMPDEST POP PUSH1 0x1 DUP1 SLOAD PUSH1 0x1 PUSH1 0x1 PUSH1 0xA0 SHL SUB NOT AND CALLER OR SWAP1 SSTORE PUSH2 0x861 DUP1 PUSH2 0x2E PUSH0 CODECOPY PUSH0 RETURN INVALID PUSH1 0x80 PUSH1 0x40 MSTORE CALLVALUE DUP1 ISZERO PUSH2 0xF JUMPI PUSH0 PUSH0 REVERT JUMPDEST POP PUSH1 0x4 CALLDATASIZE LT PUSH2 0x55 JUMPI PUSH0 CALLDATALOAD PUSH1 0xE0 SHR DUP1 PUSH4 0x92A5CCE EQ PUSH2 0x59 JUMPI DUP1 PUSH4 0x3B04F6F1 EQ PUSH2 0x63 JUMPI DUP1 PUSH4 0x8DA5CB5B EQ PUSH2 0x81 JUMPI DUP1 PUSH4 0x90B4F12B EQ PUSH2 0xAC JUMPI DUP1 PUSH4 0xE93B2A34 EQ PUSH2 0xCF JUMPI JUMPDEST PUSH0 PUSH0 REVERT JUMPDEST PUSH2 0x61 PUSH2 0xE2 JUMP JUMPDEST STOP JUMPDEST PUSH2 0x6B PUSH2 0x165 JUMP JUMPDEST PUSH1 0x40 MLOAD PUSH2 0x78 SWAP2 SWAP1 PUSH2 0x500 JUMP JUMPDEST PUSH1 0x40 MLOAD DUP1 SWAP2 SUB SWAP1 RETURN JUMPDEST PUSH1 0x1 SLOAD PUSH2 0x94 SWAP1 PUSH1 0x1 PUSH1 0x1 PUSH1 0xA0 SHL SUB AND DUP2 JUMP JUMPDEST PUSH1 0x40 MLOAD PUSH1 0x1 PUSH1 0x1 PUSH1 0xA0 SHL SUB SWAP1 SWAP2 AND DUP2 MSTORE PUSH1 0x20 ADD PUSH2 0x78 JUMP JUMPDEST PUSH2 0xBF PUSH2 0xBA CALLDATASIZE PUSH1 0x4 PUSH2 0x58F JUMP JUMPDEST PUSH2 0x282 JUMP JUMPDEST PUSH1 0x40 MLOAD PUSH2 0x78 SWAP5 SWAP4 SWAP3 SWAP2 SWAP1 PUSH2 0x5C4 JUMP JUMPDEST PUSH2 0x61 PUSH2 0xDD CALLDATASIZE PUSH1 0x4 PUSH2 0x608 JUMP JUMPDEST PUSH2 0x352 JUMP JUMPDEST PUSH1 0x1 SLOAD PUSH1 0x1 PUSH1 0x1 PUSH1 0xA0 SHL SUB AND CALLER EQ PUSH2 0x14F JUMPI PUSH1 0x40 MLOAD PUSH3 0x461BCD PUSH1 0xE5 SHL DUP2 MSTORE PUSH1 0x20 PUSH1 0x4 DUP3 ADD MSTORE PUSH1 0x26 PUSH1 0x24 DUP3 ADD MSTORE PUSH32 0x4F6E6C7920746865206F776E65722063616E20706572666F726D207468697320 PUSH1 0x44 DUP3 ADD MSTORE PUSH6 0x30B1BA34B7B7 PUSH1 0xD1 SHL PUSH1 0x64 DUP3 ADD MSTORE PUSH1 0x84 ADD PUSH1 0x40 MLOAD DUP1 SWAP2 SUB SWAP1 REVERT JUMPDEST PUSH2 0x157 PUSH2 0x419 JUMP JUMPDEST PUSH1 0x1 SLOAD PUSH1 0x1 PUSH1 0x1 PUSH1 0xA0 SHL SUB AND SELFDESTRUCT JUMPDEST CALLER PUSH0 SWAP1 DUP2 MSTORE PUSH1 0x20 DUP2 DUP2 MSTORE PUSH1 0x40 DUP1 DUP4 KECCAK256 DUP1 SLOAD DUP3 MLOAD DUP2 DUP6 MUL DUP2 ADD DUP6 ADD SWAP1 SWAP4 MSTORE DUP1 DUP4 MSTORE PUSH1 0x60 SWAP5 SWAP3 SWAP4 SWAP2 SWAP3 SWAP1 SWAP2 DUP5 ADD JUMPDEST DUP3 DUP3 LT ISZERO PUSH2 0x279 JUMPI DUP4 DUP3 SWAP1 PUSH0 MSTORE PUSH1 0x20 PUSH0 KECCAK256 SWAP1 PUSH1 0x4 MUL ADD PUSH1 0x40 MLOAD DUP1 PUSH1 0x80 ADD PUSH1 0x40 MSTORE SWAP1 DUP2 PUSH0 DUP3 ADD DUP1 SLOAD PUSH2 0x1C1 SWAP1 PUSH2 0x6C8 JUMP JUMPDEST DUP1 PUSH1 0x1F ADD PUSH1 0x20 DUP1 SWAP2 DIV MUL PUSH1 0x20 ADD PUSH1 0x40 MLOAD SWAP1 DUP2 ADD PUSH1 0x40 MSTORE DUP1 SWAP3 SWAP2 SWAP1 DUP2 DUP2 MSTORE PUSH1 0x20 ADD DUP3 DUP1 SLOAD PUSH2 0x1ED SWAP1 PUSH2 0x6C8 JUMP JUMPDEST DUP1 ISZERO PUSH2 0x238 JUMPI DUP1 PUSH1 0x1F LT PUSH2 0x20F JUMPI PUSH2 0x100 DUP1 DUP4 SLOAD DIV MUL DUP4 MSTORE SWAP2 PUSH1 0x20 ADD SWAP2 PUSH2 0x238 JUMP JUMPDEST DUP3 ADD SWAP2 SWAP1 PUSH0 MSTORE PUSH1 0x20 PUSH0 KECCAK256 SWAP1 JUMPDEST DUP2 SLOAD DUP2 MSTORE SWAP1 PUSH1 0x1 ADD SWAP1 PUSH1 0x20 ADD DUP1 DUP4 GT PUSH2 0x21B JUMPI DUP3 SWAP1 SUB PUSH1 0x1F AND DUP3 ADD SWAP2 JUMPDEST POP POP POP SWAP2 DUP4 MSTORE POP POP PUSH1 0x1 DUP3 DUP2 ADD SLOAD PUSH1 0x20 DUP1 DUP5 ADD SWAP2 SWAP1 SWAP2 MSTORE PUSH1 0x2 DUP5 ADD SLOAD PUSH1 0x40 DUP5 ADD MSTORE PUSH1 0x3 SWAP1 SWAP4 ADD SLOAD PUSH1 0xFF AND ISZERO ISZERO PUSH1 0x60 SWAP1 SWAP3 ADD SWAP2 SWAP1 SWAP2 MSTORE SWAP2 DUP4 MSTORE SWAP3 ADD SWAP2 ADD PUSH2 0x191 JUMP JUMPDEST POP POP POP POP SWAP1 POP SWAP1 JUMP JUMPDEST PUSH0 PUSH1 0x20 MSTORE DUP2 PUSH0 MSTORE PUSH1 0x40 PUSH0 KECCAK256 DUP2 DUP2 SLOAD DUP2 LT PUSH2 0x29A JUMPI PUSH0 DUP1 REVERT JUMPDEST SWAP1 PUSH0 MSTORE PUSH1 0x20 PUSH0 KECCAK256 SWAP1 PUSH1 0x4 MUL ADD PUSH0 SWAP2 POP SWAP2 POP POP DUP1 PUSH0 ADD DUP1 SLOAD PUSH2 0x2BA SWAP1 PUSH2 0x6C8 JUMP JUMPDEST DUP1 PUSH1 0x1F ADD PUSH1 0x20 DUP1 SWAP2 DIV MUL PUSH1 0x20 ADD PUSH1 0x40 MLOAD SWAP1 DUP2 ADD PUSH1 0x40 MSTORE DUP1 SWAP3 SWAP2 SWAP1 DUP2 DUP2 MSTORE PUSH1 0x20 ADD DUP3 DUP1 SLOAD PUSH2 0x2E6 SWAP1 PUSH2 0x6C8 JUMP JUMPDEST DUP1 ISZERO PUSH2 0x331 JUMPI DUP1 PUSH1 0x1F LT PUSH2 0x308 JUMPI PUSH2 0x100 DUP1 DUP4 SLOAD DIV MUL DUP4 MSTORE SWAP2 PUSH1 0x20 ADD SWAP2 PUSH2 0x331 JUMP JUMPDEST DUP3 ADD SWAP2 SWAP1 PUSH0 MSTORE PUSH1 0x20 PUSH0 KECCAK256 SWAP1 JUMPDEST DUP2 SLOAD DUP2 MSTORE SWAP1 PUSH1 0x1 ADD SWAP1 PUSH1 0x20 ADD DUP1 DUP4 GT PUSH2 0x314 JUMPI DUP3 SWAP1 SUB PUSH1 0x1F AND DUP3 ADD SWAP2 JUMPDEST POP POP POP POP PUSH1 0x1 DUP4 ADD SLOAD PUSH1 0x2 DUP5 ADD SLOAD PUSH1 0x3 SWAP1 SWAP5 ADD SLOAD SWAP3 SWAP4 SWAP1 SWAP3 SWAP1 SWAP2 POP PUSH1 0xFF AND DUP5 JUMP JUMPDEST PUSH1 0x40 DUP1 MLOAD PUSH1 0x80 DUP2 ADD DUP3 MSTORE DUP5 DUP2 MSTORE PUSH1 0x20 DUP1 DUP3 ADD DUP6 SWAP1 MSTORE DUP2 DUP4 ADD DUP5 SWAP1 MSTORE PUSH1 0x1 PUSH1 0x60 DUP4 ADD DUP2 SWAP1 MSTORE CALLER PUSH0 SWAP1 DUP2 MSTORE DUP1 DUP4 MSTORE SWAP4 DUP5 KECCAK256 DUP1 SLOAD SWAP2 DUP3 ADD DUP2 SSTORE DUP5 MSTORE SWAP3 KECCAK256 DUP2 MLOAD SWAP2 SWAP3 DUP4 SWAP3 PUSH1 0x4 SWAP1 SWAP2 MUL SWAP1 SWAP2 ADD SWAP1 DUP2 SWAP1 PUSH2 0x3A7 SWAP1 DUP3 PUSH2 0x74C JUMP JUMPDEST POP PUSH1 0x20 DUP3 ADD MLOAD PUSH1 0x1 DUP3 ADD SSTORE PUSH1 0x40 DUP1 DUP4 ADD MLOAD PUSH1 0x2 DUP4 ADD SSTORE PUSH1 0x60 SWAP1 SWAP3 ADD MLOAD PUSH1 0x3 SWAP1 SWAP2 ADD DUP1 SLOAD PUSH1 0xFF NOT AND SWAP2 ISZERO ISZERO SWAP2 SWAP1 SWAP2 OR SWAP1 SSTORE MLOAD CALLER SWAP1 PUSH32 0x12EB7199C42B72F63CF254B78178AE5C55E9F28E0D54817EAC684B6AF020222B SWAP1 PUSH2 0x40B SWAP1 DUP8 SWAP1 DUP8 SWAP1 DUP8 SWAP1 PUSH2 0x807 JUMP JUMPDEST PUSH1 0x40 MLOAD DUP1 SWAP2 SUB SWAP1 LOG2 POP POP POP POP JUMP JUMPDEST CALLER PUSH0 SWAP1 DUP2 MSTORE PUSH1 0x20 DUP2 SWAP1 MSTORE PUSH1 0x40 DUP2 KECCAK256 PUSH2 0x430 SWAP2 PUSH2 0x432 JUMP JUMPDEST JUMP JUMPDEST POP DUP1 SLOAD PUSH0 DUP3 SSTORE PUSH1 0x4 MUL SWAP1 PUSH0 MSTORE PUSH1 0x20 PUSH0 KECCAK256 SWAP1 DUP2 ADD SWAP1 PUSH2 0x450 SWAP2 SWAP1 PUSH2 0x453 JUMP JUMPDEST POP JUMP JUMPDEST DUP1 DUP3 GT ISZERO PUSH2 0x488 JUMPI PUSH0 PUSH2 0x466 DUP3 DUP3 PUSH2 0x48C JUMP JUMPDEST POP PUSH0 PUSH1 0x1 DUP3 ADD DUP2 SWAP1 SSTORE PUSH1 0x2 DUP3 ADD SSTORE PUSH1 0x3 DUP2 ADD DUP1 SLOAD PUSH1 0xFF NOT AND SWAP1 SSTORE PUSH1 0x4 ADD PUSH2 0x453 JUMP JUMPDEST POP SWAP1 JUMP JUMPDEST POP DUP1 SLOAD PUSH2 0x498 SWAP1 PUSH2 0x6C8 JUMP JUMPDEST PUSH0 DUP3 SSTORE DUP1 PUSH1 0x1F LT PUSH2 0x4A7 JUMPI POP POP JUMP JUMPDEST PUSH1 0x1F ADD PUSH1 0x20 SWAP1 DIV SWAP1 PUSH0 MSTORE PUSH1 0x20 PUSH0 KECCAK256 SWAP1 DUP2 ADD SWAP1 PUSH2 0x450 SWAP2 SWAP1 JUMPDEST DUP1 DUP3 GT ISZERO PUSH2 0x488 JUMPI PUSH0 DUP2 SSTORE PUSH1 0x1 ADD PUSH2 0x4BF JUMP JUMPDEST PUSH0 DUP2 MLOAD DUP1 DUP5 MSTORE DUP1 PUSH1 0x20 DUP5 ADD PUSH1 0x20 DUP7 ADD MCOPY PUSH0 PUSH1 0x20 DUP3 DUP7 ADD ADD MSTORE PUSH1 0x20 PUSH1 0x1F NOT PUSH1 0x1F DUP4 ADD AND DUP6 ADD ADD SWAP2 POP POP SWAP3 SWAP2 POP POP JUMP JUMPDEST PUSH0 PUSH1 0x20 DUP3 ADD PUSH1 0x20 DUP4 MSTORE DUP1 DUP5 MLOAD DUP1 DUP4 MSTORE PUSH1 0x40 DUP6 ADD SWAP2 POP PUSH1 0x40 DUP2 PUSH1 0x5 SHL DUP7 ADD ADD SWAP3 POP PUSH1 0x20 DUP7 ADD PUSH0 JUMPDEST DUP3 DUP2 LT ISZERO PUSH2 0x583 JUMPI PUSH1 0x3F NOT DUP8 DUP7 SUB ADD DUP5 MSTORE DUP2 MLOAD DUP1 MLOAD PUSH1 0x80 DUP8 MSTORE PUSH2 0x54C PUSH1 0x80 DUP9 ADD DUP3 PUSH2 0x4D2 JUMP JUMPDEST PUSH1 0x20 DUP4 DUP2 ADD MLOAD DUP10 DUP3 ADD MSTORE PUSH1 0x40 DUP1 DUP6 ADD MLOAD SWAP1 DUP11 ADD MSTORE PUSH1 0x60 SWAP4 DUP5 ADD MLOAD ISZERO ISZERO SWAP4 SWAP1 SWAP9 ADD SWAP3 SWAP1 SWAP3 MSTORE POP SWAP5 SWAP4 DUP5 ADD SWAP4 SWAP2 SWAP1 SWAP2 ADD SWAP1 PUSH1 0x1 ADD PUSH2 0x526 JUMP JUMPDEST POP SWAP3 SWAP7 SWAP6 POP POP POP POP POP POP JUMP JUMPDEST PUSH0 PUSH0 PUSH1 0x40 DUP4 DUP6 SUB SLT ISZERO PUSH2 0x5A0 JUMPI PUSH0 PUSH0 REVERT JUMPDEST DUP3 CALLDATALOAD PUSH1 0x1 PUSH1 0x1 PUSH1 0xA0 SHL SUB DUP2 AND DUP2 EQ PUSH2 0x5B6 JUMPI PUSH0 PUSH0 REVERT JUMPDEST SWAP5 PUSH1 0x20 SWAP4 SWAP1 SWAP4 ADD CALLDATALOAD SWAP4 POP POP POP JUMP JUMPDEST PUSH1 0x80 DUP2 MSTORE PUSH0 PUSH2 0x5D6 PUSH1 0x80 DUP4 ADD DUP8 PUSH2 0x4D2 JUMP JUMPDEST PUSH1 0x20 DUP4 ADD SWAP6 SWAP1 SWAP6 MSTORE POP PUSH1 0x40 DUP2 ADD SWAP3 SWAP1 SWAP3 MSTORE ISZERO ISZERO PUSH1 0x60 SWAP1 SWAP2 ADD MSTORE SWAP2 SWAP1 POP JUMP JUMPDEST PUSH4 0x4E487B71 PUSH1 0xE0 SHL PUSH0 MSTORE PUSH1 0x41 PUSH1 0x4 MSTORE PUSH1 0x24 PUSH0 REVERT JUMPDEST PUSH0 PUSH0 PUSH0 PUSH1 0x60 DUP5 DUP7 SUB SLT ISZERO PUSH2 0x61A JUMPI PUSH0 PUSH0 REVERT JUMPDEST DUP4 CALLDATALOAD PUSH8 0xFFFFFFFFFFFFFFFF DUP2 GT ISZERO PUSH2 0x630 JUMPI PUSH0 PUSH0 REVERT JUMPDEST DUP5 ADD PUSH1 0x1F DUP2 ADD DUP7 SGT PUSH2 0x640 JUMPI PUSH0 PUSH0 REVERT JUMPDEST DUP1 CALLDATALOAD PUSH8 0xFFFFFFFFFFFFFFFF DUP2 GT ISZERO PUSH2 0x65A JUMPI PUSH2 0x65A PUSH2 0x5F4 JUMP JUMPDEST PUSH1 0x40 MLOAD PUSH1 0x1F DUP3 ADD PUSH1 0x1F NOT SWAP1 DUP2 AND PUSH1 0x3F ADD AND DUP2 ADD PUSH8 0xFFFFFFFFFFFFFFFF DUP2 GT DUP3 DUP3 LT OR ISZERO PUSH2 0x689 JUMPI PUSH2 0x689 PUSH2 0x5F4 JUMP JUMPDEST PUSH1 0x40 MSTORE DUP2 DUP2 MSTORE DUP3 DUP3 ADD PUSH1 0x20 ADD DUP9 LT ISZERO PUSH2 0x6A0 JUMPI PUSH0 PUSH0 REVERT JUMPDEST DUP2 PUSH1 0x20 DUP5 ADD PUSH1 0x20 DUP4 ADD CALLDATACOPY PUSH0 PUSH1 0x20 SWAP3 DUP3 ADD DUP4 ADD MSTORE SWAP8 SWAP1 DUP7 ADD CALLDATALOAD SWAP7 POP PUSH1 0x40 SWAP1 SWAP6 ADD CALLDATALOAD SWAP5 SWAP4 POP POP POP POP JUMP JUMPDEST PUSH1 0x1 DUP2 DUP2 SHR SWAP1 DUP3 AND DUP1 PUSH2 0x6DC JUMPI PUSH1 0x7F DUP3 AND SWAP2 POP JUMPDEST PUSH1 0x20 DUP3 LT DUP2 SUB PUSH2 0x6FA JUMPI PUSH4 0x4E487B71 PUSH1 0xE0 SHL PUSH0 MSTORE PUSH1 0x22 PUSH1 0x4 MSTORE PUSH1 0x24 PUSH0 REVERT JUMPDEST POP SWAP2 SWAP1 POP JUMP JUMPDEST PUSH1 0x1F DUP3 GT ISZERO PUSH2 0x747 JUMPI DUP1 PUSH0 MSTORE PUSH1 0x20 PUSH0 KECCAK256 PUSH1 0x1F DUP5 ADD PUSH1 0x5 SHR DUP2 ADD PUSH1 0x20 DUP6 LT ISZERO PUSH2 0x725 JUMPI POP DUP1 JUMPDEST PUSH1 0x1F DUP5 ADD PUSH1 0x5 SHR DUP3 ADD SWAP2 POP JUMPDEST DUP2 DUP2 LT ISZERO PUSH2 0x744 JUMPI PUSH0 DUP2 SSTORE PUSH1 0x1 ADD PUSH2 0x731 JUMP JUMPDEST POP POP JUMPDEST POP POP POP JUMP JUMPDEST DUP2 MLOAD PUSH8 0xFFFFFFFFFFFFFFFF DUP2 GT ISZERO PUSH2 0x766 JUMPI PUSH2 0x766 PUSH2 0x5F4 JUMP JUMPDEST PUSH2 0x77A DUP2 PUSH2 0x774 DUP5 SLOAD PUSH2 0x6C8 JUMP JUMPDEST DUP5 PUSH2 0x700 JUMP JUMPDEST PUSH1 0x20 PUSH1 0x1F DUP3 GT PUSH1 0x1 DUP2 EQ PUSH2 0x7AC JUMPI PUSH0 DUP4 ISZERO PUSH2 0x795 JUMPI POP DUP5 DUP3 ADD MLOAD JUMPDEST PUSH0 NOT PUSH1 0x3 DUP6 SWAP1 SHL SHR NOT AND PUSH1 0x1 DUP5 SWAP1 SHL OR DUP5 SSTORE PUSH2 0x744 JUMP JUMPDEST PUSH0 DUP5 DUP2 MSTORE PUSH1 0x20 DUP2 KECCAK256 PUSH1 0x1F NOT DUP6 AND SWAP2 JUMPDEST DUP3 DUP2 LT ISZERO PUSH2 0x7DB JUMPI DUP8 DUP6 ADD MLOAD DUP3 SSTORE PUSH1 0x20 SWAP5 DUP6 ADD SWAP5 PUSH1 0x1 SWAP1 SWAP3 ADD SWAP2 ADD PUSH2 0x7BB JUMP JUMPDEST POP DUP5 DUP3 LT ISZERO PUSH2 0x7F8 JUMPI DUP7 DUP5 ADD MLOAD PUSH0 NOT PUSH1 0x3 DUP8 SWAP1 SHL PUSH1 0xF8 AND SHR NOT AND DUP2 SSTORE JUMPDEST POP POP POP POP PUSH1 0x1 SWAP1 DUP2 SHL ADD SWAP1 SSTORE POP JUMP JUMPDEST PUSH1 0x60 DUP2 MSTORE PUSH0 PUSH2 0x819 PUSH1 0x60 DUP4 ADD DUP7 PUSH2 0x4D2 JUMP JUMPDEST PUSH1 0x20 DUP4 ADD SWAP5 SWAP1 SWAP5 MSTORE POP PUSH1 0x40 ADD MSTORE SWAP2 SWAP1 POP JUMP INVALID LOG2 PUSH5 0x6970667358 0x22 SLT KECCAK256 ISZERO GT RETURN 0xE8 BASEFEE 0x28 0xDF SELFDESTRUCT 0xEC 0xCD JUMP PUSH4 0x67E6958D 0x23 0xD3 DIV 0xEF GASLIMIT PUSH9 0xC787D5C6BD0547524B INVALID PUSH5 0x736F6C6343 STOP ADDMOD SHR STOP CALLER "
				},
				"gasEstimates": {
					"creation": {
						"codeDepositCost": "429000",
						"executionCost": "24701",
						"totalCost": "453701"
					},
					"external": {
						"createPolicy(string,uint256,uint256)": "infinite",
						"destroyContract()": "infinite",
						"getPolicies()": "infinite",
						"owner()": "2358",
						"policies(address,uint256)": "infinite"
					},
					"internal": {
						"_cleanUp()": "infinite"
					}
				},
				"methodIdentifiers": {
					"createPolicy(string,uint256,uint256)": "e93b2a34",
					"destroyContract()": "092a5cce",
					"getPolicies()": "3b04f6f1",
					"owner()": "8da5cb5b",
					"policies(address,uint256)": "90b4f12b"
				}
			},
			"storageLayout": {
				"storage": [
					{
						"astId": 16,
						"contract": "insurance contract/insuranceSelfDestruct.sol:Insurance",
						"label": "policies",
						"offset": 0,
						"slot": "0",
						"type": "t_mapping(t_address,t_array(t_struct(Policy)10_storage)dyn_storage)"
					},
					{
						"astId": 77,
						"contract": "insurance contract/insuranceSelfDestruct.sol:Insurance",
						"label": "owner",
						"offset": 0,
						"slot": "1",
						"type": "t_address"
					}
				],
				"types": {
					"t_address": {
						"encoding": "inplace",
						"label": "address",
						"numberOfBytes": "20"
					},
					"t_array(t_struct(Policy)10_storage)dyn_storage": {
						"base": "t_struct(Policy)10_storage",
						"encoding": "dynamic_array",
						"label": "struct Insurance.Policy[]",
						"numberOfBytes": "32"
					},
					"t_bool": {
						"encoding": "inplace",
						"label": "bool",
						"numberOfBytes": "1"
					},
					"t_mapping(t_address,t_array(t_struct(Policy)10_storage)dyn_storage)": {
						"encoding": "mapping",
						"key": "t_address",
						"label": "mapping(address => struct Insurance.Policy[])",
						"numberOfBytes": "32",
						"value": "t_array(t_struct(Policy)10_storage)dyn_storage"
					},
					"t_string_storage": {
						"encoding": "bytes",
						"label": "string",
						"numberOfBytes": "32"
					},
					"t_struct(Policy)10_storage": {
						"encoding": "inplace",
						"label": "struct Insurance.Policy",
						"members": [
							{
								"astId": 3,
								"contract": "insurance contract/insuranceSelfDestruct.sol:Insurance",
								"label": "policyName",
								"offset": 0,
								"slot": "0",
								"type": "t_string_storage"
							},
							{
								"astId": 5,
								"contract": "insurance contract/insuranceSelfDestruct.sol:Insurance",
								"label": "premium",
								"offset": 0,
								"slot": "1",
								"type": "t_uint256"
							},
							{
								"astId": 7,
								"contract": "insurance contract/insuranceSelfDestruct.sol:Insurance",
								"label": "coverageAmount",
								"offset": 0,
								"slot": "2",
								"type": "t_uint256"
							},
							{
								"astId": 9,
								"contract": "insurance contract/insuranceSelfDestruct.sol:Insurance",
								"label": "isActive",
								"offset": 0,
								"slot": "3",
								"type": "t_bool"
							}
						],
						"numberOfBytes": "128"
					},
					"t_uint256": {
						"encoding": "inplace",
						"label": "uint256",
						"numberOfBytes": "32"
					}
				}
			},
			"userdoc": {
				"kind": "user",
				"methods": {},
				"version": 1
			}
		}
	}
}