{
	"data": {
		"bytecode": {
			"linkReferences": {},
			"object": "60806040525f80546001600160a01b031916735b38da6a701c568545dcfcb03fcb875f56beddc41790553480156033575f5ffd5b5060a680603f5f395ff3fe6080604052348015600e575f5ffd5b50600436106030575f3560e01c806303c59247146034578063f13a38a6146061575b5f5ffd5b5f546045906001600160a01b031681565b6040516001600160a01b03909116815260200160405180910390f35b5f546001600160a01b0316604556fea26469706673582212204d85b6e613ff283cf1ca7a39994d2052f014be502f0f04e83deedabf83b260c164736f6c634300081c0033",
			"opcodes": "PUSH1 0x80 PUSH1 0x40 MSTORE PUSH0 DUP1 SLOAD PUSH1 0x1 PUSH1 0x1 PUSH1 0xA0 SHL SUB NOT AND PUSH20 0x5B38DA6A701C568545DCFCB03FCB875F56BEDDC4 OR SWAP1 SSTORE CALLVALUE DUP1 ISZERO PUSH1 0x33 JUMPI PUSH0 PUSH0 REVERT JUMPDEST POP PUSH1 0xA6 DUP1 PUSH1 0x3F PUSH0 CODECOPY PUSH0 RETURN INVALID PUSH1 0x80 PUSH1 0x40 MSTORE CALLVALUE DUP1 ISZERO PUSH1 0xE JUMPI PUSH0 PUSH0 REVERT JUMPDEST POP PUSH1 0x4 CALLDATASIZE LT PUSH1 0x30 JUMPI PUSH0 CALLDATALOAD PUSH1 0xE0 SHR DUP1 PUSH4 0x3C59247 EQ PUSH1 0x34 JUMPI DUP1 PUSH4 0xF13A38A6 EQ PUSH1 0x61 JUMPI JUMPDEST PUSH0 PUSH0 REVERT JUMPDEST PUSH0 SLOAD PUSH1 0x45 SWAP1 PUSH1 0x1 PUSH1 0x1 PUSH1 0xA0 SHL SUB AND DUP2 JUMP JUMPDEST PUSH1 0x40 MLOAD PUSH1 0x1 PUSH1 0x1 PUSH1 0xA0 SHL SUB SWAP1 SWAP2 AND DUP2 MSTORE PUSH1 0x20 ADD PUSH1 0x40 MLOAD DUP1 SWAP2 SUB SWAP1 RETURN JUMPDEST PUSH0 SLOAD PUSH1 0x1 PUSH1 0x1 PUSH1 0xA0 SHL SUB AND PUSH1 0x45 JUMP INVALID LOG2 PUSH5 0x6970667358 0x22 SLT KECCAK256 0x4D DUP6 0xB6 0xE6 SGT SELFDESTRUCT 0x28 EXTCODECOPY CALL 0xCA PUSH27 0x39994D2052F014BE502F0F04E83DEEDABF83B260C164736F6C6343 STOP ADDMOD SHR STOP CALLER "
		},
		"gasEstimates": {
			"creation": {
				"codeDepositCost": "33200",
				"executionCost": "24320",
				"totalCost": "57520"
			},
			"external": {
				"getConstant()": "2317",
				"myAdd()": "2301"
			}
		},
		"methodIdentifiers": {
			"getConstant()": "f13a38a6",
			"myAdd()": "03c59247"
		}
	},
	"abi": [
		{
			"inputs": [],
			"name": "getConstant",
			"outputs": [
				{
					"internalType": "address",
					"name": "",
					"type": "address"
				}
			],
			"stateMutability": "view",
			"type": "function"
		},
		{
			"inputs": [],
			"name": "myAdd",
			"outputs": [
				{
					"internalType": "address",
					"name": "",
					"type": "address"
				}
			],
			"stateMutability": "view",
			"type": "function"
		}
	]
}