{
	"data": {
		"bytecode": {
			"linkReferences": {},
			"object": "60c0604052601660809081527f627579207520317468206576656e74207469636b65740000000000000000000060a05260069061003c9082610158565b50348015610048575f5ffd5b5060405161054a38038061054a83398101604081905261006791610212565b600181905542600381905561007f9062093a8061023d565b600455600354601890603c90610096908290610256565b6100a09190610256565b6100aa9190610256565b6004546100b79190610275565b60055550610288565b634e487b7160e01b5f52604160045260245ffd5b600181811c908216806100e857607f821691505b60208210810361010657634e487b7160e01b5f52602260045260245ffd5b50919050565b601f82111561015357805f5260205f20601f840160051c810160208510156101315750805b601f840160051c820191505b81811015610150575f815560010161013d565b50505b505050565b81516001600160401b03811115610171576101716100c0565b6101858161017f84546100d4565b8461010c565b6020601f8211600181146101b7575f83156101a05750848201515b5f19600385901b1c1916600184901b178455610150565b5f84815260208120601f198516915b828110156101e657878501518255602094850194600190920191016101c6565b508482101561020357868401515f19600387901b60f8161c191681555b50505050600190811b01905550565b5f60208284031215610222575f5ffd5b5051919050565b634e487b7160e01b5f52601160045260245ffd5b8082018082111561025057610250610229565b92915050565b5f8261027057634e487b7160e01b5f52601260045260245ffd5b500490565b8181038181111561025057610250610229565b6102b5806102955f395ff3fe608060405234801561000f575f5ffd5b5060043610610085575f3560e01c80637cc3ae8c116100585780637cc3ae8c146100ca578063c7446565146100d3578063e21f37ce146100dc578063f454f2e0146100f1575f5ffd5b80631209b1f6146100895780631a39d8ef146100a55780636284568a146100ae57806367dd74ca146100b7575b5f5ffd5b61009260015481565b6040519081526020015b60405180910390f35b61009260025481565b61009260055481565b6100926100c53660046101b6565b6100f9565b61009260045481565b61009260035481565b6100e461012a565b60405161009c91906101cd565b6100925f5481565b5f8054818061010783610216565b91905055508160025f82825461011d919061022e565b90915550505f5492915050565b6006805461013790610247565b80601f016020809104026020016040519081016040528092919081815260200182805461016390610247565b80156101ae5780601f10610185576101008083540402835291602001916101ae565b820191905f5260205f20905b81548152906001019060200180831161019157829003601f168201915b505050505081565b5f602082840312156101c6575f5ffd5b5035919050565b602081525f82518060208401528060208501604085015e5f604082850101526040601f19601f83011684010191505092915050565b634e487b7160e01b5f52601160045260245ffd5b5f6001820161022757610227610202565b5060010190565b8082018082111561024157610241610202565b92915050565b600181811c9082168061025b57607f821691505b60208210810361027957634e487b7160e01b5f52602260045260245ffd5b5091905056fea264697066735822122027fd8c2b6fbde82b8725958f7c8d6ba4243aa4442d8fe108bf28ee4ccc35598c64736f6c634300081c0033",
			"opcodes": "PUSH1 0xC0 PUSH1 0x40 MSTORE PUSH1 0x16 PUSH1 0x80 SWAP1 DUP2 MSTORE PUSH32 0x627579207520317468206576656E74207469636B657400000000000000000000 PUSH1 0xA0 MSTORE PUSH1 0x6 SWAP1 PUSH2 0x3C SWAP1 DUP3 PUSH2 0x158 JUMP JUMPDEST POP CALLVALUE DUP1 ISZERO PUSH2 0x48 JUMPI PUSH0 PUSH0 REVERT JUMPDEST POP PUSH1 0x40 MLOAD PUSH2 0x54A CODESIZE SUB DUP1 PUSH2 0x54A DUP4 CODECOPY DUP2 ADD PUSH1 0x40 DUP2 SWAP1 MSTORE PUSH2 0x67 SWAP2 PUSH2 0x212 JUMP JUMPDEST PUSH1 0x1 DUP2 SWAP1 SSTORE TIMESTAMP PUSH1 0x3 DUP2 SWAP1 SSTORE PUSH2 0x7F SWAP1 PUSH3 0x93A80 PUSH2 0x23D JUMP JUMPDEST PUSH1 0x4 SSTORE PUSH1 0x3 SLOAD PUSH1 0x18 SWAP1 PUSH1 0x3C SWAP1 PUSH2 0x96 SWAP1 DUP3 SWAP1 PUSH2 0x256 JUMP JUMPDEST PUSH2 0xA0 SWAP2 SWAP1 PUSH2 0x256 JUMP JUMPDEST PUSH2 0xAA SWAP2 SWAP1 PUSH2 0x256 JUMP JUMPDEST PUSH1 0x4 SLOAD PUSH2 0xB7 SWAP2 SWAP1 PUSH2 0x275 JUMP JUMPDEST PUSH1 0x5 SSTORE POP PUSH2 0x288 JUMP JUMPDEST PUSH4 0x4E487B71 PUSH1 0xE0 SHL PUSH0 MSTORE PUSH1 0x41 PUSH1 0x4 MSTORE PUSH1 0x24 PUSH0 REVERT JUMPDEST PUSH1 0x1 DUP2 DUP2 SHR SWAP1 DUP3 AND DUP1 PUSH2 0xE8 JUMPI PUSH1 0x7F DUP3 AND SWAP2 POP JUMPDEST PUSH1 0x20 DUP3 LT DUP2 SUB PUSH2 0x106 JUMPI PUSH4 0x4E487B71 PUSH1 0xE0 SHL PUSH0 MSTORE PUSH1 0x22 PUSH1 0x4 MSTORE PUSH1 0x24 PUSH0 REVERT JUMPDEST POP SWAP2 SWAP1 POP JUMP JUMPDEST PUSH1 0x1F DUP3 GT ISZERO PUSH2 0x153 JUMPI DUP1 PUSH0 MSTORE PUSH1 0x20 PUSH0 KECCAK256 PUSH1 0x1F DUP5 ADD PUSH1 0x5 SHR DUP2 ADD PUSH1 0x20 DUP6 LT ISZERO PUSH2 0x131 JUMPI POP DUP1 JUMPDEST PUSH1 0x1F DUP5 ADD PUSH1 0x5 SHR DUP3 ADD SWAP2 POP JUMPDEST DUP2 DUP2 LT ISZERO PUSH2 0x150 JUMPI PUSH0 DUP2 SSTORE PUSH1 0x1 ADD PUSH2 0x13D JUMP JUMPDEST POP POP JUMPDEST POP POP POP JUMP JUMPDEST DUP2 MLOAD PUSH1 0x1 PUSH1 0x1 PUSH1 0x40 SHL SUB DUP2 GT ISZERO PUSH2 0x171 JUMPI PUSH2 0x171 PUSH2 0xC0 JUMP JUMPDEST PUSH2 0x185 DUP2 PUSH2 0x17F DUP5 SLOAD PUSH2 0xD4 JUMP JUMPDEST DUP5 PUSH2 0x10C JUMP JUMPDEST PUSH1 0x20 PUSH1 0x1F DUP3 GT PUSH1 0x1 DUP2 EQ PUSH2 0x1B7 JUMPI PUSH0 DUP4 ISZERO PUSH2 0x1A0 JUMPI POP DUP5 DUP3 ADD MLOAD JUMPDEST PUSH0 NOT PUSH1 0x3 DUP6 SWAP1 SHL SHR NOT AND PUSH1 0x1 DUP5 SWAP1 SHL OR DUP5 SSTORE PUSH2 0x150 JUMP JUMPDEST PUSH0 DUP5 DUP2 MSTORE PUSH1 0x20 DUP2 KECCAK256 PUSH1 0x1F NOT DUP6 AND SWAP2 JUMPDEST DUP3 DUP2 LT ISZERO PUSH2 0x1E6 JUMPI DUP8 DUP6 ADD MLOAD DUP3 SSTORE PUSH1 0x20 SWAP5 DUP6 ADD SWAP5 PUSH1 0x1 SWAP1 SWAP3 ADD SWAP2 ADD PUSH2 0x1C6 JUMP JUMPDEST POP DUP5 DUP3 LT ISZERO PUSH2 0x203 JUMPI DUP7 DUP5 ADD MLOAD PUSH0 NOT PUSH1 0x3 DUP8 SWAP1 SHL PUSH1 0xF8 AND SHR NOT AND DUP2 SSTORE JUMPDEST POP POP POP POP PUSH1 0x1 SWAP1 DUP2 SHL ADD SWAP1 SSTORE POP JUMP JUMPDEST PUSH0 PUSH1 0x20 DUP3 DUP5 SUB SLT ISZERO PUSH2 0x222 JUMPI PUSH0 PUSH0 REVERT JUMPDEST POP MLOAD SWAP2 SWAP1 POP JUMP JUMPDEST PUSH4 0x4E487B71 PUSH1 0xE0 SHL PUSH0 MSTORE PUSH1 0x11 PUSH1 0x4 MSTORE PUSH1 0x24 PUSH0 REVERT JUMPDEST DUP1 DUP3 ADD DUP1 DUP3 GT ISZERO PUSH2 0x250 JUMPI PUSH2 0x250 PUSH2 0x229 JUMP JUMPDEST SWAP3 SWAP2 POP POP JUMP JUMPDEST PUSH0 DUP3 PUSH2 0x270 JUMPI PUSH4 0x4E487B71 PUSH1 0xE0 SHL PUSH0 MSTORE PUSH1 0x12 PUSH1 0x4 MSTORE PUSH1 0x24 PUSH0 REVERT JUMPDEST POP DIV SWAP1 JUMP JUMPDEST DUP2 DUP2 SUB DUP2 DUP2 GT ISZERO PUSH2 0x250 JUMPI PUSH2 0x250 PUSH2 0x229 JUMP JUMPDEST PUSH2 0x2B5 DUP1 PUSH2 0x295 PUSH0 CODECOPY PUSH0 RETURN INVALID PUSH1 0x80 PUSH1 0x40 MSTORE CALLVALUE DUP1 ISZERO PUSH2 0xF JUMPI PUSH0 PUSH0 REVERT JUMPDEST POP PUSH1 0x4 CALLDATASIZE LT PUSH2 0x85 JUMPI PUSH0 CALLDATALOAD PUSH1 0xE0 SHR DUP1 PUSH4 0x7CC3AE8C GT PUSH2 0x58 JUMPI DUP1 PUSH4 0x7CC3AE8C EQ PUSH2 0xCA JUMPI DUP1 PUSH4 0xC7446565 EQ PUSH2 0xD3 JUMPI DUP1 PUSH4 0xE21F37CE EQ PUSH2 0xDC JUMPI DUP1 PUSH4 0xF454F2E0 EQ PUSH2 0xF1 JUMPI PUSH0 PUSH0 REVERT JUMPDEST DUP1 PUSH4 0x1209B1F6 EQ PUSH2 0x89 JUMPI DUP1 PUSH4 0x1A39D8EF EQ PUSH2 0xA5 JUMPI DUP1 PUSH4 0x6284568A EQ PUSH2 0xAE JUMPI DUP1 PUSH4 0x67DD74CA EQ PUSH2 0xB7 JUMPI JUMPDEST PUSH0 PUSH0 REVERT JUMPDEST PUSH2 0x92 PUSH1 0x1 SLOAD DUP2 JUMP JUMPDEST PUSH1 0x40 MLOAD SWAP1 DUP2 MSTORE PUSH1 0x20 ADD JUMPDEST PUSH1 0x40 MLOAD DUP1 SWAP2 SUB SWAP1 RETURN JUMPDEST PUSH2 0x92 PUSH1 0x2 SLOAD DUP2 JUMP JUMPDEST PUSH2 0x92 PUSH1 0x5 SLOAD DUP2 JUMP JUMPDEST PUSH2 0x92 PUSH2 0xC5 CALLDATASIZE PUSH1 0x4 PUSH2 0x1B6 JUMP JUMPDEST PUSH2 0xF9 JUMP JUMPDEST PUSH2 0x92 PUSH1 0x4 SLOAD DUP2 JUMP JUMPDEST PUSH2 0x92 PUSH1 0x3 SLOAD DUP2 JUMP JUMPDEST PUSH2 0xE4 PUSH2 0x12A JUMP JUMPDEST PUSH1 0x40 MLOAD PUSH2 0x9C SWAP2 SWAP1 PUSH2 0x1CD JUMP JUMPDEST PUSH2 0x92 PUSH0 SLOAD DUP2 JUMP JUMPDEST PUSH0 DUP1 SLOAD DUP2 DUP1 PUSH2 0x107 DUP4 PUSH2 0x216 JUMP JUMPDEST SWAP2 SWAP1 POP SSTORE POP DUP2 PUSH1 0x2 PUSH0 DUP3 DUP3 SLOAD PUSH2 0x11D SWAP2 SWAP1 PUSH2 0x22E JUMP JUMPDEST SWAP1 SWAP2 SSTORE POP POP PUSH0 SLOAD SWAP3 SWAP2 POP POP JUMP JUMPDEST PUSH1 0x6 DUP1 SLOAD PUSH2 0x137 SWAP1 PUSH2 0x247 JUMP JUMPDEST DUP1 PUSH1 0x1F ADD PUSH1 0x20 DUP1 SWAP2 DIV MUL PUSH1 0x20 ADD PUSH1 0x40 MLOAD SWAP1 DUP2 ADD PUSH1 0x40 MSTORE DUP1 SWAP3 SWAP2 SWAP1 DUP2 DUP2 MSTORE PUSH1 0x20 ADD DUP3 DUP1 SLOAD PUSH2 0x163 SWAP1 PUSH2 0x247 JUMP JUMPDEST DUP1 ISZERO PUSH2 0x1AE JUMPI DUP1 PUSH1 0x1F LT PUSH2 0x185 JUMPI PUSH2 0x100 DUP1 DUP4 SLOAD DIV MUL DUP4 MSTORE SWAP2 PUSH1 0x20 ADD SWAP2 PUSH2 0x1AE JUMP JUMPDEST DUP3 ADD SWAP2 SWAP1 PUSH0 MSTORE PUSH1 0x20 PUSH0 KECCAK256 SWAP1 JUMPDEST DUP2 SLOAD DUP2 MSTORE SWAP1 PUSH1 0x1 ADD SWAP1 PUSH1 0x20 ADD DUP1 DUP4 GT PUSH2 0x191 JUMPI DUP3 SWAP1 SUB PUSH1 0x1F AND DUP3 ADD SWAP2 JUMPDEST POP POP POP POP POP DUP2 JUMP JUMPDEST PUSH0 PUSH1 0x20 DUP3 DUP5 SUB SLT ISZERO PUSH2 0x1C6 JUMPI PUSH0 PUSH0 REVERT JUMPDEST POP CALLDATALOAD SWAP2 SWAP1 POP JUMP JUMPDEST PUSH1 0x20 DUP2 MSTORE PUSH0 DUP3 MLOAD DUP1 PUSH1 0x20 DUP5 ADD MSTORE DUP1 PUSH1 0x20 DUP6 ADD PUSH1 0x40 DUP6 ADD MCOPY PUSH0 PUSH1 0x40 DUP3 DUP6 ADD ADD MSTORE PUSH1 0x40 PUSH1 0x1F NOT PUSH1 0x1F DUP4 ADD AND DUP5 ADD ADD SWAP2 POP POP SWAP3 SWAP2 POP POP JUMP JUMPDEST PUSH4 0x4E487B71 PUSH1 0xE0 SHL PUSH0 MSTORE PUSH1 0x11 PUSH1 0x4 MSTORE PUSH1 0x24 PUSH0 REVERT JUMPDEST PUSH0 PUSH1 0x1 DUP3 ADD PUSH2 0x227 JUMPI PUSH2 0x227 PUSH2 0x202 JUMP JUMPDEST POP PUSH1 0x1 ADD SWAP1 JUMP JUMPDEST DUP1 DUP3 ADD DUP1 DUP3 GT ISZERO PUSH2 0x241 JUMPI PUSH2 0x241 PUSH2 0x202 JUMP JUMPDEST SWAP3 SWAP2 POP POP JUMP JUMPDEST PUSH1 0x1 DUP2 DUP2 SHR SWAP1 DUP3 AND DUP1 PUSH2 0x25B JUMPI PUSH1 0x7F DUP3 AND SWAP2 POP JUMPDEST PUSH1 0x20 DUP3 LT DUP2 SUB PUSH2 0x279 JUMPI PUSH4 0x4E487B71 PUSH1 0xE0 SHL PUSH0 MSTORE PUSH1 0x22 PUSH1 0x4 MSTORE PUSH1 0x24 PUSH0 REVERT JUMPDEST POP SWAP2 SWAP1 POP JUMP INVALID LOG2 PUSH5 0x6970667358 0x22 SLT KECCAK256 0x27 REVERT DUP13 0x2B PUSH16 0xBDE82B8725958F7C8D6BA4243AA4442D DUP16 0xE1 ADDMOD 0xBF 0x28 0xEE 0x4C 0xCC CALLDATALOAD MSIZE DUP13 PUSH5 0x736F6C6343 STOP ADDMOD SHR STOP CALLER "
		},
		"gasEstimates": {
			"creation": {
				"codeDepositCost": "138600",
				"executionCost": "infinite",
				"totalCost": "infinite"
			},
			"external": {
				"buyTicket(uint256)": "51027",
				"endAt()": "2283",
				"message()": "infinite",
				"numberOfTicket()": "2348",
				"startAt()": "2305",
				"ticketPrice()": "2284",
				"timeRange()": "2328",
				"totalAmount()": "2306"
			}
		},
		"methodIdentifiers": {
			"buyTicket(uint256)": "67dd74ca",
			"endAt()": "7cc3ae8c",
			"message()": "e21f37ce",
			"numberOfTicket()": "f454f2e0",
			"startAt()": "c7446565",
			"ticketPrice()": "1209b1f6",
			"timeRange()": "6284568a",
			"totalAmount()": "1a39d8ef"
		}
	},
	"abi": [
		{
			"inputs": [
				{
					"internalType": "uint256",
					"name": "_ticketPrice",
					"type": "uint256"
				}
			],
			"stateMutability": "nonpayable",
			"type": "constructor"
		},
		{
			"inputs": [
				{
					"internalType": "uint256",
					"name": "_value",
					"type": "uint256"
				}
			],
			"name": "buyTicket",
			"outputs": [
				{
					"internalType": "uint256",
					"name": "ticketId",
					"type": "uint256"
				}
			],
			"stateMutability": "nonpayable",
			"type": "function"
		},
		{
			"inputs": [],
			"name": "endAt",
			"outputs": [
				{
					"internalType": "uint256",
					"name": "",
					"type": "uint256"
				}
			],
			"stateMutability": "view",
			"type": "function"
		},
		{
			"inputs": [],
			"name": "message",
			"outputs": [
				{
					"internalType": "string",
					"name": "",
					"type": "string"
				}
			],
			"stateMutability": "view",
			"type": "function"
		},
		{
			"inputs": [],
			"name": "numberOfTicket",
			"outputs": [
				{
					"internalType": "uint256",
					"name": "",
					"type": "uint256"
				}
			],
			"stateMutability": "view",
			"type": "function"
		},
		{
			"inputs": [],
			"name": "startAt",
			"outputs": [
				{
					"internalType": "uint256",
					"name": "",
					"type": "uint256"
				}
			],
			"stateMutability": "view",
			"type": "function"
		},
		{
			"inputs": [],
			"name": "ticketPrice",
			"outputs": [
				{
					"internalType": "uint256",
					"name": "",
					"type": "uint256"
				}
			],
			"stateMutability": "view",
			"type": "function"
		},
		{
			"inputs": [],
			"name": "timeRange",
			"outputs": [
				{
					"internalType": "uint256",
					"name": "",
					"type": "uint256"
				}
			],
			"stateMutability": "view",
			"type": "function"
		},
		{
			"inputs": [],
			"name": "totalAmount",
			"outputs": [
				{
					"internalType": "uint256",
					"name": "",
					"type": "uint256"
				}
			],
			"stateMutability": "view",
			"type": "function"
		}
	]
}